{
  "_format": "hh-sol-artifact-1",
  "contractName": "Market",
  "sourceName": "src/backend/contracts/Market.sol",
  "abi": [
    {
      "inputs": [
        {
          "internalType": "address",
          "name": "_erc20",
          "type": "address"
        },
        {
          "internalType": "address",
          "name": "_erc721",
          "type": "address"
        }
      ],
      "stateMutability": "nonpayable",
      "type": "constructor"
    },
    {
      "anonymous": false,
      "inputs": [
        {
          "indexed": false,
          "internalType": "address",
          "name": "seller",
          "type": "address"
        },
        {
          "indexed": false,
          "internalType": "address",
          "name": "buyer",
          "type": "address"
        },
        {
          "indexed": false,
          "internalType": "uint256",
          "name": "tokenId",
          "type": "uint256"
        },
        {
          "indexed": false,
          "internalType": "uint256",
          "name": "price",
          "type": "uint256"
        }
      ],
      "name": "Deal",
      "type": "event"
    },
    {
      "anonymous": false,
      "inputs": [
        {
          "indexed": false,
          "internalType": "address",
          "name": "seller",
          "type": "address"
        },
        {
          "indexed": false,
          "internalType": "uint256",
          "name": "tokenId",
          "type": "uint256"
        },
        {
          "indexed": false,
          "internalType": "uint256",
          "name": "price",
          "type": "uint256"
        }
      ],
      "name": "NewOrder",
      "type": "event"
    },
    {
      "anonymous": false,
      "inputs": [
        {
          "indexed": false,
          "internalType": "address",
          "name": "seller",
          "type": "address"
        },
        {
          "indexed": false,
          "internalType": "uint256",
          "name": "tokenId",
          "type": "uint256"
        }
      ],
      "name": "OrderCancelled",
      "type": "event"
    },
    {
      "anonymous": false,
      "inputs": [
        {
          "indexed": false,
          "internalType": "address",
          "name": "seller",
          "type": "address"
        },
        {
          "indexed": false,
          "internalType": "uint256",
          "name": "tokenId",
          "type": "uint256"
        },
        {
          "indexed": false,
          "internalType": "uint256",
          "name": "privousPrice",
          "type": "uint256"
        },
        {
          "indexed": false,
          "internalType": "uint256",
          "name": "price",
          "type": "uint256"
        }
      ],
      "name": "PriceChanged",
      "type": "event"
    },
    {
      "inputs": [
        {
          "internalType": "uint256",
          "name": "_tokenId",
          "type": "uint256"
        }
      ],
      "name": "buy",
      "outputs": [],
      "stateMutability": "nonpayable",
      "type": "function"
    },
    {
      "inputs": [
        {
          "internalType": "uint256",
          "name": "_tokenId",
          "type": "uint256"
        }
      ],
      "name": "cancelOrder",
      "outputs": [],
      "stateMutability": "nonpayable",
      "type": "function"
    },
    {
      "inputs": [
        {
          "internalType": "uint256",
          "name": "_tokenId",
          "type": "uint256"
        },
        {
          "internalType": "uint256",
          "name": "_price",
          "type": "uint256"
        }
      ],
      "name": "changePrice",
      "outputs": [],
      "stateMutability": "nonpayable",
      "type": "function"
    },
    {
      "inputs": [],
      "name": "erc20",
      "outputs": [
        {
          "internalType": "contract IERC20",
          "name": "",
          "type": "address"
        }
      ],
      "stateMutability": "view",
      "type": "function"
    },
    {
      "inputs": [],
      "name": "erc721",
      "outputs": [
        {
          "internalType": "contract IERC721",
          "name": "",
          "type": "address"
        }
      ],
      "stateMutability": "view",
      "type": "function"
    },
    {
      "inputs": [],
      "name": "getAllNFTs",
      "outputs": [
        {
          "components": [
            {
              "internalType": "address",
              "name": "seller",
              "type": "address"
            },
            {
              "internalType": "uint256",
              "name": "tokenId",
              "type": "uint256"
            },
            {
              "internalType": "uint256",
              "name": "price",
              "type": "uint256"
            }
          ],
          "internalType": "struct Market.Order[]",
          "name": "",
          "type": "tuple[]"
        }
      ],
      "stateMutability": "view",
      "type": "function"
    },
    {
      "inputs": [],
      "name": "getMyNFTs",
      "outputs": [
        {
          "components": [
            {
              "internalType": "address",
              "name": "seller",
              "type": "address"
            },
            {
              "internalType": "uint256",
              "name": "tokenId",
              "type": "uint256"
            },
            {
              "internalType": "uint256",
              "name": "price",
              "type": "uint256"
            }
          ],
          "internalType": "struct Market.Order[]",
          "name": "",
          "type": "tuple[]"
        }
      ],
      "stateMutability": "view",
      "type": "function"
    },
    {
      "inputs": [],
      "name": "getOrderLength",
      "outputs": [
        {
          "internalType": "uint256",
          "name": "",
          "type": "uint256"
        }
      ],
      "stateMutability": "view",
      "type": "function"
    },
    {
      "inputs": [
        {
          "internalType": "uint256",
          "name": "",
          "type": "uint256"
        }
      ],
      "name": "idToOrderIndex",
      "outputs": [
        {
          "internalType": "uint256",
          "name": "",
          "type": "uint256"
        }
      ],
      "stateMutability": "view",
      "type": "function"
    },
    {
      "inputs": [
        {
          "internalType": "uint256",
          "name": "_tokenId",
          "type": "uint256"
        }
      ],
      "name": "isListed",
      "outputs": [
        {
          "internalType": "bool",
          "name": "",
          "type": "bool"
        }
      ],
      "stateMutability": "view",
      "type": "function"
    },
    {
      "inputs": [
        {
          "internalType": "address",
          "name": "operator",
          "type": "address"
        },
        {
          "internalType": "address",
          "name": "from",
          "type": "address"
        },
        {
          "internalType": "uint256",
          "name": "tokenId",
          "type": "uint256"
        },
        {
          "internalType": "bytes",
          "name": "data",
          "type": "bytes"
        }
      ],
      "name": "onERC721Received",
      "outputs": [
        {
          "internalType": "bytes4",
          "name": "",
          "type": "bytes4"
        }
      ],
      "stateMutability": "nonpayable",
      "type": "function"
    },
    {
      "inputs": [
        {
          "internalType": "uint256",
          "name": "",
          "type": "uint256"
        }
      ],
      "name": "orderOfId",
      "outputs": [
        {
          "internalType": "address",
          "name": "seller",
          "type": "address"
        },
        {
          "internalType": "uint256",
          "name": "tokenId",
          "type": "uint256"
        },
        {
          "internalType": "uint256",
          "name": "price",
          "type": "uint256"
        }
      ],
      "stateMutability": "view",
      "type": "function"
    },
    {
      "inputs": [
        {
          "internalType": "uint256",
          "name": "",
          "type": "uint256"
        }
      ],
      "name": "orders",
      "outputs": [
        {
          "internalType": "address",
          "name": "seller",
          "type": "address"
        },
        {
          "internalType": "uint256",
          "name": "tokenId",
          "type": "uint256"
        },
        {
          "internalType": "uint256",
          "name": "price",
          "type": "uint256"
        }
      ],
      "stateMutability": "view",
      "type": "function"
    },
    {
      "inputs": [
        {
          "internalType": "bytes",
          "name": "_bytes",
          "type": "bytes"
        },
        {
          "internalType": "uint256",
          "name": "_start",
          "type": "uint256"
        }
      ],
      "name": "toUint256",
      "outputs": [
        {
          "internalType": "uint256",
          "name": "",
          "type": "uint256"
        }
      ],
      "stateMutability": "pure",
      "type": "function"
    }
  ],
  "bytecode": "0x60806040523480156200001157600080fd5b5060405162001f8f38038062001f8f83398181016040528101906200003791906200020e565b600073ffffffffffffffffffffffffffffffffffffffff168273ffffffffffffffffffffffffffffffffffffffff1603620000a9576040517f08c379a0000000000000000000000000000000000000000000000000000000008152600401620000a090620002b6565b60405180910390fd5b600073ffffffffffffffffffffffffffffffffffffffff168173ffffffffffffffffffffffffffffffffffffffff16036200011b576040517f08c379a00000000000000000000000000000000000000000000000000000000081526004016200011290620002b6565b60405180910390fd5b816000806101000a81548173ffffffffffffffffffffffffffffffffffffffff021916908373ffffffffffffffffffffffffffffffffffffffff16021790555080600160006101000a81548173ffffffffffffffffffffffffffffffffffffffff021916908373ffffffffffffffffffffffffffffffffffffffff1602179055505050620002d8565b600080fd5b600073ffffffffffffffffffffffffffffffffffffffff82169050919050565b6000620001d682620001a9565b9050919050565b620001e881620001c9565b8114620001f457600080fd5b50565b6000815190506200020881620001dd565b92915050565b60008060408385031215620002285762000227620001a4565b5b60006200023885828601620001f7565b92505060206200024b85828601620001f7565b9150509250929050565b600082825260208201905092915050565b7f7a65726f20616464726573730000000000000000000000000000000000000000600082015250565b60006200029e600c8362000255565b9150620002ab8262000266565b602082019050919050565b60006020820190508181036000830152620002d1816200028f565b9050919050565b611ca780620002e86000396000f3fe608060405234801561001057600080fd5b50600436106100ea5760003560e01c8063b3de019c1161008c578063d96a094a11610066578063d96a094a14610263578063da694df01461027f578063e0391b09146102af578063fcce4883146102cd576100ea565b8063b3de019c146101f9578063b5cdf92414610215578063bca6ce6414610245576100ea565b8063629cb2e4116100c8578063629cb2e41461016d578063785e9e861461018b5780639d4971b7146101a9578063a85c38ef146101c7576100ea565b8063150b7a02146100ef578063394a90771461011f578063514fcac714610151575b600080fd5b6101096004803603810190610104919061124f565b6102fd565b6040516101169190611312565b60405180910390f35b6101396004803603810190610134919061132d565b610567565b60405161014893929190611378565b60405180910390f35b61016b6004803603810190610166919061132d565b6105b1565b005b610175610731565b60405161018291906114be565b60405180910390f35b6101936108f3565b6040516101a0919061153f565b60405180910390f35b6101b1610917565b6040516101be919061155a565b60405180910390f35b6101e160048036038101906101dc919061132d565b610924565b6040516101f093929190611378565b60405180910390f35b610213600480360381019061020e9190611575565b61097e565b005b61022f600480360381019061022a91906116f6565b610ae3565b60405161023c919061155a565b60405180910390f35b61024d610b99565b60405161025a9190611773565b60405180910390f35b61027d6004803603810190610278919061132d565b610bbf565b005b6102996004803603810190610294919061132d565b610dd6565b6040516102a6919061155a565b60405180910390f35b6102b7610dee565b6040516102c491906114be565b60405180910390f35b6102e760048036038101906102e2919061132d565b610eb7565b6040516102f491906117a9565b60405180910390f35b60008061034f84848080601f016020809104026020016040519081016040528093929190818152602001838380828437600081840152601f19601f820116905080830192505050505050506000610ae3565b905060008111610394576040517f08c379a000000000000000000000000000000000000000000000000000000000815260040161038b90611821565b60405180910390fd5b60405180606001604052808773ffffffffffffffffffffffffffffffffffffffff168152602001868152602001828152506002600087815260200190815260200160002060008201518160000160006101000a81548173ffffffffffffffffffffffffffffffffffffffff021916908373ffffffffffffffffffffffffffffffffffffffff1602179055506020820151816001015560408201518160020155905050600360405180606001604052808873ffffffffffffffffffffffffffffffffffffffff16815260200187815260200183815250908060018154018082558091505060019003906000526020600020906003020160009091909190915060008201518160000160006101000a81548173ffffffffffffffffffffffffffffffffffffffff021916908373ffffffffffffffffffffffffffffffffffffffff1602179055506020820151816001015560408201518160020155505060016003805490506105019190611870565b60046000878152602001908152602001600020819055507fd5b509e657d5ec37ae4bdcab658b7340c0453bb630516d26623359a34c1cecf386868360405161054b93929190611378565b60405180910390a163150b7a0260e01b91505095945050505050565b60026020528060005260406000206000915090508060000160009054906101000a900473ffffffffffffffffffffffffffffffffffffffff16908060010154908060020154905083565b60006002600083815260200190815260200160002060000160009054906101000a900473ffffffffffffffffffffffffffffffffffffffff1690508073ffffffffffffffffffffffffffffffffffffffff163373ffffffffffffffffffffffffffffffffffffffff161461065a576040517f08c379a0000000000000000000000000000000000000000000000000000000008152600401610651906118f0565b60405180910390fd5b600160009054906101000a900473ffffffffffffffffffffffffffffffffffffffff1673ffffffffffffffffffffffffffffffffffffffff166342842e0e3083856040518463ffffffff1660e01b81526004016106b993929190611910565b600060405180830381600087803b1580156106d357600080fd5b505af11580156106e7573d6000803e3d6000fd5b505050506106f482610f26565b7fdd003742fb214507783ce004fe55f5ac14f89c6de4a7cd7487e47eb091c622658183604051610725929190611947565b60405180910390a15050565b6060600060038054905067ffffffffffffffff811115610754576107536115cb565b5b60405190808252806020026020018201604052801561078d57816020015b61077a61110b565b8152602001906001900390816107725790505b5090506000805b6003805490508110156108ea573373ffffffffffffffffffffffffffffffffffffffff16600382815481106107cc576107cb611970565b5b906000526020600020906003020160000160009054906101000a900473ffffffffffffffffffffffffffffffffffffffff1673ffffffffffffffffffffffffffffffffffffffff16036108dd576003818154811061082d5761082c611970565b5b90600052602060002090600302016040518060600160405290816000820160009054906101000a900473ffffffffffffffffffffffffffffffffffffffff1673ffffffffffffffffffffffffffffffffffffffff1673ffffffffffffffffffffffffffffffffffffffff168152602001600182015481526020016002820154815250508383815181106108c3576108c2611970565b5b602002602001018190525081806108d99061199f565b9250505b8080600101915050610794565b50819250505090565b60008054906101000a900473ffffffffffffffffffffffffffffffffffffffff1681565b6000600380549050905090565b6003818154811061093457600080fd5b90600052602060002090600302016000915090508060000160009054906101000a900473ffffffffffffffffffffffffffffffffffffffff16908060010154908060020154905083565b60006002600084815260200190815260200160002060000160009054906101000a900473ffffffffffffffffffffffffffffffffffffffff1690508073ffffffffffffffffffffffffffffffffffffffff163373ffffffffffffffffffffffffffffffffffffffff1614610a27576040517f08c379a0000000000000000000000000000000000000000000000000000000008152600401610a1e906118f0565b60405180910390fd5b60006002600085815260200190815260200160002060020154905082600260008681526020019081526020016000206002018190555060006003600460008781526020019081526020016000205481548110610a8657610a85611970565b5b906000526020600020906003020190508381600201819055507fdac6aecd066304d15a41e8e590fc5ab5bf93634f43cba363f743d5e158d7998883868487604051610ad494939291906119e7565b60405180910390a15050505050565b600081602083610af39190611a2c565b1015610b34576040517f08c379a0000000000000000000000000000000000000000000000000000000008152600401610b2b90611aac565b60405180910390fd5b602082610b419190611a2c565b83511015610b84576040517f08c379a0000000000000000000000000000000000000000000000000000000008152600401610b7b90611b18565b60405180910390fd5b60008260208501015190508091505092915050565b600160009054906101000a900473ffffffffffffffffffffffffffffffffffffffff1681565b60006002600083815260200190815260200160002060000160009054906101000a900473ffffffffffffffffffffffffffffffffffffffff169050600033905060006002600085815260200190815260200160002060020154905060008054906101000a900473ffffffffffffffffffffffffffffffffffffffff1673ffffffffffffffffffffffffffffffffffffffff166323b872dd8385846040518463ffffffff1660e01b8152600401610c7793929190611910565b6020604051808303816000875af1158015610c96573d6000803e3d6000fd5b505050506040513d601f19601f82011682018060405250810190610cba9190611b64565b610cf9576040517f08c379a0000000000000000000000000000000000000000000000000000000008152600401610cf090611bdd565b60405180910390fd5b600160009054906101000a900473ffffffffffffffffffffffffffffffffffffffff1673ffffffffffffffffffffffffffffffffffffffff166342842e0e3084876040518463ffffffff1660e01b8152600401610d5893929190611910565b600060405180830381600087803b158015610d7257600080fd5b505af1158015610d86573d6000803e3d6000fd5b50505050610d9384610f26565b7f424d5e5f0192c7dacdbe646ca31b00299146d883d76a95ef5cddbac7cd342eab83838684604051610dc89493929190611bfd565b60405180910390a150505050565b60046020528060005260406000206000915090505481565b60606003805480602002602001604051908101604052809291908181526020016000905b82821015610eae57838290600052602060002090600302016040518060600160405290816000820160009054906101000a900473ffffffffffffffffffffffffffffffffffffffff1673ffffffffffffffffffffffffffffffffffffffff1673ffffffffffffffffffffffffffffffffffffffff1681526020016001820154815260200160028201548152505081526020019060010190610e12565b50505050905090565b60008073ffffffffffffffffffffffffffffffffffffffff166002600084815260200190815260200160002060000160009054906101000a900473ffffffffffffffffffffffffffffffffffffffff1673ffffffffffffffffffffffffffffffffffffffff1614159050919050565b60006004600083815260200190815260200160002054905060006001600380549050610f529190611870565b905080821461104057600060038281548110610f7157610f70611970565b5b906000526020600020906003020190508060038481548110610f9657610f95611970565b5b90600052602060002090600302016000820160009054906101000a900473ffffffffffffffffffffffffffffffffffffffff168160000160006101000a81548173ffffffffffffffffffffffffffffffffffffffff021916908373ffffffffffffffffffffffffffffffffffffffff160217905550600182015481600101556002820154816002015590505082600460008360010154815260200190815260200160002081905550505b600380548061105257611051611c42565b5b6001900381819060005260206000209060030201600080820160006101000a81549073ffffffffffffffffffffffffffffffffffffffff02191690556001820160009055600282016000905550509055600460008481526020019081526020016000206000905560026000848152602001908152602001600020600080820160006101000a81549073ffffffffffffffffffffffffffffffffffffffff0219169055600182016000905560028201600090555050505050565b6040518060600160405280600073ffffffffffffffffffffffffffffffffffffffff16815260200160008152602001600081525090565b6000604051905090565b600080fd5b600080fd5b600073ffffffffffffffffffffffffffffffffffffffff82169050919050565b600061118182611156565b9050919050565b61119181611176565b811461119c57600080fd5b50565b6000813590506111ae81611188565b92915050565b6000819050919050565b6111c7816111b4565b81146111d257600080fd5b50565b6000813590506111e4816111be565b92915050565b600080fd5b600080fd5b600080fd5b60008083601f84011261120f5761120e6111ea565b5b8235905067ffffffffffffffff81111561122c5761122b6111ef565b5b602083019150836001820283011115611248576112476111f4565b5b9250929050565b60008060008060006080868803121561126b5761126a61114c565b5b60006112798882890161119f565b955050602061128a8882890161119f565b945050604061129b888289016111d5565b935050606086013567ffffffffffffffff8111156112bc576112bb611151565b5b6112c8888289016111f9565b92509250509295509295909350565b60007fffffffff0000000000000000000000000000000000000000000000000000000082169050919050565b61130c816112d7565b82525050565b60006020820190506113276000830184611303565b92915050565b6000602082840312156113435761134261114c565b5b6000611351848285016111d5565b91505092915050565b61136381611176565b82525050565b611372816111b4565b82525050565b600060608201905061138d600083018661135a565b61139a6020830185611369565b6113a76040830184611369565b949350505050565b600081519050919050565b600082825260208201905092915050565b6000819050602082019050919050565b6113e481611176565b82525050565b6113f3816111b4565b82525050565b60608201600082015161140f60008501826113db565b50602082015161142260208501826113ea565b50604082015161143560408501826113ea565b50505050565b600061144783836113f9565b60608301905092915050565b6000602082019050919050565b600061146b826113af565b61147581856113ba565b9350611480836113cb565b8060005b838110156114b1578151611498888261143b565b97506114a383611453565b925050600181019050611484565b5085935050505092915050565b600060208201905081810360008301526114d88184611460565b905092915050565b6000819050919050565b60006115056115006114fb84611156565b6114e0565b611156565b9050919050565b6000611517826114ea565b9050919050565b60006115298261150c565b9050919050565b6115398161151e565b82525050565b60006020820190506115546000830184611530565b92915050565b600060208201905061156f6000830184611369565b92915050565b6000806040838503121561158c5761158b61114c565b5b600061159a858286016111d5565b92505060206115ab858286016111d5565b9150509250929050565b600080fd5b6000601f19601f8301169050919050565b7f4e487b7100000000000000000000000000000000000000000000000000000000600052604160045260246000fd5b611603826115ba565b810181811067ffffffffffffffff82111715611622576116216115cb565b5b80604052505050565b6000611635611142565b905061164182826115fa565b919050565b600067ffffffffffffffff821115611661576116606115cb565b5b61166a826115ba565b9050602081019050919050565b82818337600083830152505050565b600061169961169484611646565b61162b565b9050828152602081018484840111156116b5576116b46115b5565b5b6116c0848285611677565b509392505050565b600082601f8301126116dd576116dc6111ea565b5b81356116ed848260208601611686565b91505092915050565b6000806040838503121561170d5761170c61114c565b5b600083013567ffffffffffffffff81111561172b5761172a611151565b5b611737858286016116c8565b9250506020611748858286016111d5565b9150509250929050565b600061175d8261150c565b9050919050565b61176d81611752565b82525050565b60006020820190506117886000830184611764565b92915050565b60008115159050919050565b6117a38161178e565b82525050565b60006020820190506117be600083018461179a565b92915050565b600082825260208201905092915050565b7f7072696365206d7573742062652067726561746572207468616e203000000000600082015250565b600061180b601c836117c4565b9150611816826117d5565b602082019050919050565b6000602082019050818103600083015261183a816117fe565b9050919050565b7f4e487b7100000000000000000000000000000000000000000000000000000000600052601160045260246000fd5b600061187b826111b4565b9150611886836111b4565b925082820390508181111561189e5761189d611841565b5b92915050565b7f6e6f742073656c6c657200000000000000000000000000000000000000000000600082015250565b60006118da600a836117c4565b91506118e5826118a4565b602082019050919050565b60006020820190508181036000830152611909816118cd565b9050919050565b6000606082019050611925600083018661135a565b611932602083018561135a565b61193f6040830184611369565b949350505050565b600060408201905061195c600083018561135a565b6119696020830184611369565b9392505050565b7f4e487b7100000000000000000000000000000000000000000000000000000000600052603260045260246000fd5b60006119aa826111b4565b91507fffffffffffffffffffffffffffffffffffffffffffffffffffffffffffffffff82036119dc576119db611841565b5b600182019050919050565b60006080820190506119fc600083018761135a565b611a096020830186611369565b611a166040830185611369565b611a236060830184611369565b95945050505050565b6000611a37826111b4565b9150611a42836111b4565b9250828201905080821115611a5a57611a59611841565b5b92915050565b7f4d61726b65743a746f55696e743235365f6f766572666c6f7700000000000000600082015250565b6000611a966019836117c4565b9150611aa182611a60565b602082019050919050565b60006020820190508181036000830152611ac581611a89565b9050919050565b7f4d61726b65743a20746f55696e743235365f6f75744f66426f756e6473000000600082015250565b6000611b02601d836117c4565b9150611b0d82611acc565b602082019050919050565b60006020820190508181036000830152611b3181611af5565b9050919050565b611b418161178e565b8114611b4c57600080fd5b50565b600081519050611b5e81611b38565b92915050565b600060208284031215611b7a57611b7961114c565b5b6000611b8884828501611b4f565b91505092915050565b7f7472616e73666572206e6f74207375636365737366756c000000000000000000600082015250565b6000611bc76017836117c4565b9150611bd282611b91565b602082019050919050565b60006020820190508181036000830152611bf681611bba565b9050919050565b6000608082019050611c12600083018761135a565b611c1f602083018661135a565b611c2c6040830185611369565b611c396060830184611369565b95945050505050565b7f4e487b7100000000000000000000000000000000000000000000000000000000600052603160045260246000fdfea2646970667358221220c6e64eb4b82efd0ce178ca9f61626dc4ac35ca589be5703d9a0ea92d1fa1430f64736f6c63430008180033",
  "linkReferences": {},
  "deployedLinkReferences": {}
}