{
  "_format": "hh-sol-artifact-1",
  "contractName": "Market",
  "sourceName": "src/backend/contracts/Market.sol",
  "abi": [
    {
      "inputs": [
        {
          "internalType": "address",
          "name": "_erc20",
          "type": "address"
        },
        {
          "internalType": "address",
          "name": "_erc721",
          "type": "address"
        }
      ],
      "stateMutability": "nonpayable",
      "type": "constructor"
    },
    {
      "anonymous": false,
      "inputs": [
        {
          "indexed": false,
          "internalType": "address",
          "name": "seller",
          "type": "address"
        },
        {
          "indexed": false,
          "internalType": "address",
          "name": "buyer",
          "type": "address"
        },
        {
          "indexed": false,
          "internalType": "uint256",
          "name": "tokenId",
          "type": "uint256"
        },
        {
          "indexed": false,
          "internalType": "uint256",
          "name": "price",
          "type": "uint256"
        }
      ],
      "name": "Deal",
      "type": "event"
    },
    {
      "anonymous": false,
      "inputs": [
        {
          "indexed": false,
          "internalType": "uint256",
          "name": "tokenID",
          "type": "uint256"
        },
        {
          "indexed": false,
          "internalType": "address",
          "name": "from",
          "type": "address"
        },
        {
          "indexed": false,
          "internalType": "address",
          "name": "to",
          "type": "address"
        },
        {
          "indexed": false,
          "internalType": "string",
          "name": "tokenURI",
          "type": "string"
        },
        {
          "indexed": false,
          "internalType": "uint256",
          "name": "price",
          "type": "uint256"
        }
      ],
      "name": "NFTTransfer",
      "type": "event"
    },
    {
      "anonymous": false,
      "inputs": [
        {
          "indexed": false,
          "internalType": "address",
          "name": "seller",
          "type": "address"
        },
        {
          "indexed": false,
          "internalType": "uint256",
          "name": "tokenId",
          "type": "uint256"
        },
        {
          "indexed": false,
          "internalType": "uint256",
          "name": "price",
          "type": "uint256"
        }
      ],
      "name": "NewOrder",
      "type": "event"
    },
    {
      "anonymous": false,
      "inputs": [
        {
          "indexed": false,
          "internalType": "address",
          "name": "seller",
          "type": "address"
        },
        {
          "indexed": false,
          "internalType": "uint256",
          "name": "tokenId",
          "type": "uint256"
        }
      ],
      "name": "OrderCancelled",
      "type": "event"
    },
    {
      "anonymous": false,
      "inputs": [
        {
          "indexed": false,
          "internalType": "address",
          "name": "seller",
          "type": "address"
        },
        {
          "indexed": false,
          "internalType": "uint256",
          "name": "tokenId",
          "type": "uint256"
        },
        {
          "indexed": false,
          "internalType": "uint256",
          "name": "privousPrice",
          "type": "uint256"
        },
        {
          "indexed": false,
          "internalType": "uint256",
          "name": "price",
          "type": "uint256"
        }
      ],
      "name": "PriceChanged",
      "type": "event"
    },
    {
      "inputs": [
        {
          "internalType": "uint256",
          "name": "_tokenId",
          "type": "uint256"
        }
      ],
      "name": "buy",
      "outputs": [],
      "stateMutability": "nonpayable",
      "type": "function"
    },
    {
      "inputs": [
        {
          "internalType": "uint256",
          "name": "_tokenId",
          "type": "uint256"
        }
      ],
      "name": "cancelOrder",
      "outputs": [],
      "stateMutability": "nonpayable",
      "type": "function"
    },
    {
      "inputs": [
        {
          "internalType": "uint256",
          "name": "_tokenId",
          "type": "uint256"
        },
        {
          "internalType": "uint256",
          "name": "_price",
          "type": "uint256"
        }
      ],
      "name": "changePrice",
      "outputs": [],
      "stateMutability": "nonpayable",
      "type": "function"
    },
    {
      "inputs": [],
      "name": "erc20",
      "outputs": [
        {
          "internalType": "contract IERC20",
          "name": "",
          "type": "address"
        }
      ],
      "stateMutability": "view",
      "type": "function"
    },
    {
      "inputs": [],
      "name": "erc721",
      "outputs": [
        {
          "internalType": "contract IERC721",
          "name": "",
          "type": "address"
        }
      ],
      "stateMutability": "view",
      "type": "function"
    },
    {
      "inputs": [],
      "name": "getAllNFTs",
      "outputs": [
        {
          "components": [
            {
              "internalType": "address",
              "name": "seller",
              "type": "address"
            },
            {
              "internalType": "uint256",
              "name": "tokenId",
              "type": "uint256"
            },
            {
              "internalType": "uint256",
              "name": "price",
              "type": "uint256"
            }
          ],
          "internalType": "struct Market.Order[]",
          "name": "",
          "type": "tuple[]"
        }
      ],
      "stateMutability": "view",
      "type": "function"
    },
    {
      "inputs": [],
      "name": "getMyNFTs",
      "outputs": [
        {
          "components": [
            {
              "internalType": "address",
              "name": "seller",
              "type": "address"
            },
            {
              "internalType": "uint256",
              "name": "tokenId",
              "type": "uint256"
            },
            {
              "internalType": "uint256",
              "name": "price",
              "type": "uint256"
            }
          ],
          "internalType": "struct Market.Order[]",
          "name": "",
          "type": "tuple[]"
        }
      ],
      "stateMutability": "view",
      "type": "function"
    },
    {
      "inputs": [],
      "name": "getOrderLength",
      "outputs": [
        {
          "internalType": "uint256",
          "name": "",
          "type": "uint256"
        }
      ],
      "stateMutability": "view",
      "type": "function"
    },
    {
      "inputs": [
        {
          "internalType": "uint256",
          "name": "",
          "type": "uint256"
        }
      ],
      "name": "idToOrderIndex",
      "outputs": [
        {
          "internalType": "uint256",
          "name": "",
          "type": "uint256"
        }
      ],
      "stateMutability": "view",
      "type": "function"
    },
    {
      "inputs": [
        {
          "internalType": "uint256",
          "name": "_tokenId",
          "type": "uint256"
        }
      ],
      "name": "isListed",
      "outputs": [
        {
          "internalType": "bool",
          "name": "",
          "type": "bool"
        }
      ],
      "stateMutability": "view",
      "type": "function"
    },
    {
      "inputs": [
        {
          "internalType": "uint256",
          "name": "tokenID",
          "type": "uint256"
        },
        {
          "internalType": "uint256",
          "name": "price",
          "type": "uint256"
        }
      ],
      "name": "listNFT",
      "outputs": [],
      "stateMutability": "nonpayable",
      "type": "function"
    },
    {
      "inputs": [
        {
          "internalType": "address",
          "name": "from",
          "type": "address"
        },
        {
          "internalType": "uint256",
          "name": "tokenId",
          "type": "uint256"
        },
        {
          "internalType": "bytes",
          "name": "data",
          "type": "bytes"
        }
      ],
      "name": "onERC721Received",
      "outputs": [
        {
          "internalType": "bytes4",
          "name": "",
          "type": "bytes4"
        }
      ],
      "stateMutability": "nonpayable",
      "type": "function"
    },
    {
      "inputs": [
        {
          "internalType": "uint256",
          "name": "",
          "type": "uint256"
        }
      ],
      "name": "orderOfId",
      "outputs": [
        {
          "internalType": "address",
          "name": "seller",
          "type": "address"
        },
        {
          "internalType": "uint256",
          "name": "tokenId",
          "type": "uint256"
        },
        {
          "internalType": "uint256",
          "name": "price",
          "type": "uint256"
        }
      ],
      "stateMutability": "view",
      "type": "function"
    },
    {
      "inputs": [
        {
          "internalType": "uint256",
          "name": "",
          "type": "uint256"
        }
      ],
      "name": "orders",
      "outputs": [
        {
          "internalType": "address",
          "name": "seller",
          "type": "address"
        },
        {
          "internalType": "uint256",
          "name": "tokenId",
          "type": "uint256"
        },
        {
          "internalType": "uint256",
          "name": "price",
          "type": "uint256"
        }
      ],
      "stateMutability": "view",
      "type": "function"
    },
    {
      "inputs": [
        {
          "internalType": "bytes",
          "name": "_bytes",
          "type": "bytes"
        },
        {
          "internalType": "uint256",
          "name": "_start",
          "type": "uint256"
        }
      ],
      "name": "toUint256",
      "outputs": [
        {
          "internalType": "uint256",
          "name": "",
          "type": "uint256"
        }
      ],
      "stateMutability": "pure",
      "type": "function"
    }
  ],
  "bytecode": "0x60806040523480156200001157600080fd5b506040516200238d3803806200238d83398181016040528101906200003791906200020e565b600073ffffffffffffffffffffffffffffffffffffffff168273ffffffffffffffffffffffffffffffffffffffff1603620000a9576040517f08c379a0000000000000000000000000000000000000000000000000000000008152600401620000a090620002b6565b60405180910390fd5b600073ffffffffffffffffffffffffffffffffffffffff168173ffffffffffffffffffffffffffffffffffffffff16036200011b576040517f08c379a00000000000000000000000000000000000000000000000000000000081526004016200011290620002b6565b60405180910390fd5b816000806101000a81548173ffffffffffffffffffffffffffffffffffffffff021916908373ffffffffffffffffffffffffffffffffffffffff16021790555080600160006101000a81548173ffffffffffffffffffffffffffffffffffffffff021916908373ffffffffffffffffffffffffffffffffffffffff1602179055505050620002d8565b600080fd5b600073ffffffffffffffffffffffffffffffffffffffff82169050919050565b6000620001d682620001a9565b9050919050565b620001e881620001c9565b8114620001f457600080fd5b50565b6000815190506200020881620001dd565b92915050565b60008060408385031215620002285762000227620001a4565b5b60006200023885828601620001f7565b92505060206200024b85828601620001f7565b9150509250929050565b600082825260208201905092915050565b7f7a65726f20616464726573730000000000000000000000000000000000000000600082015250565b60006200029e600c8362000255565b9150620002ab8262000266565b602082019050919050565b60006020820190508181036000830152620002d1816200028f565b9050919050565b6120a580620002e86000396000f3fe608060405234801561001057600080fd5b50600436106100f55760003560e01c8063b3de019c11610097578063da694df011610066578063da694df014610276578063e0391b09146102a6578063f0b9e5ba146102c4578063fcce4883146102f4576100f5565b8063b3de019c146101f0578063b5cdf9241461020c578063bca6ce641461023c578063d96a094a1461025a576100f5565b8063785e9e86116100d3578063785e9e861461016657806394383f14146101845780639d4971b7146101a0578063a85c38ef146101be576100f5565b8063394a9077146100fa578063514fcac71461012c578063629cb2e414610148575b600080fd5b610114600480360381019061010f9190611472565b610324565b604051610123939291906114ef565b60405180910390f35b61014660048036038101906101419190611472565b61036e565b005b6101506104ee565b60405161015d9190611635565b60405180910390f35b61016e6106b0565b60405161017b91906116b6565b60405180910390f35b61019e600480360381019061019991906116d1565b6106d4565b005b6101a8610994565b6040516101b59190611711565b60405180910390f35b6101d860048036038101906101d39190611472565b6109a1565b6040516101e7939291906114ef565b60405180910390f35b61020a600480360381019061020591906116d1565b6109fb565b005b61022660048036038101906102219190611872565b610b60565b6040516102339190611711565b60405180910390f35b610244610c16565b60405161025191906118ef565b60405180910390f35b610274600480360381019061026f9190611472565b610c3c565b005b610290600480360381019061028b9190611472565b610e53565b60405161029d9190611711565b60405180910390f35b6102ae610e6b565b6040516102bb9190611635565b60405180910390f35b6102de60048036038101906102d99190611996565b610f34565b6040516102eb9190611a45565b60405180910390f35b61030e60048036038101906103099190611472565b61119d565b60405161031b9190611a7b565b60405180910390f35b60026020528060005260406000206000915090508060000160009054906101000a900473ffffffffffffffffffffffffffffffffffffffff16908060010154908060020154905083565b60006002600083815260200190815260200160002060000160009054906101000a900473ffffffffffffffffffffffffffffffffffffffff1690508073ffffffffffffffffffffffffffffffffffffffff163373ffffffffffffffffffffffffffffffffffffffff1614610417576040517f08c379a000000000000000000000000000000000000000000000000000000000815260040161040e90611af3565b60405180910390fd5b600160009054906101000a900473ffffffffffffffffffffffffffffffffffffffff1673ffffffffffffffffffffffffffffffffffffffff166342842e0e3083856040518463ffffffff1660e01b815260040161047693929190611b13565b600060405180830381600087803b15801561049057600080fd5b505af11580156104a4573d6000803e3d6000fd5b505050506104b18261120c565b7fdd003742fb214507783ce004fe55f5ac14f89c6de4a7cd7487e47eb091c6226581836040516104e2929190611b4a565b60405180910390a15050565b6060600060038054905067ffffffffffffffff81111561051157610510611747565b5b60405190808252806020026020018201604052801561054a57816020015b6105376113f1565b81526020019060019003908161052f5790505b5090506000805b6003805490508110156106a7573373ffffffffffffffffffffffffffffffffffffffff166003828154811061058957610588611b73565b5b906000526020600020906003020160000160009054906101000a900473ffffffffffffffffffffffffffffffffffffffff1673ffffffffffffffffffffffffffffffffffffffff160361069a57600381815481106105ea576105e9611b73565b5b90600052602060002090600302016040518060600160405290816000820160009054906101000a900473ffffffffffffffffffffffffffffffffffffffff1673ffffffffffffffffffffffffffffffffffffffff1673ffffffffffffffffffffffffffffffffffffffff168152602001600182015481526020016002820154815250508383815181106106805761067f611b73565b5b6020026020010181905250818061069690611bd1565b9250505b8080600101915050610551565b50819250505090565b60008054906101000a900473ffffffffffffffffffffffffffffffffffffffff1681565b3373ffffffffffffffffffffffffffffffffffffffff16600160009054906101000a900473ffffffffffffffffffffffffffffffffffffffff1673ffffffffffffffffffffffffffffffffffffffff16636352211e846040518263ffffffff1660e01b81526004016107469190611711565b602060405180830381865afa158015610763573d6000803e3d6000fd5b505050506040513d601f19601f820116820180604052508101906107879190611c2e565b73ffffffffffffffffffffffffffffffffffffffff16146107dd576040517f08c379a00000000000000000000000000000000000000000000000000000000081526004016107d490611ca7565b60405180910390fd5b60008111610820576040517f08c379a000000000000000000000000000000000000000000000000000000000815260040161081790611d13565b60405180910390fd5b600160009054906101000a900473ffffffffffffffffffffffffffffffffffffffff1673ffffffffffffffffffffffffffffffffffffffff166323b872dd3330856040518463ffffffff1660e01b815260040161087f93929190611b13565b600060405180830381600087803b15801561089957600080fd5b505af11580156108ad573d6000803e3d6000fd5b5050505060405180606001604052803373ffffffffffffffffffffffffffffffffffffffff168152602001838152602001828152506002600084815260200190815260200160002060008201518160000160006101000a81548173ffffffffffffffffffffffffffffffffffffffff021916908373ffffffffffffffffffffffffffffffffffffffff16021790555060208201518160010155604082015181600201559050507f705332a8918666802fc1504f63ff1f002a5f6cedd30d59ad7ae0b5281aeb8dca823330846040516109889493929190611d59565b60405180910390a15050565b6000600380549050905090565b600381815481106109b157600080fd5b90600052602060002090600302016000915090508060000160009054906101000a900473ffffffffffffffffffffffffffffffffffffffff16908060010154908060020154905083565b60006002600084815260200190815260200160002060000160009054906101000a900473ffffffffffffffffffffffffffffffffffffffff1690508073ffffffffffffffffffffffffffffffffffffffff163373ffffffffffffffffffffffffffffffffffffffff1614610aa4576040517f08c379a0000000000000000000000000000000000000000000000000000000008152600401610a9b90611af3565b60405180910390fd5b60006002600085815260200190815260200160002060020154905082600260008681526020019081526020016000206002018190555060006003600460008781526020019081526020016000205481548110610b0357610b02611b73565b5b906000526020600020906003020190508381600201819055507fdac6aecd066304d15a41e8e590fc5ab5bf93634f43cba363f743d5e158d7998883868487604051610b519493929190611db1565b60405180910390a15050505050565b600081602083610b709190611df6565b1015610bb1576040517f08c379a0000000000000000000000000000000000000000000000000000000008152600401610ba890611e76565b60405180910390fd5b602082610bbe9190611df6565b83511015610c01576040517f08c379a0000000000000000000000000000000000000000000000000000000008152600401610bf890611ee2565b60405180910390fd5b60008260208501015190508091505092915050565b600160009054906101000a900473ffffffffffffffffffffffffffffffffffffffff1681565b60006002600083815260200190815260200160002060000160009054906101000a900473ffffffffffffffffffffffffffffffffffffffff169050600033905060006002600085815260200190815260200160002060020154905060008054906101000a900473ffffffffffffffffffffffffffffffffffffffff1673ffffffffffffffffffffffffffffffffffffffff166323b872dd8385846040518463ffffffff1660e01b8152600401610cf493929190611b13565b6020604051808303816000875af1158015610d13573d6000803e3d6000fd5b505050506040513d601f19601f82011682018060405250810190610d379190611f2e565b610d76576040517f08c379a0000000000000000000000000000000000000000000000000000000008152600401610d6d90611fa7565b60405180910390fd5b600160009054906101000a900473ffffffffffffffffffffffffffffffffffffffff1673ffffffffffffffffffffffffffffffffffffffff166342842e0e3084876040518463ffffffff1660e01b8152600401610dd593929190611b13565b600060405180830381600087803b158015610def57600080fd5b505af1158015610e03573d6000803e3d6000fd5b50505050610e108461120c565b7f424d5e5f0192c7dacdbe646ca31b00299146d883d76a95ef5cddbac7cd342eab83838684604051610e459493929190611fc7565b60405180910390a150505050565b60046020528060005260406000206000915090505481565b60606003805480602002602001604051908101604052809291908181526020016000905b82821015610f2b57838290600052602060002090600302016040518060600160405290816000820160009054906101000a900473ffffffffffffffffffffffffffffffffffffffff1673ffffffffffffffffffffffffffffffffffffffff1673ffffffffffffffffffffffffffffffffffffffff1681526020016001820154815260200160028201548152505081526020019060010190610e8f565b50505050905090565b600080610f8684848080601f016020809104026020016040519081016040528093929190818152602001838380828437600081840152601f19601f820116905080830192505050505050506000610b60565b905060008111610fcb576040517f08c379a0000000000000000000000000000000000000000000000000000000008152600401610fc290611d13565b60405180910390fd5b60405180606001604052808773ffffffffffffffffffffffffffffffffffffffff168152602001868152602001828152506002600087815260200190815260200160002060008201518160000160006101000a81548173ffffffffffffffffffffffffffffffffffffffff021916908373ffffffffffffffffffffffffffffffffffffffff1602179055506020820151816001015560408201518160020155905050600360405180606001604052808873ffffffffffffffffffffffffffffffffffffffff16815260200187815260200183815250908060018154018082558091505060019003906000526020600020906003020160009091909190915060008201518160000160006101000a81548173ffffffffffffffffffffffffffffffffffffffff021916908373ffffffffffffffffffffffffffffffffffffffff160217905550602082015181600101556040820151816002015550506001600380549050611138919061200c565b60046000878152602001908152602001600020819055507fd5b509e657d5ec37ae4bdcab658b7340c0453bb630516d26623359a34c1cecf3868683604051611182939291906114ef565b60405180910390a163150b7a0260e01b915050949350505050565b60008073ffffffffffffffffffffffffffffffffffffffff166002600084815260200190815260200160002060000160009054906101000a900473ffffffffffffffffffffffffffffffffffffffff1673ffffffffffffffffffffffffffffffffffffffff1614159050919050565b60006004600083815260200190815260200160002054905060006001600380549050611238919061200c565b90508082146113265760006003828154811061125757611256611b73565b5b90600052602060002090600302019050806003848154811061127c5761127b611b73565b5b90600052602060002090600302016000820160009054906101000a900473ffffffffffffffffffffffffffffffffffffffff168160000160006101000a81548173ffffffffffffffffffffffffffffffffffffffff021916908373ffffffffffffffffffffffffffffffffffffffff160217905550600182015481600101556002820154816002015590505082600460008360010154815260200190815260200160002081905550505b600380548061133857611337612040565b5b6001900381819060005260206000209060030201600080820160006101000a81549073ffffffffffffffffffffffffffffffffffffffff02191690556001820160009055600282016000905550509055600460008481526020019081526020016000206000905560026000848152602001908152602001600020600080820160006101000a81549073ffffffffffffffffffffffffffffffffffffffff0219169055600182016000905560028201600090555050505050565b6040518060600160405280600073ffffffffffffffffffffffffffffffffffffffff16815260200160008152602001600081525090565b6000604051905090565b600080fd5b600080fd5b6000819050919050565b61144f8161143c565b811461145a57600080fd5b50565b60008135905061146c81611446565b92915050565b60006020828403121561148857611487611432565b5b60006114968482850161145d565b91505092915050565b600073ffffffffffffffffffffffffffffffffffffffff82169050919050565b60006114ca8261149f565b9050919050565b6114da816114bf565b82525050565b6114e98161143c565b82525050565b600060608201905061150460008301866114d1565b61151160208301856114e0565b61151e60408301846114e0565b949350505050565b600081519050919050565b600082825260208201905092915050565b6000819050602082019050919050565b61155b816114bf565b82525050565b61156a8161143c565b82525050565b6060820160008201516115866000850182611552565b5060208201516115996020850182611561565b5060408201516115ac6040850182611561565b50505050565b60006115be8383611570565b60608301905092915050565b6000602082019050919050565b60006115e282611526565b6115ec8185611531565b93506115f783611542565b8060005b8381101561162857815161160f88826115b2565b975061161a836115ca565b9250506001810190506115fb565b5085935050505092915050565b6000602082019050818103600083015261164f81846115d7565b905092915050565b6000819050919050565b600061167c6116776116728461149f565b611657565b61149f565b9050919050565b600061168e82611661565b9050919050565b60006116a082611683565b9050919050565b6116b081611695565b82525050565b60006020820190506116cb60008301846116a7565b92915050565b600080604083850312156116e8576116e7611432565b5b60006116f68582860161145d565b92505060206117078582860161145d565b9150509250929050565b600060208201905061172660008301846114e0565b92915050565b600080fd5b600080fd5b6000601f19601f8301169050919050565b7f4e487b7100000000000000000000000000000000000000000000000000000000600052604160045260246000fd5b61177f82611736565b810181811067ffffffffffffffff8211171561179e5761179d611747565b5b80604052505050565b60006117b1611428565b90506117bd8282611776565b919050565b600067ffffffffffffffff8211156117dd576117dc611747565b5b6117e682611736565b9050602081019050919050565b82818337600083830152505050565b6000611815611810846117c2565b6117a7565b90508281526020810184848401111561183157611830611731565b5b61183c8482856117f3565b509392505050565b600082601f8301126118595761185861172c565b5b8135611869848260208601611802565b91505092915050565b6000806040838503121561188957611888611432565b5b600083013567ffffffffffffffff8111156118a7576118a6611437565b5b6118b385828601611844565b92505060206118c48582860161145d565b9150509250929050565b60006118d982611683565b9050919050565b6118e9816118ce565b82525050565b600060208201905061190460008301846118e0565b92915050565b611913816114bf565b811461191e57600080fd5b50565b6000813590506119308161190a565b92915050565b600080fd5b600080fd5b60008083601f8401126119565761195561172c565b5b8235905067ffffffffffffffff81111561197357611972611936565b5b60208301915083600182028301111561198f5761198e61193b565b5b9250929050565b600080600080606085870312156119b0576119af611432565b5b60006119be87828801611921565b94505060206119cf8782880161145d565b935050604085013567ffffffffffffffff8111156119f0576119ef611437565b5b6119fc87828801611940565b925092505092959194509250565b60007fffffffff0000000000000000000000000000000000000000000000000000000082169050919050565b611a3f81611a0a565b82525050565b6000602082019050611a5a6000830184611a36565b92915050565b60008115159050919050565b611a7581611a60565b82525050565b6000602082019050611a906000830184611a6c565b92915050565b600082825260208201905092915050565b7f6e6f742073656c6c657200000000000000000000000000000000000000000000600082015250565b6000611add600a83611a96565b9150611ae882611aa7565b602082019050919050565b60006020820190508181036000830152611b0c81611ad0565b9050919050565b6000606082019050611b2860008301866114d1565b611b3560208301856114d1565b611b4260408301846114e0565b949350505050565b6000604082019050611b5f60008301856114d1565b611b6c60208301846114e0565b9392505050565b7f4e487b7100000000000000000000000000000000000000000000000000000000600052603260045260246000fd5b7f4e487b7100000000000000000000000000000000000000000000000000000000600052601160045260246000fd5b6000611bdc8261143c565b91507fffffffffffffffffffffffffffffffffffffffffffffffffffffffffffffffff8203611c0e57611c0d611ba2565b5b600182019050919050565b600081519050611c288161190a565b92915050565b600060208284031215611c4457611c43611432565b5b6000611c5284828501611c19565b91505092915050565b7f4e6f7420746865206f776e657200000000000000000000000000000000000000600082015250565b6000611c91600d83611a96565b9150611c9c82611c5b565b602082019050919050565b60006020820190508181036000830152611cc081611c84565b9050919050565b7f7072696365206d7573742062652067726561746572207468616e203000000000600082015250565b6000611cfd601c83611a96565b9150611d0882611cc7565b602082019050919050565b60006020820190508181036000830152611d2c81611cf0565b9050919050565b50565b6000611d43600083611a96565b9150611d4e82611d33565b600082019050919050565b600060a082019050611d6e60008301876114e0565b611d7b60208301866114d1565b611d8860408301856114d1565b8181036060830152611d9981611d36565b9050611da860808301846114e0565b95945050505050565b6000608082019050611dc660008301876114d1565b611dd360208301866114e0565b611de060408301856114e0565b611ded60608301846114e0565b95945050505050565b6000611e018261143c565b9150611e0c8361143c565b9250828201905080821115611e2457611e23611ba2565b5b92915050565b7f4d61726b65743a746f55696e743235365f6f766572666c6f7700000000000000600082015250565b6000611e60601983611a96565b9150611e6b82611e2a565b602082019050919050565b60006020820190508181036000830152611e8f81611e53565b9050919050565b7f4d61726b65743a20746f55696e743235365f6f75744f66426f756e6473000000600082015250565b6000611ecc601d83611a96565b9150611ed782611e96565b602082019050919050565b60006020820190508181036000830152611efb81611ebf565b9050919050565b611f0b81611a60565b8114611f1657600080fd5b50565b600081519050611f2881611f02565b92915050565b600060208284031215611f4457611f43611432565b5b6000611f5284828501611f19565b91505092915050565b7f7472616e73666572206e6f74207375636365737366756c000000000000000000600082015250565b6000611f91601783611a96565b9150611f9c82611f5b565b602082019050919050565b60006020820190508181036000830152611fc081611f84565b9050919050565b6000608082019050611fdc60008301876114d1565b611fe960208301866114d1565b611ff660408301856114e0565b61200360608301846114e0565b95945050505050565b60006120178261143c565b91506120228361143c565b925082820390508181111561203a57612039611ba2565b5b92915050565b7f4e487b7100000000000000000000000000000000000000000000000000000000600052603160045260246000fdfea264697066735822122099651583064fd7e876acca1e0f2d71f69f392677049651c513908fd4087ef18c64736f6c63430008180033",
  "linkReferences": {},
  "deployedLinkReferences": {}
}