{
  "_format": "hh-sol-artifact-1",
  "contractName": "Market",
  "sourceName": "src/backend/contracts/Market.sol",
  "abi": [
    {
      "inputs": [
        {
          "internalType": "address",
          "name": "_acceptedTokenAddress",
          "type": "address"
        }
      ],
      "stateMutability": "nonpayable",
      "type": "constructor"
    },
    {
      "anonymous": false,
      "inputs": [
        {
          "indexed": true,
          "internalType": "uint256",
          "name": "itemId",
          "type": "uint256"
        },
        {
          "indexed": true,
          "internalType": "uint256",
          "name": "tokenId",
          "type": "uint256"
        },
        {
          "indexed": false,
          "internalType": "address",
          "name": "seller",
          "type": "address"
        },
        {
          "indexed": false,
          "internalType": "address",
          "name": "owner",
          "type": "address"
        },
        {
          "indexed": false,
          "internalType": "uint256",
          "name": "price",
          "type": "uint256"
        }
      ],
      "name": "MarketItemCreated",
      "type": "event"
    },
    {
      "anonymous": false,
      "inputs": [
        {
          "indexed": true,
          "internalType": "uint256",
          "name": "itemId",
          "type": "uint256"
        },
        {
          "indexed": true,
          "internalType": "uint256",
          "name": "tokenId",
          "type": "uint256"
        },
        {
          "indexed": false,
          "internalType": "address",
          "name": "seller",
          "type": "address"
        },
        {
          "indexed": false,
          "internalType": "address",
          "name": "owner",
          "type": "address"
        },
        {
          "indexed": false,
          "internalType": "uint256",
          "name": "price",
          "type": "uint256"
        }
      ],
      "name": "MarketItemUpForSale",
      "type": "event"
    },
    {
      "anonymous": false,
      "inputs": [
        {
          "indexed": true,
          "internalType": "uint256",
          "name": "itemId",
          "type": "uint256"
        },
        {
          "indexed": true,
          "internalType": "uint256",
          "name": "tokenId",
          "type": "uint256"
        },
        {
          "indexed": false,
          "internalType": "address",
          "name": "seller",
          "type": "address"
        },
        {
          "indexed": false,
          "internalType": "address",
          "name": "owner",
          "type": "address"
        },
        {
          "indexed": false,
          "internalType": "uint256",
          "name": "price",
          "type": "uint256"
        }
      ],
      "name": "MarketItemUpNotForSale",
      "type": "event"
    },
    {
      "anonymous": false,
      "inputs": [
        {
          "indexed": true,
          "internalType": "address",
          "name": "previousOwner",
          "type": "address"
        },
        {
          "indexed": true,
          "internalType": "address",
          "name": "newOwner",
          "type": "address"
        }
      ],
      "name": "OwnershipTransferred",
      "type": "event"
    },
    {
      "inputs": [],
      "name": "acceptedTokenAddress",
      "outputs": [
        {
          "internalType": "address",
          "name": "",
          "type": "address"
        }
      ],
      "stateMutability": "view",
      "type": "function"
    },
    {
      "inputs": [
        {
          "internalType": "uint256",
          "name": "tokenId",
          "type": "uint256"
        },
        {
          "internalType": "uint256",
          "name": "price",
          "type": "uint256"
        },
        {
          "internalType": "address",
          "name": "nftContract",
          "type": "address"
        }
      ],
      "name": "addItemToMarket",
      "outputs": [],
      "stateMutability": "nonpayable",
      "type": "function"
    },
    {
      "inputs": [
        {
          "internalType": "uint256",
          "name": "itemId",
          "type": "uint256"
        }
      ],
      "name": "buyItem",
      "outputs": [],
      "stateMutability": "nonpayable",
      "type": "function"
    },
    {
      "inputs": [
        {
          "internalType": "uint256",
          "name": "itemId",
          "type": "uint256"
        },
        {
          "internalType": "bool",
          "name": "changePrice",
          "type": "bool"
        },
        {
          "internalType": "uint256",
          "name": "newPrice",
          "type": "uint256"
        }
      ],
      "name": "createSale",
      "outputs": [],
      "stateMutability": "nonpayable",
      "type": "function"
    },
    {
      "inputs": [],
      "name": "getAllMarketItems",
      "outputs": [
        {
          "components": [
            {
              "internalType": "uint256",
              "name": "itemId",
              "type": "uint256"
            },
            {
              "internalType": "uint256",
              "name": "tokenId",
              "type": "uint256"
            },
            {
              "internalType": "address",
              "name": "seller",
              "type": "address"
            },
            {
              "internalType": "address",
              "name": "owner",
              "type": "address"
            },
            {
              "internalType": "uint256",
              "name": "price",
              "type": "uint256"
            },
            {
              "internalType": "bool",
              "name": "isSold",
              "type": "bool"
            },
            {
              "internalType": "bool",
              "name": "isUpForSale",
              "type": "bool"
            },
            {
              "internalType": "bool",
              "name": "exists",
              "type": "bool"
            },
            {
              "internalType": "uint256",
              "name": "createdTimestamp",
              "type": "uint256"
            },
            {
              "internalType": "uint256",
              "name": "listingTimestamp",
              "type": "uint256"
            },
            {
              "internalType": "address",
              "name": "nftContract",
              "type": "address"
            }
          ],
          "internalType": "struct Market.MarketItem[]",
          "name": "",
          "type": "tuple[]"
        }
      ],
      "stateMutability": "view",
      "type": "function"
    },
    {
      "inputs": [
        {
          "internalType": "uint256",
          "name": "marketItemId",
          "type": "uint256"
        }
      ],
      "name": "getMarketItemById",
      "outputs": [
        {
          "components": [
            {
              "internalType": "uint256",
              "name": "itemId",
              "type": "uint256"
            },
            {
              "internalType": "uint256",
              "name": "tokenId",
              "type": "uint256"
            },
            {
              "internalType": "address",
              "name": "seller",
              "type": "address"
            },
            {
              "internalType": "address",
              "name": "owner",
              "type": "address"
            },
            {
              "internalType": "uint256",
              "name": "price",
              "type": "uint256"
            },
            {
              "internalType": "bool",
              "name": "isSold",
              "type": "bool"
            },
            {
              "internalType": "bool",
              "name": "isUpForSale",
              "type": "bool"
            },
            {
              "internalType": "bool",
              "name": "exists",
              "type": "bool"
            },
            {
              "internalType": "uint256",
              "name": "createdTimestamp",
              "type": "uint256"
            },
            {
              "internalType": "uint256",
              "name": "listingTimestamp",
              "type": "uint256"
            },
            {
              "internalType": "address",
              "name": "nftContract",
              "type": "address"
            }
          ],
          "internalType": "struct Market.MarketItem",
          "name": "",
          "type": "tuple"
        }
      ],
      "stateMutability": "view",
      "type": "function"
    },
    {
      "inputs": [
        {
          "internalType": "uint256",
          "name": "tokenId",
          "type": "uint256"
        },
        {
          "internalType": "address",
          "name": "nftContractAddress",
          "type": "address"
        }
      ],
      "name": "getMarketItemByTokenIdAndAddress",
      "outputs": [
        {
          "components": [
            {
              "internalType": "uint256",
              "name": "itemId",
              "type": "uint256"
            },
            {
              "internalType": "uint256",
              "name": "tokenId",
              "type": "uint256"
            },
            {
              "internalType": "address",
              "name": "seller",
              "type": "address"
            },
            {
              "internalType": "address",
              "name": "owner",
              "type": "address"
            },
            {
              "internalType": "uint256",
              "name": "price",
              "type": "uint256"
            },
            {
              "internalType": "bool",
              "name": "isSold",
              "type": "bool"
            },
            {
              "internalType": "bool",
              "name": "isUpForSale",
              "type": "bool"
            },
            {
              "internalType": "bool",
              "name": "exists",
              "type": "bool"
            },
            {
              "internalType": "uint256",
              "name": "createdTimestamp",
              "type": "uint256"
            },
            {
              "internalType": "uint256",
              "name": "listingTimestamp",
              "type": "uint256"
            },
            {
              "internalType": "address",
              "name": "nftContract",
              "type": "address"
            }
          ],
          "internalType": "struct Market.MarketItem",
          "name": "",
          "type": "tuple"
        }
      ],
      "stateMutability": "view",
      "type": "function"
    },
    {
      "inputs": [],
      "name": "getUnsoldItems",
      "outputs": [
        {
          "components": [
            {
              "internalType": "uint256",
              "name": "itemId",
              "type": "uint256"
            },
            {
              "internalType": "uint256",
              "name": "tokenId",
              "type": "uint256"
            },
            {
              "internalType": "address",
              "name": "seller",
              "type": "address"
            },
            {
              "internalType": "address",
              "name": "owner",
              "type": "address"
            },
            {
              "internalType": "uint256",
              "name": "price",
              "type": "uint256"
            },
            {
              "internalType": "bool",
              "name": "isSold",
              "type": "bool"
            },
            {
              "internalType": "bool",
              "name": "isUpForSale",
              "type": "bool"
            },
            {
              "internalType": "bool",
              "name": "exists",
              "type": "bool"
            },
            {
              "internalType": "uint256",
              "name": "createdTimestamp",
              "type": "uint256"
            },
            {
              "internalType": "uint256",
              "name": "listingTimestamp",
              "type": "uint256"
            },
            {
              "internalType": "address",
              "name": "nftContract",
              "type": "address"
            }
          ],
          "internalType": "struct Market.MarketItem[]",
          "name": "",
          "type": "tuple[]"
        }
      ],
      "stateMutability": "view",
      "type": "function"
    },
    {
      "inputs": [
        {
          "internalType": "uint256",
          "name": "",
          "type": "uint256"
        }
      ],
      "name": "idToMarketItem",
      "outputs": [
        {
          "internalType": "uint256",
          "name": "itemId",
          "type": "uint256"
        },
        {
          "internalType": "uint256",
          "name": "tokenId",
          "type": "uint256"
        },
        {
          "internalType": "address",
          "name": "seller",
          "type": "address"
        },
        {
          "internalType": "address",
          "name": "owner",
          "type": "address"
        },
        {
          "internalType": "uint256",
          "name": "price",
          "type": "uint256"
        },
        {
          "internalType": "bool",
          "name": "isSold",
          "type": "bool"
        },
        {
          "internalType": "bool",
          "name": "isUpForSale",
          "type": "bool"
        },
        {
          "internalType": "bool",
          "name": "exists",
          "type": "bool"
        },
        {
          "internalType": "uint256",
          "name": "createdTimestamp",
          "type": "uint256"
        },
        {
          "internalType": "uint256",
          "name": "listingTimestamp",
          "type": "uint256"
        },
        {
          "internalType": "address",
          "name": "nftContract",
          "type": "address"
        }
      ],
      "stateMutability": "view",
      "type": "function"
    },
    {
      "inputs": [],
      "name": "listingPrice",
      "outputs": [
        {
          "internalType": "uint256",
          "name": "",
          "type": "uint256"
        }
      ],
      "stateMutability": "view",
      "type": "function"
    },
    {
      "inputs": [
        {
          "internalType": "address",
          "name": "operator",
          "type": "address"
        },
        {
          "internalType": "address",
          "name": "from",
          "type": "address"
        },
        {
          "internalType": "uint256",
          "name": "tokenId",
          "type": "uint256"
        },
        {
          "internalType": "bytes",
          "name": "data",
          "type": "bytes"
        }
      ],
      "name": "onERC721Received",
      "outputs": [
        {
          "internalType": "bytes4",
          "name": "",
          "type": "bytes4"
        }
      ],
      "stateMutability": "nonpayable",
      "type": "function"
    },
    {
      "inputs": [],
      "name": "owner",
      "outputs": [
        {
          "internalType": "address",
          "name": "",
          "type": "address"
        }
      ],
      "stateMutability": "view",
      "type": "function"
    },
    {
      "inputs": [],
      "name": "renounceOwnership",
      "outputs": [],
      "stateMutability": "nonpayable",
      "type": "function"
    },
    {
      "inputs": [
        {
          "internalType": "address",
          "name": "newOwner",
          "type": "address"
        }
      ],
      "name": "transferOwnership",
      "outputs": [],
      "stateMutability": "nonpayable",
      "type": "function"
    },
    {
      "inputs": [
        {
          "internalType": "uint256",
          "name": "itemId",
          "type": "uint256"
        }
      ],
      "name": "unlistNFT",
      "outputs": [],
      "stateMutability": "nonpayable",
      "type": "function"
    }
  ],
  "bytecode": "0x608060405260016005553480156200001657600080fd5b5060405162002b4538038062002b4583398181016040528101906200003c91906200018e565b6200005c62000050620000ab60201b60201c565b620000b360201b60201c565b6001808190555080600460006101000a81548173ffffffffffffffffffffffffffffffffffffffff021916908373ffffffffffffffffffffffffffffffffffffffff1602179055505062000208565b600033905090565b60008060009054906101000a900473ffffffffffffffffffffffffffffffffffffffff169050816000806101000a81548173ffffffffffffffffffffffffffffffffffffffff021916908373ffffffffffffffffffffffffffffffffffffffff1602179055508173ffffffffffffffffffffffffffffffffffffffff168173ffffffffffffffffffffffffffffffffffffffff167f8be0079c531659141344cd1fd0a4f28419497f9722a3daafe3b4186f6b6457e060405160405180910390a35050565b6000815190506200018881620001ee565b92915050565b600060208284031215620001a157600080fd5b6000620001b18482850162000177565b91505092915050565b6000620001c782620001ce565b9050919050565b600073ffffffffffffffffffffffffffffffffffffffff82169050919050565b620001f981620001ba565b81146200020557600080fd5b50565b61292d80620002186000396000f3fe608060405234801561001057600080fd5b50600436106100f55760003560e01c8063961f094411610097578063e7fb74c711610066578063e7fb74c71461026a578063f16d376c14610286578063f2fde38b146102a4578063fadff920146102c0576100f5565b8063961f0944146101d85780639b8bc127146101f4578063c78f19f914610212578063e61a70c014610230576100f5565b806353dbceb1116100d357806353dbceb114610162578063715018a614610192578063889e2cd51461019c5780638da5cb5b146101ba576100f5565b8063150b7a02146100fa5780631b00a8db1461012a57806327cde1fb14610146575b600080fd5b610114600480360381019061010f9190611e5f565b6102f0565b60405161012191906123f3565b60405180910390f35b610144600480360381019061013f9190611f6d565b610305565b005b610160600480360381019061015b9190611fbc565b610600565b005b61017c60048036038101906101779190611f08565b610950565b60405161018991906124ce565b60405180910390f35b61019a610b03565b005b6101a4610b17565b6040516101b1919061237f565b60405180910390f35b6101c2610b3d565b6040516101cf919061237f565b60405180910390f35b6101f260048036038101906101ed9190611f08565b610b66565b005b6101fc610df3565b60405161020991906123d1565b60405180910390f35b61021a611111565b60405161022791906124ea565b60405180910390f35b61024a60048036038101906102459190611f08565b611117565b6040516102619b9a99989796959493929190612505565b60405180910390f35b610284600480360381019061027f9190611f08565b6111f8565b005b61028e6114f8565b60405161029b91906123d1565b60405180910390f35b6102be60048036038101906102b99190611e36565b6117be565b005b6102da60048036038101906102d59190611f31565b611842565b6040516102e791906124ce565b60405180910390f35b600063150b7a0260e01b905095945050505050565b61030d611b2f565b6000600760008581526020019081526020016000206040518061016001604052908160008201548152602001600182015481526020016002820160009054906101000a900473ffffffffffffffffffffffffffffffffffffffff1673ffffffffffffffffffffffffffffffffffffffff1673ffffffffffffffffffffffffffffffffffffffff1681526020016003820160009054906101000a900473ffffffffffffffffffffffffffffffffffffffff1673ffffffffffffffffffffffffffffffffffffffff1673ffffffffffffffffffffffffffffffffffffffff168152602001600482015481526020016005820160009054906101000a900460ff161515151581526020016005820160019054906101000a900460ff161515151581526020016005820160029054906101000a900460ff1615151515815260200160068201548152602001600782015481526020016008820160009054906101000a900473ffffffffffffffffffffffffffffffffffffffff1673ffffffffffffffffffffffffffffffffffffffff1673ffffffffffffffffffffffffffffffffffffffff16815250509050600115158160e00151151514610500576040517f08c379a00000000000000000000000000000000000000000000000000000000081526004016104f79061248e565b60405180910390fd5b60016007600086815260200190815260200160002060050160016101000a81548160ff02191690831515021790555042600760008681526020019081526020016000206007018190555060006007600086815260200190815260200160002060050160006101000a81548160ff021916908315150217905550821561059b578160076000868152602001908152602001600020600401819055505b8060200151847f0b59dfc56db79c6259bcd97a3fc890ab90008a8b5781d89dd763e01651bc7bc83330600760008a8152602001908152602001600020600401546040516105ea9392919061239a565b60405180910390a3506105fb611b7f565b505050565b610608611b2f565b60055482101561064d576040517f08c379a00000000000000000000000000000000000000000000000000000000081526004016106449061240e565b60405180910390fd5b6106576002611b88565b60006106636002611b9e565b90506040518061016001604052808281526020018581526020013373ffffffffffffffffffffffffffffffffffffffff1681526020013073ffffffffffffffffffffffffffffffffffffffff1681526020018481526020016000151581526020016000151581526020016001151581526020014281526020014281526020018373ffffffffffffffffffffffffffffffffffffffff1681525060076000838152602001908152602001600020600082015181600001556020820151816001015560408201518160020160006101000a81548173ffffffffffffffffffffffffffffffffffffffff021916908373ffffffffffffffffffffffffffffffffffffffff16021790555060608201518160030160006101000a81548173ffffffffffffffffffffffffffffffffffffffff021916908373ffffffffffffffffffffffffffffffffffffffff1602179055506080820151816004015560a08201518160050160006101000a81548160ff02191690831515021790555060c08201518160050160016101000a81548160ff02191690831515021790555060e08201518160050160026101000a81548160ff021916908315150217905550610100820151816006015561012082015181600701556101408201518160080160006101000a81548173ffffffffffffffffffffffffffffffffffffffff021916908373ffffffffffffffffffffffffffffffffffffffff1602179055509050508173ffffffffffffffffffffffffffffffffffffffff166342842e0e3330876040518463ffffffff1660e01b81526004016108b99392919061239a565b600060405180830381600087803b1580156108d357600080fd5b505af11580156108e7573d6000803e3d6000fd5b5050505082600660008282546108fd91906125fa565b9250508190555083817f38690a554ffbc44eb6a75016e47d517d0db8e6c37494adc68d6d0b2c66f0ab213360008760405161093a9392919061239a565b60405180910390a35061094b611b7f565b505050565b610958611cf6565b600760008381526020019081526020016000206040518061016001604052908160008201548152602001600182015481526020016002820160009054906101000a900473ffffffffffffffffffffffffffffffffffffffff1673ffffffffffffffffffffffffffffffffffffffff1673ffffffffffffffffffffffffffffffffffffffff1681526020016003820160009054906101000a900473ffffffffffffffffffffffffffffffffffffffff1673ffffffffffffffffffffffffffffffffffffffff1673ffffffffffffffffffffffffffffffffffffffff168152602001600482015481526020016005820160009054906101000a900460ff161515151581526020016005820160019054906101000a900460ff161515151581526020016005820160029054906101000a900460ff1615151515815260200160068201548152602001600782015481526020016008820160009054906101000a900473ffffffffffffffffffffffffffffffffffffffff1673ffffffffffffffffffffffffffffffffffffffff1673ffffffffffffffffffffffffffffffffffffffff16815250509050919050565b610b0b611bac565b610b156000611c2a565b565b600460009054906101000a900473ffffffffffffffffffffffffffffffffffffffff1681565b60008060009054906101000a900473ffffffffffffffffffffffffffffffffffffffff16905090565b610b6e611b2f565b6000600760008381526020019081526020016000206040518061016001604052908160008201548152602001600182015481526020016002820160009054906101000a900473ffffffffffffffffffffffffffffffffffffffff1673ffffffffffffffffffffffffffffffffffffffff1673ffffffffffffffffffffffffffffffffffffffff1681526020016003820160009054906101000a900473ffffffffffffffffffffffffffffffffffffffff1673ffffffffffffffffffffffffffffffffffffffff1673ffffffffffffffffffffffffffffffffffffffff168152602001600482015481526020016005820160009054906101000a900460ff161515151581526020016005820160019054906101000a900460ff161515151581526020016005820160029054906101000a900460ff1615151515815260200160068201548152602001600782015481526020016008820160009054906101000a900473ffffffffffffffffffffffffffffffffffffffff1673ffffffffffffffffffffffffffffffffffffffff1673ffffffffffffffffffffffffffffffffffffffff16815250509050600115158160e00151151514610d61576040517f08c379a0000000000000000000000000000000000000000000000000000000008152600401610d589061248e565b60405180910390fd5b60006007600084815260200190815260200160002060050160016101000a81548160ff0219169083151502179055508060200151827ff2e9080a1a9d5380dfbc3a166de3fdbde0dc2550e7fc238b793ec0b19792047533306007600088815260200190815260200160002060040154604051610ddf9392919061239a565b60405180910390a350610df0611b7f565b50565b60606000610e016002611b9e565b90506000610e0f6003611b9e565b610e196002611b9e565b610e239190612650565b90506000808267ffffffffffffffff811115610e68577f4e487b7100000000000000000000000000000000000000000000000000000000600052604160045260246000fd5b604051908082528060200260200182016040528015610ea157816020015b610e8e611cf6565b815260200190600190039081610e865790505b50905060005b848110156111065760076000600183610ec091906125fa565b815260200190815260200160002060050160009054906101000a900460ff166110f3576000600182610ef291906125fa565b90506000600760008381526020019081526020016000206040518061016001604052908160008201548152602001600182015481526020016002820160009054906101000a900473ffffffffffffffffffffffffffffffffffffffff1673ffffffffffffffffffffffffffffffffffffffff1673ffffffffffffffffffffffffffffffffffffffff1681526020016003820160009054906101000a900473ffffffffffffffffffffffffffffffffffffffff1673ffffffffffffffffffffffffffffffffffffffff1673ffffffffffffffffffffffffffffffffffffffff168152602001600482015481526020016005820160009054906101000a900460ff161515151581526020016005820160019054906101000a900460ff161515151581526020016005820160029054906101000a900460ff1615151515815260200160068201548152602001600782015481526020016008820160009054906101000a900473ffffffffffffffffffffffffffffffffffffffff1673ffffffffffffffffffffffffffffffffffffffff1673ffffffffffffffffffffffffffffffffffffffff16815250509050808486815181106110d6577f4e487b7100000000000000000000000000000000000000000000000000000000600052603260045260246000fd5b60200260200101819052506001856110ee91906125fa565b945050505b80806110fe906126f8565b915050610ea7565b508094505050505090565b60055481565b60076020528060005260406000206000915090508060000154908060010154908060020160009054906101000a900473ffffffffffffffffffffffffffffffffffffffff16908060030160009054906101000a900473ffffffffffffffffffffffffffffffffffffffff16908060040154908060050160009054906101000a900460ff16908060050160019054906101000a900460ff16908060050160029054906101000a900460ff16908060060154908060070154908060080160009054906101000a900473ffffffffffffffffffffffffffffffffffffffff1690508b565b611200611b2f565b600060076000838152602001908152602001600020905060008160040154905060008260010154905060008360050160019054906101000a900460ff1690506001151581151514611286576040517f08c379a000000000000000000000000000000000000000000000000000000000815260040161127d9061244e565b60405180910390fd5b60008460030160009054906101000a900473ffffffffffffffffffffffffffffffffffffffff16905060008560020160009054906101000a900473ffffffffffffffffffffffffffffffffffffffff169050338660030160006101000a81548173ffffffffffffffffffffffffffffffffffffffff021916908373ffffffffffffffffffffffffffffffffffffffff160217905550338660020160006101000a81548173ffffffffffffffffffffffffffffffffffffffff021916908373ffffffffffffffffffffffffffffffffffffffff16021790555060018660050160006101000a81548160ff02191690831515021790555060008660050160016101000a81548160ff0219169083151502179055508560080160009054906101000a900473ffffffffffffffffffffffffffffffffffffffff1673ffffffffffffffffffffffffffffffffffffffff166342842e0e8333876040518463ffffffff1660e01b81526004016113f99392919061239a565b600060405180830381600087803b15801561141357600080fd5b505af1158015611427573d6000803e3d6000fd5b50505050600460009054906101000a900473ffffffffffffffffffffffffffffffffffffffff1673ffffffffffffffffffffffffffffffffffffffff166323b872dd3383886040518463ffffffff1660e01b815260040161148a9392919061239a565b602060405180830381600087803b1580156114a457600080fd5b505af11580156114b8573d6000803e3d6000fd5b505050506040513d601f19601f820116820180604052508101906114dc9190611edf565b506114e76003611b88565b5050505050506114f5611b7f565b50565b606060006115066002611b9e565b905060008167ffffffffffffffff81111561154a577f4e487b7100000000000000000000000000000000000000000000000000000000600052604160045260246000fd5b60405190808252806020026020018201604052801561158357816020015b611570611cf6565b8152602001906001900390816115685790505b5090506000805b838110156117b45760006001826115a191906125fa565b90506000600760008381526020019081526020016000206040518061016001604052908160008201548152602001600182015481526020016002820160009054906101000a900473ffffffffffffffffffffffffffffffffffffffff1673ffffffffffffffffffffffffffffffffffffffff1673ffffffffffffffffffffffffffffffffffffffff1681526020016003820160009054906101000a900473ffffffffffffffffffffffffffffffffffffffff1673ffffffffffffffffffffffffffffffffffffffff1673ffffffffffffffffffffffffffffffffffffffff168152602001600482015481526020016005820160009054906101000a900460ff161515151581526020016005820160019054906101000a900460ff161515151581526020016005820160029054906101000a900460ff1615151515815260200160068201548152602001600782015481526020016008820160009054906101000a900473ffffffffffffffffffffffffffffffffffffffff1673ffffffffffffffffffffffffffffffffffffffff1673ffffffffffffffffffffffffffffffffffffffff1681525050905080858581518110611785577f4e487b7100000000000000000000000000000000000000000000000000000000600052603260045260246000fd5b602002602001018190525060018461179d91906125fa565b9350505080806117ac906126f8565b91505061158a565b5081935050505090565b6117c6611bac565b600073ffffffffffffffffffffffffffffffffffffffff168173ffffffffffffffffffffffffffffffffffffffff161415611836576040517f08c379a000000000000000000000000000000000000000000000000000000000815260040161182d9061242e565b60405180910390fd5b61183f81611c2a565b50565b61184a611cf6565b60006118566002611b9e565b905060005b81811015611a8557600060018261187291906125fa565b90506000600760008381526020019081526020016000206040518061016001604052908160008201548152602001600182015481526020016002820160009054906101000a900473ffffffffffffffffffffffffffffffffffffffff1673ffffffffffffffffffffffffffffffffffffffff1673ffffffffffffffffffffffffffffffffffffffff1681526020016003820160009054906101000a900473ffffffffffffffffffffffffffffffffffffffff1673ffffffffffffffffffffffffffffffffffffffff1673ffffffffffffffffffffffffffffffffffffffff168152602001600482015481526020016005820160009054906101000a900460ff161515151581526020016005820160019054906101000a900460ff161515151581526020016005820160029054906101000a900460ff1615151515815260200160068201548152602001600782015481526020016008820160009054906101000a900473ffffffffffffffffffffffffffffffffffffffff1673ffffffffffffffffffffffffffffffffffffffff1673ffffffffffffffffffffffffffffffffffffffff16815250509050868160200151148015611a5f57508573ffffffffffffffffffffffffffffffffffffffff1681610140015173ffffffffffffffffffffffffffffffffffffffff16145b15611a705780945050505050611b29565b50508080611a7d906126f8565b91505061185b565b506040518061016001604052806000815260200160008152602001600073ffffffffffffffffffffffffffffffffffffffff168152602001600073ffffffffffffffffffffffffffffffffffffffff168152602001600081526020016000151581526020016000151581526020016000151581526020016000815260200160008152602001600073ffffffffffffffffffffffffffffffffffffffff168152509150505b92915050565b60026001541415611b75576040517f08c379a0000000000000000000000000000000000000000000000000000000008152600401611b6c906124ae565b60405180910390fd5b6002600181905550565b60018081905550565b6001816000016000828254019250508190555050565b600081600001549050919050565b611bb4611cee565b73ffffffffffffffffffffffffffffffffffffffff16611bd2610b3d565b73ffffffffffffffffffffffffffffffffffffffff1614611c28576040517f08c379a0000000000000000000000000000000000000000000000000000000008152600401611c1f9061246e565b60405180910390fd5b565b60008060009054906101000a900473ffffffffffffffffffffffffffffffffffffffff169050816000806101000a81548173ffffffffffffffffffffffffffffffffffffffff021916908373ffffffffffffffffffffffffffffffffffffffff1602179055508173ffffffffffffffffffffffffffffffffffffffff168173ffffffffffffffffffffffffffffffffffffffff167f8be0079c531659141344cd1fd0a4f28419497f9722a3daafe3b4186f6b6457e060405160405180910390a35050565b600033905090565b6040518061016001604052806000815260200160008152602001600073ffffffffffffffffffffffffffffffffffffffff168152602001600073ffffffffffffffffffffffffffffffffffffffff168152602001600081526020016000151581526020016000151581526020016000151581526020016000815260200160008152602001600073ffffffffffffffffffffffffffffffffffffffff1681525090565b600081359050611da7816128b2565b92915050565b600081359050611dbc816128c9565b92915050565b600081519050611dd1816128c9565b92915050565b60008083601f840112611de957600080fd5b8235905067ffffffffffffffff811115611e0257600080fd5b602083019150836001820283011115611e1a57600080fd5b9250929050565b600081359050611e30816128e0565b92915050565b600060208284031215611e4857600080fd5b6000611e5684828501611d98565b91505092915050565b600080600080600060808688031215611e7757600080fd5b6000611e8588828901611d98565b9550506020611e9688828901611d98565b9450506040611ea788828901611e21565b935050606086013567ffffffffffffffff811115611ec457600080fd5b611ed088828901611dd7565b92509250509295509295909350565b600060208284031215611ef157600080fd5b6000611eff84828501611dc2565b91505092915050565b600060208284031215611f1a57600080fd5b6000611f2884828501611e21565b91505092915050565b60008060408385031215611f4457600080fd5b6000611f5285828601611e21565b9250506020611f6385828601611d98565b9150509250929050565b600080600060608486031215611f8257600080fd5b6000611f9086828701611e21565b9350506020611fa186828701611dad565b9250506040611fb286828701611e21565b9150509250925092565b600080600060608486031215611fd157600080fd5b6000611fdf86828701611e21565b9350506020611ff086828701611e21565b925050604061200186828701611d98565b9150509250925092565b6000612017838361219f565b6101608301905092915050565b61202d81612684565b82525050565b61203c81612684565b82525050565b600061204d826125c0565b61205781856125d8565b9350612062836125b0565b8060005b8381101561209357815161207a888261200b565b9750612085836125cb565b925050600181019050612066565b5085935050505092915050565b6120a981612696565b82525050565b6120b881612696565b82525050565b6120c7816126a2565b82525050565b60006120da602e836125e9565b91506120e582612770565b604082019050919050565b60006120fd6026836125e9565b9150612108826127bf565b604082019050919050565b60006121206011836125e9565b915061212b8261280e565b602082019050919050565b60006121436020836125e9565b915061214e82612837565b602082019050919050565b60006121666014836125e9565b915061217182612860565b602082019050919050565b6000612189601f836125e9565b915061219482612889565b602082019050919050565b610160820160008201516121b66000850182612361565b5060208201516121c96020850182612361565b5060408201516121dc6040850182612024565b5060608201516121ef6060850182612024565b5060808201516122026080850182612361565b5060a082015161221560a08501826120a0565b5060c082015161222860c08501826120a0565b5060e082015161223b60e08501826120a0565b50610100820151612250610100850182612361565b50610120820151612265610120850182612361565b5061014082015161227a610140850182612024565b50505050565b610160820160008201516122976000850182612361565b5060208201516122aa6020850182612361565b5060408201516122bd6040850182612024565b5060608201516122d06060850182612024565b5060808201516122e36080850182612361565b5060a08201516122f660a08501826120a0565b5060c082015161230960c08501826120a0565b5060e082015161231c60e08501826120a0565b50610100820151612331610100850182612361565b50610120820151612346610120850182612361565b5061014082015161235b610140850182612024565b50505050565b61236a816126ee565b82525050565b612379816126ee565b82525050565b60006020820190506123946000830184612033565b92915050565b60006060820190506123af6000830186612033565b6123bc6020830185612033565b6123c96040830184612370565b949350505050565b600060208201905081810360008301526123eb8184612042565b905092915050565b600060208201905061240860008301846120be565b92915050565b60006020820190508181036000830152612427816120cd565b9050919050565b60006020820190508181036000830152612447816120f0565b9050919050565b6000602082019050818103600083015261246781612113565b9050919050565b6000602082019050818103600083015261248781612136565b9050919050565b600060208201905081810360008301526124a781612159565b9050919050565b600060208201905081810360008301526124c78161217c565b9050919050565b6000610160820190506124e46000830184612280565b92915050565b60006020820190506124ff6000830184612370565b92915050565b60006101608201905061251b600083018e612370565b612528602083018d612370565b612535604083018c612033565b612542606083018b612033565b61254f608083018a612370565b61255c60a08301896120af565b61256960c08301886120af565b61257660e08301876120af565b612584610100830186612370565b612592610120830185612370565b6125a0610140830184612033565b9c9b505050505050505050505050565b6000819050602082019050919050565b600081519050919050565b6000602082019050919050565b600082825260208201905092915050565b600082825260208201905092915050565b6000612605826126ee565b9150612610836126ee565b9250827fffffffffffffffffffffffffffffffffffffffffffffffffffffffffffffffff0382111561264557612644612741565b5b828201905092915050565b600061265b826126ee565b9150612666836126ee565b92508282101561267957612678612741565b5b828203905092915050565b600061268f826126ce565b9050919050565b60008115159050919050565b60007fffffffff0000000000000000000000000000000000000000000000000000000082169050919050565b600073ffffffffffffffffffffffffffffffffffffffff82169050919050565b6000819050919050565b6000612703826126ee565b91507fffffffffffffffffffffffffffffffffffffffffffffffffffffffffffffffff82141561273657612735612741565b5b600182019050919050565b7f4e487b7100000000000000000000000000000000000000000000000000000000600052601160045260246000fd5b7f50726963652073686f756c64206265206174206c656173742073616d6520617360008201527f206c697374696e67207072696365000000000000000000000000000000000000602082015250565b7f4f776e61626c653a206e6577206f776e657220697320746865207a65726f206160008201527f6464726573730000000000000000000000000000000000000000000000000000602082015250565b7f4e4654206e6f7420666f722073616c652e000000000000000000000000000000600082015250565b7f4f776e61626c653a2063616c6c6572206973206e6f7420746865206f776e6572600082015250565b7f4974656d20646f6573206e6f742065786973742e000000000000000000000000600082015250565b7f5265656e7472616e637947756172643a207265656e7472616e742063616c6c00600082015250565b6128bb81612684565b81146128c657600080fd5b50565b6128d281612696565b81146128dd57600080fd5b50565b6128e9816126ee565b81146128f457600080fd5b5056fea26469706673582212209ec76b7f50ba6f7bd4f4e2957a1f3d1819e511fbead11017b86e7db3e05ca3f664736f6c63430008040033",
  "linkReferences": {},
  "deployedLinkReferences": {}
}