{
  "_format": "hh-sol-artifact-1",
  "contractName": "Market",
  "sourceName": "src/backend/contracts/Market.sol",
  "abi": [
    {
      "inputs": [
        {
          "internalType": "address",
          "name": "_erc20",
          "type": "address"
        },
        {
          "internalType": "address",
          "name": "_erc721",
          "type": "address"
        }
      ],
      "stateMutability": "nonpayable",
      "type": "constructor"
    },
    {
      "anonymous": false,
      "inputs": [
        {
          "indexed": false,
          "internalType": "address",
          "name": "seller",
          "type": "address"
        },
        {
          "indexed": false,
          "internalType": "address",
          "name": "buyer",
          "type": "address"
        },
        {
          "indexed": false,
          "internalType": "uint256",
          "name": "tokenId",
          "type": "uint256"
        },
        {
          "indexed": false,
          "internalType": "uint256",
          "name": "price",
          "type": "uint256"
        }
      ],
      "name": "Deal",
      "type": "event"
    },
    {
      "anonymous": false,
      "inputs": [
        {
          "indexed": false,
          "internalType": "address",
          "name": "seller",
          "type": "address"
        },
        {
          "indexed": false,
          "internalType": "uint256",
          "name": "tokenId",
          "type": "uint256"
        },
        {
          "indexed": false,
          "internalType": "uint256",
          "name": "price",
          "type": "uint256"
        }
      ],
      "name": "NewOrder",
      "type": "event"
    },
    {
      "anonymous": false,
      "inputs": [
        {
          "indexed": false,
          "internalType": "address",
          "name": "seller",
          "type": "address"
        },
        {
          "indexed": false,
          "internalType": "uint256",
          "name": "tokenId",
          "type": "uint256"
        }
      ],
      "name": "OrderCancelled",
      "type": "event"
    },
    {
      "anonymous": false,
      "inputs": [
        {
          "indexed": false,
          "internalType": "address",
          "name": "seller",
          "type": "address"
        },
        {
          "indexed": false,
          "internalType": "uint256",
          "name": "tokenId",
          "type": "uint256"
        },
        {
          "indexed": false,
          "internalType": "uint256",
          "name": "privousPrice",
          "type": "uint256"
        },
        {
          "indexed": false,
          "internalType": "uint256",
          "name": "price",
          "type": "uint256"
        }
      ],
      "name": "PriceChanged",
      "type": "event"
    },
    {
      "inputs": [
        {
          "internalType": "uint256",
          "name": "_tokenId",
          "type": "uint256"
        }
      ],
      "name": "buy",
      "outputs": [],
      "stateMutability": "nonpayable",
      "type": "function"
    },
    {
      "inputs": [
        {
          "internalType": "uint256",
          "name": "_tokenId",
          "type": "uint256"
        }
      ],
      "name": "cancelOrder",
      "outputs": [],
      "stateMutability": "nonpayable",
      "type": "function"
    },
    {
      "inputs": [
        {
          "internalType": "uint256",
          "name": "_tokenId",
          "type": "uint256"
        },
        {
          "internalType": "uint256",
          "name": "_price",
          "type": "uint256"
        }
      ],
      "name": "changePrice",
      "outputs": [],
      "stateMutability": "nonpayable",
      "type": "function"
    },
    {
      "inputs": [],
      "name": "erc20",
      "outputs": [
        {
          "internalType": "contract IERC20",
          "name": "",
          "type": "address"
        }
      ],
      "stateMutability": "view",
      "type": "function"
    },
    {
      "inputs": [],
      "name": "erc721",
      "outputs": [
        {
          "internalType": "contract IERC721",
          "name": "",
          "type": "address"
        }
      ],
      "stateMutability": "view",
      "type": "function"
    },
    {
      "inputs": [],
      "name": "getAllNFTs",
      "outputs": [
        {
          "components": [
            {
              "internalType": "address",
              "name": "seller",
              "type": "address"
            },
            {
              "internalType": "uint256",
              "name": "tokenId",
              "type": "uint256"
            },
            {
              "internalType": "uint256",
              "name": "price",
              "type": "uint256"
            }
          ],
          "internalType": "struct Market.Order[]",
          "name": "",
          "type": "tuple[]"
        }
      ],
      "stateMutability": "view",
      "type": "function"
    },
    {
      "inputs": [],
      "name": "getMyNFTs",
      "outputs": [
        {
          "components": [
            {
              "internalType": "address",
              "name": "seller",
              "type": "address"
            },
            {
              "internalType": "uint256",
              "name": "tokenId",
              "type": "uint256"
            },
            {
              "internalType": "uint256",
              "name": "price",
              "type": "uint256"
            }
          ],
          "internalType": "struct Market.Order[]",
          "name": "",
          "type": "tuple[]"
        }
      ],
      "stateMutability": "view",
      "type": "function"
    },
    {
      "inputs": [],
      "name": "getOrderLength",
      "outputs": [
        {
          "internalType": "uint256",
          "name": "",
          "type": "uint256"
        }
      ],
      "stateMutability": "view",
      "type": "function"
    },
    {
      "inputs": [
        {
          "internalType": "uint256",
          "name": "",
          "type": "uint256"
        }
      ],
      "name": "idToOrderIndex",
      "outputs": [
        {
          "internalType": "uint256",
          "name": "",
          "type": "uint256"
        }
      ],
      "stateMutability": "view",
      "type": "function"
    },
    {
      "inputs": [
        {
          "internalType": "uint256",
          "name": "_tokenId",
          "type": "uint256"
        }
      ],
      "name": "isListed",
      "outputs": [
        {
          "internalType": "bool",
          "name": "",
          "type": "bool"
        }
      ],
      "stateMutability": "view",
      "type": "function"
    },
    {
      "inputs": [
        {
          "internalType": "address",
          "name": "from",
          "type": "address"
        },
        {
          "internalType": "uint256",
          "name": "tokenId",
          "type": "uint256"
        },
        {
          "internalType": "bytes",
          "name": "data",
          "type": "bytes"
        }
      ],
      "name": "onERC721Received",
      "outputs": [
        {
          "internalType": "bytes4",
          "name": "",
          "type": "bytes4"
        }
      ],
      "stateMutability": "nonpayable",
      "type": "function"
    },
    {
      "inputs": [
        {
          "internalType": "uint256",
          "name": "",
          "type": "uint256"
        }
      ],
      "name": "orderOfId",
      "outputs": [
        {
          "internalType": "address",
          "name": "seller",
          "type": "address"
        },
        {
          "internalType": "uint256",
          "name": "tokenId",
          "type": "uint256"
        },
        {
          "internalType": "uint256",
          "name": "price",
          "type": "uint256"
        }
      ],
      "stateMutability": "view",
      "type": "function"
    },
    {
      "inputs": [
        {
          "internalType": "uint256",
          "name": "",
          "type": "uint256"
        }
      ],
      "name": "orders",
      "outputs": [
        {
          "internalType": "address",
          "name": "seller",
          "type": "address"
        },
        {
          "internalType": "uint256",
          "name": "tokenId",
          "type": "uint256"
        },
        {
          "internalType": "uint256",
          "name": "price",
          "type": "uint256"
        }
      ],
      "stateMutability": "view",
      "type": "function"
    },
    {
      "inputs": [
        {
          "internalType": "bytes",
          "name": "_bytes",
          "type": "bytes"
        },
        {
          "internalType": "uint256",
          "name": "_start",
          "type": "uint256"
        }
      ],
      "name": "toUint256",
      "outputs": [
        {
          "internalType": "uint256",
          "name": "",
          "type": "uint256"
        }
      ],
      "stateMutability": "pure",
      "type": "function"
    }
  ],
  "bytecode": "0x60806040523480156200001157600080fd5b5060405162001f7a38038062001f7a83398181016040528101906200003791906200020e565b600073ffffffffffffffffffffffffffffffffffffffff168273ffffffffffffffffffffffffffffffffffffffff1603620000a9576040517f08c379a0000000000000000000000000000000000000000000000000000000008152600401620000a090620002b6565b60405180910390fd5b600073ffffffffffffffffffffffffffffffffffffffff168173ffffffffffffffffffffffffffffffffffffffff16036200011b576040517f08c379a00000000000000000000000000000000000000000000000000000000081526004016200011290620002b6565b60405180910390fd5b816000806101000a81548173ffffffffffffffffffffffffffffffffffffffff021916908373ffffffffffffffffffffffffffffffffffffffff16021790555080600160006101000a81548173ffffffffffffffffffffffffffffffffffffffff021916908373ffffffffffffffffffffffffffffffffffffffff1602179055505050620002d8565b600080fd5b600073ffffffffffffffffffffffffffffffffffffffff82169050919050565b6000620001d682620001a9565b9050919050565b620001e881620001c9565b8114620001f457600080fd5b50565b6000815190506200020881620001dd565b92915050565b60008060408385031215620002285762000227620001a4565b5b60006200023885828601620001f7565b92505060206200024b85828601620001f7565b9150509250929050565b600082825260208201905092915050565b7f7a65726f20616464726573730000000000000000000000000000000000000000600082015250565b60006200029e600c8362000255565b9150620002ab8262000266565b602082019050919050565b60006020820190508181036000830152620002d1816200028f565b9050919050565b611c9280620002e86000396000f3fe608060405234801561001057600080fd5b50600436106100ea5760003560e01c8063b5cdf9241161008c578063da694df011610066578063da694df01461024f578063e0391b091461027f578063f0b9e5ba1461029d578063fcce4883146102cd576100ea565b8063b5cdf924146101e5578063bca6ce6414610215578063d96a094a14610233576100ea565b8063785e9e86116100c8578063785e9e861461015b5780639d4971b714610179578063a85c38ef14610197578063b3de019c146101c9576100ea565b8063394a9077146100ef578063514fcac714610121578063629cb2e41461013d575b600080fd5b6101096004803603810190610104919061118b565b6102fd565b60405161011893929190611208565b60405180910390f35b61013b6004803603810190610136919061118b565b610347565b005b6101456104c7565b604051610152919061134e565b60405180910390f35b610163610689565b60405161017091906113cf565b60405180910390f35b6101816106ad565b60405161018e91906113ea565b60405180910390f35b6101b160048036038101906101ac919061118b565b6106ba565b6040516101c093929190611208565b60405180910390f35b6101e360048036038101906101de9190611405565b610714565b005b6101ff60048036038101906101fa919061158b565b610879565b60405161020c91906113ea565b60405180910390f35b61021d61092f565b60405161022a9190611608565b60405180910390f35b61024d6004803603810190610248919061118b565b610955565b005b6102696004803603810190610264919061118b565b610b6c565b60405161027691906113ea565b60405180910390f35b610287610b84565b604051610294919061134e565b60405180910390f35b6102b760048036038101906102b291906116af565b610c4d565b6040516102c4919061175e565b60405180910390f35b6102e760048036038101906102e2919061118b565b610eb6565b6040516102f49190611794565b60405180910390f35b60026020528060005260406000206000915090508060000160009054906101000a900473ffffffffffffffffffffffffffffffffffffffff16908060010154908060020154905083565b60006002600083815260200190815260200160002060000160009054906101000a900473ffffffffffffffffffffffffffffffffffffffff1690508073ffffffffffffffffffffffffffffffffffffffff163373ffffffffffffffffffffffffffffffffffffffff16146103f0576040517f08c379a00000000000000000000000000000000000000000000000000000000081526004016103e79061180c565b60405180910390fd5b600160009054906101000a900473ffffffffffffffffffffffffffffffffffffffff1673ffffffffffffffffffffffffffffffffffffffff166342842e0e3083856040518463ffffffff1660e01b815260040161044f9392919061182c565b600060405180830381600087803b15801561046957600080fd5b505af115801561047d573d6000803e3d6000fd5b5050505061048a82610f25565b7fdd003742fb214507783ce004fe55f5ac14f89c6de4a7cd7487e47eb091c6226581836040516104bb929190611863565b60405180910390a15050565b6060600060038054905067ffffffffffffffff8111156104ea576104e9611460565b5b60405190808252806020026020018201604052801561052357816020015b61051061110a565b8152602001906001900390816105085790505b5090506000805b600380549050811015610680573373ffffffffffffffffffffffffffffffffffffffff16600382815481106105625761056161188c565b5b906000526020600020906003020160000160009054906101000a900473ffffffffffffffffffffffffffffffffffffffff1673ffffffffffffffffffffffffffffffffffffffff160361067357600381815481106105c3576105c261188c565b5b90600052602060002090600302016040518060600160405290816000820160009054906101000a900473ffffffffffffffffffffffffffffffffffffffff1673ffffffffffffffffffffffffffffffffffffffff1673ffffffffffffffffffffffffffffffffffffffff168152602001600182015481526020016002820154815250508383815181106106595761065861188c565b5b6020026020010181905250818061066f906118ea565b9250505b808060010191505061052a565b50819250505090565b60008054906101000a900473ffffffffffffffffffffffffffffffffffffffff1681565b6000600380549050905090565b600381815481106106ca57600080fd5b90600052602060002090600302016000915090508060000160009054906101000a900473ffffffffffffffffffffffffffffffffffffffff16908060010154908060020154905083565b60006002600084815260200190815260200160002060000160009054906101000a900473ffffffffffffffffffffffffffffffffffffffff1690508073ffffffffffffffffffffffffffffffffffffffff163373ffffffffffffffffffffffffffffffffffffffff16146107bd576040517f08c379a00000000000000000000000000000000000000000000000000000000081526004016107b49061180c565b60405180910390fd5b6000600260008581526020019081526020016000206002015490508260026000868152602001908152602001600020600201819055506000600360046000878152602001908152602001600020548154811061081c5761081b61188c565b5b906000526020600020906003020190508381600201819055507fdac6aecd066304d15a41e8e590fc5ab5bf93634f43cba363f743d5e158d799888386848760405161086a9493929190611932565b60405180910390a15050505050565b6000816020836108899190611977565b10156108ca576040517f08c379a00000000000000000000000000000000000000000000000000000000081526004016108c1906119f7565b60405180910390fd5b6020826108d79190611977565b8351101561091a576040517f08c379a000000000000000000000000000000000000000000000000000000000815260040161091190611a63565b60405180910390fd5b60008260208501015190508091505092915050565b600160009054906101000a900473ffffffffffffffffffffffffffffffffffffffff1681565b60006002600083815260200190815260200160002060000160009054906101000a900473ffffffffffffffffffffffffffffffffffffffff169050600033905060006002600085815260200190815260200160002060020154905060008054906101000a900473ffffffffffffffffffffffffffffffffffffffff1673ffffffffffffffffffffffffffffffffffffffff166323b872dd8385846040518463ffffffff1660e01b8152600401610a0d9392919061182c565b6020604051808303816000875af1158015610a2c573d6000803e3d6000fd5b505050506040513d601f19601f82011682018060405250810190610a509190611aaf565b610a8f576040517f08c379a0000000000000000000000000000000000000000000000000000000008152600401610a8690611b28565b60405180910390fd5b600160009054906101000a900473ffffffffffffffffffffffffffffffffffffffff1673ffffffffffffffffffffffffffffffffffffffff166342842e0e3084876040518463ffffffff1660e01b8152600401610aee9392919061182c565b600060405180830381600087803b158015610b0857600080fd5b505af1158015610b1c573d6000803e3d6000fd5b50505050610b2984610f25565b7f424d5e5f0192c7dacdbe646ca31b00299146d883d76a95ef5cddbac7cd342eab83838684604051610b5e9493929190611b48565b60405180910390a150505050565b60046020528060005260406000206000915090505481565b60606003805480602002602001604051908101604052809291908181526020016000905b82821015610c4457838290600052602060002090600302016040518060600160405290816000820160009054906101000a900473ffffffffffffffffffffffffffffffffffffffff1673ffffffffffffffffffffffffffffffffffffffff1673ffffffffffffffffffffffffffffffffffffffff1681526020016001820154815260200160028201548152505081526020019060010190610ba8565b50505050905090565b600080610c9f84848080601f016020809104026020016040519081016040528093929190818152602001838380828437600081840152601f19601f820116905080830192505050505050506000610879565b905060008111610ce4576040517f08c379a0000000000000000000000000000000000000000000000000000000008152600401610cdb90611bd9565b60405180910390fd5b60405180606001604052808773ffffffffffffffffffffffffffffffffffffffff168152602001868152602001828152506002600087815260200190815260200160002060008201518160000160006101000a81548173ffffffffffffffffffffffffffffffffffffffff021916908373ffffffffffffffffffffffffffffffffffffffff1602179055506020820151816001015560408201518160020155905050600360405180606001604052808873ffffffffffffffffffffffffffffffffffffffff16815260200187815260200183815250908060018154018082558091505060019003906000526020600020906003020160009091909190915060008201518160000160006101000a81548173ffffffffffffffffffffffffffffffffffffffff021916908373ffffffffffffffffffffffffffffffffffffffff160217905550602082015181600101556040820151816002015550506001600380549050610e519190611bf9565b60046000878152602001908152602001600020819055507fd5b509e657d5ec37ae4bdcab658b7340c0453bb630516d26623359a34c1cecf3868683604051610e9b93929190611208565b60405180910390a163150b7a0260e01b915050949350505050565b60008073ffffffffffffffffffffffffffffffffffffffff166002600084815260200190815260200160002060000160009054906101000a900473ffffffffffffffffffffffffffffffffffffffff1673ffffffffffffffffffffffffffffffffffffffff1614159050919050565b60006004600083815260200190815260200160002054905060006001600380549050610f519190611bf9565b905080821461103f57600060038281548110610f7057610f6f61188c565b5b906000526020600020906003020190508060038481548110610f9557610f9461188c565b5b90600052602060002090600302016000820160009054906101000a900473ffffffffffffffffffffffffffffffffffffffff168160000160006101000a81548173ffffffffffffffffffffffffffffffffffffffff021916908373ffffffffffffffffffffffffffffffffffffffff160217905550600182015481600101556002820154816002015590505082600460008360010154815260200190815260200160002081905550505b600380548061105157611050611c2d565b5b6001900381819060005260206000209060030201600080820160006101000a81549073ffffffffffffffffffffffffffffffffffffffff02191690556001820160009055600282016000905550509055600460008481526020019081526020016000206000905560026000848152602001908152602001600020600080820160006101000a81549073ffffffffffffffffffffffffffffffffffffffff0219169055600182016000905560028201600090555050505050565b6040518060600160405280600073ffffffffffffffffffffffffffffffffffffffff16815260200160008152602001600081525090565b6000604051905090565b600080fd5b600080fd5b6000819050919050565b61116881611155565b811461117357600080fd5b50565b6000813590506111858161115f565b92915050565b6000602082840312156111a1576111a061114b565b5b60006111af84828501611176565b91505092915050565b600073ffffffffffffffffffffffffffffffffffffffff82169050919050565b60006111e3826111b8565b9050919050565b6111f3816111d8565b82525050565b61120281611155565b82525050565b600060608201905061121d60008301866111ea565b61122a60208301856111f9565b61123760408301846111f9565b949350505050565b600081519050919050565b600082825260208201905092915050565b6000819050602082019050919050565b611274816111d8565b82525050565b61128381611155565b82525050565b60608201600082015161129f600085018261126b565b5060208201516112b2602085018261127a565b5060408201516112c5604085018261127a565b50505050565b60006112d78383611289565b60608301905092915050565b6000602082019050919050565b60006112fb8261123f565b611305818561124a565b93506113108361125b565b8060005b8381101561134157815161132888826112cb565b9750611333836112e3565b925050600181019050611314565b5085935050505092915050565b6000602082019050818103600083015261136881846112f0565b905092915050565b6000819050919050565b600061139561139061138b846111b8565b611370565b6111b8565b9050919050565b60006113a78261137a565b9050919050565b60006113b98261139c565b9050919050565b6113c9816113ae565b82525050565b60006020820190506113e460008301846113c0565b92915050565b60006020820190506113ff60008301846111f9565b92915050565b6000806040838503121561141c5761141b61114b565b5b600061142a85828601611176565b925050602061143b85828601611176565b9150509250929050565b600080fd5b600080fd5b6000601f19601f8301169050919050565b7f4e487b7100000000000000000000000000000000000000000000000000000000600052604160045260246000fd5b6114988261144f565b810181811067ffffffffffffffff821117156114b7576114b6611460565b5b80604052505050565b60006114ca611141565b90506114d6828261148f565b919050565b600067ffffffffffffffff8211156114f6576114f5611460565b5b6114ff8261144f565b9050602081019050919050565b82818337600083830152505050565b600061152e611529846114db565b6114c0565b90508281526020810184848401111561154a5761154961144a565b5b61155584828561150c565b509392505050565b600082601f83011261157257611571611445565b5b813561158284826020860161151b565b91505092915050565b600080604083850312156115a2576115a161114b565b5b600083013567ffffffffffffffff8111156115c0576115bf611150565b5b6115cc8582860161155d565b92505060206115dd85828601611176565b9150509250929050565b60006115f28261139c565b9050919050565b611602816115e7565b82525050565b600060208201905061161d60008301846115f9565b92915050565b61162c816111d8565b811461163757600080fd5b50565b60008135905061164981611623565b92915050565b600080fd5b600080fd5b60008083601f84011261166f5761166e611445565b5b8235905067ffffffffffffffff81111561168c5761168b61164f565b5b6020830191508360018202830111156116a8576116a7611654565b5b9250929050565b600080600080606085870312156116c9576116c861114b565b5b60006116d78782880161163a565b94505060206116e887828801611176565b935050604085013567ffffffffffffffff81111561170957611708611150565b5b61171587828801611659565b925092505092959194509250565b60007fffffffff0000000000000000000000000000000000000000000000000000000082169050919050565b61175881611723565b82525050565b6000602082019050611773600083018461174f565b92915050565b60008115159050919050565b61178e81611779565b82525050565b60006020820190506117a96000830184611785565b92915050565b600082825260208201905092915050565b7f6e6f742073656c6c657200000000000000000000000000000000000000000000600082015250565b60006117f6600a836117af565b9150611801826117c0565b602082019050919050565b60006020820190508181036000830152611825816117e9565b9050919050565b600060608201905061184160008301866111ea565b61184e60208301856111ea565b61185b60408301846111f9565b949350505050565b600060408201905061187860008301856111ea565b61188560208301846111f9565b9392505050565b7f4e487b7100000000000000000000000000000000000000000000000000000000600052603260045260246000fd5b7f4e487b7100000000000000000000000000000000000000000000000000000000600052601160045260246000fd5b60006118f582611155565b91507fffffffffffffffffffffffffffffffffffffffffffffffffffffffffffffffff8203611927576119266118bb565b5b600182019050919050565b600060808201905061194760008301876111ea565b61195460208301866111f9565b61196160408301856111f9565b61196e60608301846111f9565b95945050505050565b600061198282611155565b915061198d83611155565b92508282019050808211156119a5576119a46118bb565b5b92915050565b7f4d61726b65743a746f55696e743235365f6f766572666c6f7700000000000000600082015250565b60006119e16019836117af565b91506119ec826119ab565b602082019050919050565b60006020820190508181036000830152611a10816119d4565b9050919050565b7f4d61726b65743a20746f55696e743235365f6f75744f66426f756e6473000000600082015250565b6000611a4d601d836117af565b9150611a5882611a17565b602082019050919050565b60006020820190508181036000830152611a7c81611a40565b9050919050565b611a8c81611779565b8114611a9757600080fd5b50565b600081519050611aa981611a83565b92915050565b600060208284031215611ac557611ac461114b565b5b6000611ad384828501611a9a565b91505092915050565b7f7472616e73666572206e6f74207375636365737366756c000000000000000000600082015250565b6000611b126017836117af565b9150611b1d82611adc565b602082019050919050565b60006020820190508181036000830152611b4181611b05565b9050919050565b6000608082019050611b5d60008301876111ea565b611b6a60208301866111ea565b611b7760408301856111f9565b611b8460608301846111f9565b95945050505050565b7f7072696365206d7573742062652067726561746572207468616e203000000000600082015250565b6000611bc3601c836117af565b9150611bce82611b8d565b602082019050919050565b60006020820190508181036000830152611bf281611bb6565b9050919050565b6000611c0482611155565b9150611c0f83611155565b9250828203905081811115611c2757611c266118bb565b5b92915050565b7f4e487b7100000000000000000000000000000000000000000000000000000000600052603160045260246000fdfea2646970667358221220aa73f28fdddbb265421c7cc71b4bb06dd1de14e139c47f5d710de1c1973462be64736f6c63430008180033",
  "linkReferences": {},
  "deployedLinkReferences": {}
}