{
  "_format": "hh-sol-artifact-1",
  "contractName": "Market",
  "sourceName": "src/backend/contracts/Market.sol",
  "abi": [
    {
      "inputs": [
        {
          "internalType": "address",
          "name": "_nftContract",
          "type": "address"
        },
        {
          "internalType": "address",
          "name": "_acceptedTokenAddress",
          "type": "address"
        }
      ],
      "stateMutability": "nonpayable",
      "type": "constructor"
    },
    {
      "anonymous": false,
      "inputs": [
        {
          "indexed": true,
          "internalType": "uint256",
          "name": "itemId",
          "type": "uint256"
        },
        {
          "indexed": true,
          "internalType": "uint256",
          "name": "tokenId",
          "type": "uint256"
        },
        {
          "indexed": false,
          "internalType": "address",
          "name": "seller",
          "type": "address"
        },
        {
          "indexed": false,
          "internalType": "address",
          "name": "owner",
          "type": "address"
        },
        {
          "indexed": false,
          "internalType": "uint256",
          "name": "price",
          "type": "uint256"
        }
      ],
      "name": "MarketItemCreated",
      "type": "event"
    },
    {
      "anonymous": false,
      "inputs": [
        {
          "indexed": true,
          "internalType": "uint256",
          "name": "itemId",
          "type": "uint256"
        },
        {
          "indexed": true,
          "internalType": "uint256",
          "name": "tokenId",
          "type": "uint256"
        },
        {
          "indexed": false,
          "internalType": "address",
          "name": "seller",
          "type": "address"
        },
        {
          "indexed": false,
          "internalType": "address",
          "name": "owner",
          "type": "address"
        },
        {
          "indexed": false,
          "internalType": "uint256",
          "name": "price",
          "type": "uint256"
        }
      ],
      "name": "MarketItemUpForSale",
      "type": "event"
    },
    {
      "anonymous": false,
      "inputs": [
        {
          "indexed": true,
          "internalType": "uint256",
          "name": "itemId",
          "type": "uint256"
        },
        {
          "indexed": true,
          "internalType": "uint256",
          "name": "tokenId",
          "type": "uint256"
        },
        {
          "indexed": false,
          "internalType": "address",
          "name": "seller",
          "type": "address"
        },
        {
          "indexed": false,
          "internalType": "address",
          "name": "owner",
          "type": "address"
        },
        {
          "indexed": false,
          "internalType": "uint256",
          "name": "price",
          "type": "uint256"
        }
      ],
      "name": "MarketItemUpNotForSale",
      "type": "event"
    },
    {
      "anonymous": false,
      "inputs": [
        {
          "indexed": true,
          "internalType": "address",
          "name": "previousOwner",
          "type": "address"
        },
        {
          "indexed": true,
          "internalType": "address",
          "name": "newOwner",
          "type": "address"
        }
      ],
      "name": "OwnershipTransferred",
      "type": "event"
    },
    {
      "inputs": [],
      "name": "acceptedTokenAddress",
      "outputs": [
        {
          "internalType": "address",
          "name": "",
          "type": "address"
        }
      ],
      "stateMutability": "view",
      "type": "function"
    },
    {
      "inputs": [
        {
          "internalType": "uint256",
          "name": "tokenId",
          "type": "uint256"
        },
        {
          "internalType": "uint256",
          "name": "price",
          "type": "uint256"
        }
      ],
      "name": "addItemToMarket",
      "outputs": [],
      "stateMutability": "nonpayable",
      "type": "function"
    },
    {
      "inputs": [
        {
          "internalType": "uint256",
          "name": "itemId",
          "type": "uint256"
        },
        {
          "internalType": "uint256",
          "name": "itemPrice",
          "type": "uint256"
        }
      ],
      "name": "buyItem",
      "outputs": [],
      "stateMutability": "nonpayable",
      "type": "function"
    },
    {
      "inputs": [
        {
          "internalType": "uint256",
          "name": "itemId",
          "type": "uint256"
        },
        {
          "internalType": "bool",
          "name": "changePrice",
          "type": "bool"
        },
        {
          "internalType": "uint256",
          "name": "newPrice",
          "type": "uint256"
        }
      ],
      "name": "createSale",
      "outputs": [],
      "stateMutability": "nonpayable",
      "type": "function"
    },
    {
      "inputs": [
        {
          "internalType": "uint256",
          "name": "marketItemId",
          "type": "uint256"
        }
      ],
      "name": "getMarketItemById",
      "outputs": [
        {
          "components": [
            {
              "internalType": "uint256",
              "name": "itemId",
              "type": "uint256"
            },
            {
              "internalType": "uint256",
              "name": "tokenId",
              "type": "uint256"
            },
            {
              "internalType": "address",
              "name": "seller",
              "type": "address"
            },
            {
              "internalType": "address",
              "name": "owner",
              "type": "address"
            },
            {
              "internalType": "uint256",
              "name": "price",
              "type": "uint256"
            },
            {
              "internalType": "bool",
              "name": "isSold",
              "type": "bool"
            },
            {
              "internalType": "bool",
              "name": "isUpForSale",
              "type": "bool"
            },
            {
              "internalType": "bool",
              "name": "exists",
              "type": "bool"
            }
          ],
          "internalType": "struct Market.MarketItem",
          "name": "",
          "type": "tuple"
        }
      ],
      "stateMutability": "view",
      "type": "function"
    },
    {
      "inputs": [
        {
          "internalType": "uint256",
          "name": "tokenId",
          "type": "uint256"
        }
      ],
      "name": "getMarketItemByTokenId",
      "outputs": [
        {
          "components": [
            {
              "internalType": "uint256",
              "name": "itemId",
              "type": "uint256"
            },
            {
              "internalType": "uint256",
              "name": "tokenId",
              "type": "uint256"
            },
            {
              "internalType": "address",
              "name": "seller",
              "type": "address"
            },
            {
              "internalType": "address",
              "name": "owner",
              "type": "address"
            },
            {
              "internalType": "uint256",
              "name": "price",
              "type": "uint256"
            },
            {
              "internalType": "bool",
              "name": "isSold",
              "type": "bool"
            },
            {
              "internalType": "bool",
              "name": "isUpForSale",
              "type": "bool"
            },
            {
              "internalType": "bool",
              "name": "exists",
              "type": "bool"
            }
          ],
          "internalType": "struct Market.MarketItem",
          "name": "",
          "type": "tuple"
        }
      ],
      "stateMutability": "view",
      "type": "function"
    },
    {
      "inputs": [],
      "name": "getUnsoldItems",
      "outputs": [
        {
          "components": [
            {
              "internalType": "uint256",
              "name": "itemId",
              "type": "uint256"
            },
            {
              "internalType": "uint256",
              "name": "tokenId",
              "type": "uint256"
            },
            {
              "internalType": "address",
              "name": "seller",
              "type": "address"
            },
            {
              "internalType": "address",
              "name": "owner",
              "type": "address"
            },
            {
              "internalType": "uint256",
              "name": "price",
              "type": "uint256"
            },
            {
              "internalType": "bool",
              "name": "isSold",
              "type": "bool"
            },
            {
              "internalType": "bool",
              "name": "isUpForSale",
              "type": "bool"
            },
            {
              "internalType": "bool",
              "name": "exists",
              "type": "bool"
            }
          ],
          "internalType": "struct Market.MarketItem[]",
          "name": "",
          "type": "tuple[]"
        }
      ],
      "stateMutability": "view",
      "type": "function"
    },
    {
      "inputs": [
        {
          "internalType": "uint256",
          "name": "",
          "type": "uint256"
        }
      ],
      "name": "idToMarketItem",
      "outputs": [
        {
          "internalType": "uint256",
          "name": "itemId",
          "type": "uint256"
        },
        {
          "internalType": "uint256",
          "name": "tokenId",
          "type": "uint256"
        },
        {
          "internalType": "address",
          "name": "seller",
          "type": "address"
        },
        {
          "internalType": "address",
          "name": "owner",
          "type": "address"
        },
        {
          "internalType": "uint256",
          "name": "price",
          "type": "uint256"
        },
        {
          "internalType": "bool",
          "name": "isSold",
          "type": "bool"
        },
        {
          "internalType": "bool",
          "name": "isUpForSale",
          "type": "bool"
        },
        {
          "internalType": "bool",
          "name": "exists",
          "type": "bool"
        }
      ],
      "stateMutability": "view",
      "type": "function"
    },
    {
      "inputs": [],
      "name": "listingPrice",
      "outputs": [
        {
          "internalType": "uint256",
          "name": "",
          "type": "uint256"
        }
      ],
      "stateMutability": "view",
      "type": "function"
    },
    {
      "inputs": [],
      "name": "nftContract",
      "outputs": [
        {
          "internalType": "address",
          "name": "",
          "type": "address"
        }
      ],
      "stateMutability": "view",
      "type": "function"
    },
    {
      "inputs": [
        {
          "internalType": "address",
          "name": "operator",
          "type": "address"
        },
        {
          "internalType": "address",
          "name": "from",
          "type": "address"
        },
        {
          "internalType": "uint256",
          "name": "tokenId",
          "type": "uint256"
        },
        {
          "internalType": "bytes",
          "name": "data",
          "type": "bytes"
        }
      ],
      "name": "onERC721Received",
      "outputs": [
        {
          "internalType": "bytes4",
          "name": "",
          "type": "bytes4"
        }
      ],
      "stateMutability": "nonpayable",
      "type": "function"
    },
    {
      "inputs": [],
      "name": "owner",
      "outputs": [
        {
          "internalType": "address",
          "name": "",
          "type": "address"
        }
      ],
      "stateMutability": "view",
      "type": "function"
    },
    {
      "inputs": [],
      "name": "renounceOwnership",
      "outputs": [],
      "stateMutability": "nonpayable",
      "type": "function"
    },
    {
      "inputs": [
        {
          "internalType": "address",
          "name": "newOwner",
          "type": "address"
        }
      ],
      "name": "transferOwnership",
      "outputs": [],
      "stateMutability": "nonpayable",
      "type": "function"
    },
    {
      "inputs": [
        {
          "internalType": "uint256",
          "name": "itemId",
          "type": "uint256"
        }
      ],
      "name": "unlistNFT",
      "outputs": [],
      "stateMutability": "nonpayable",
      "type": "function"
    }
  ],
  "bytecode": "0x608060405260016006553480156200001657600080fd5b50604051620026663803806200266683398181016040528101906200003c919062000223565b6200005c62000050620000ed60201b60201c565b620000f560201b60201c565b6001808190555081600460006101000a81548173ffffffffffffffffffffffffffffffffffffffff021916908373ffffffffffffffffffffffffffffffffffffffff16021790555080600560006101000a81548173ffffffffffffffffffffffffffffffffffffffff021916908373ffffffffffffffffffffffffffffffffffffffff16021790555050506200026a565b600033905090565b60008060009054906101000a900473ffffffffffffffffffffffffffffffffffffffff169050816000806101000a81548173ffffffffffffffffffffffffffffffffffffffff021916908373ffffffffffffffffffffffffffffffffffffffff1602179055508173ffffffffffffffffffffffffffffffffffffffff168173ffffffffffffffffffffffffffffffffffffffff167f8be0079c531659141344cd1fd0a4f28419497f9722a3daafe3b4186f6b6457e060405160405180910390a35050565b600080fd5b600073ffffffffffffffffffffffffffffffffffffffff82169050919050565b6000620001eb82620001be565b9050919050565b620001fd81620001de565b81146200020957600080fd5b50565b6000815190506200021d81620001f2565b92915050565b600080604083850312156200023d576200023c620001b9565b5b60006200024d858286016200020c565b925050602062000260858286016200020c565b9150509250929050565b6123ec806200027a6000396000f3fe608060405234801561001057600080fd5b50600436106100f55760003560e01c8063961f094411610097578063c78f19f911610066578063c78f19f91461025e578063d56d229d1461027c578063e61a70c01461029a578063f2fde38b146102d1576100f5565b8063961f0944146101d85780639979c009146101f45780639abf4217146102105780639b8bc12714610240576100f5565b8063715018a6116100d3578063715018a614610176578063889e2cd5146101805780638da5cb5b1461019e57806391066da8146101bc576100f5565b8063150b7a02146100fa5780631b00a8db1461012a57806353dbceb114610146575b600080fd5b610114600480360381019061010f9190611948565b6102ed565b6040516101219190611a0b565b60405180910390f35b610144600480360381019061013f9190611a5e565b610302565b005b610160600480360381019061015b9190611ab1565b61054d565b60405161016d9190611bad565b60405180910390f35b61017e61069c565b005b6101886106b0565b6040516101959190611bd8565b60405180910390f35b6101a66106d6565b6040516101b39190611bd8565b60405180910390f35b6101d660048036038101906101d19190611bf3565b6106ff565b005b6101f260048036038101906101ed9190611ab1565b610a8d565b005b61020e60048036038101906102099190611bf3565b610cb4565b005b61022a60048036038101906102259190611ab1565b611050565b6040516102379190611bad565b60405180910390f35b610248611248565b6040516102559190611d85565b60405180910390f35b6102666114aa565b6040516102739190611db6565b60405180910390f35b6102846114b0565b6040516102919190611bd8565b60405180910390f35b6102b460048036038101906102af9190611ab1565b6114d6565b6040516102c8989796959493929190611de0565b60405180910390f35b6102eb60048036038101906102e69190611e5e565b611585565b005b600063150b7a0260e01b905095945050505050565b61030a611608565b6000600860008581526020019081526020016000206040518061010001604052908160008201548152602001600182015481526020016002820160009054906101000a900473ffffffffffffffffffffffffffffffffffffffff1673ffffffffffffffffffffffffffffffffffffffff1673ffffffffffffffffffffffffffffffffffffffff1681526020016003820160009054906101000a900473ffffffffffffffffffffffffffffffffffffffff1673ffffffffffffffffffffffffffffffffffffffff1673ffffffffffffffffffffffffffffffffffffffff168152602001600482015481526020016005820160009054906101000a900460ff161515151581526020016005820160019054906101000a900460ff161515151581526020016005820160029054906101000a900460ff1615151515815250509050600115158160e00151151514610493576040517f08c379a000000000000000000000000000000000000000000000000000000000815260040161048a90611ee8565b60405180910390fd5b60016008600086815260200190815260200160002060050160016101000a81548160ff02191690831515021790555082156104e4578160086000868152602001908152602001600020600401819055505b8060200151847f0b59dfc56db79c6259bcd97a3fc890ab90008a8b5781d89dd763e01651bc7bc8338460400151600860008a81526020019081526020016000206004015460405161053793929190611f08565b60405180910390a350610548611657565b505050565b6105556117ce565b6000600860008481526020019081526020016000206040518061010001604052908160008201548152602001600182015481526020016002820160009054906101000a900473ffffffffffffffffffffffffffffffffffffffff1673ffffffffffffffffffffffffffffffffffffffff1673ffffffffffffffffffffffffffffffffffffffff1681526020016003820160009054906101000a900473ffffffffffffffffffffffffffffffffffffffff1673ffffffffffffffffffffffffffffffffffffffff1673ffffffffffffffffffffffffffffffffffffffff168152602001600482015481526020016005820160009054906101000a900460ff161515151581526020016005820160019054906101000a900460ff161515151581526020016005820160029054906101000a900460ff161515151581525050905080915050919050565b6106a4611660565b6106ae60006116de565b565b600560009054906101000a900473ffffffffffffffffffffffffffffffffffffffff1681565b60008060009054906101000a900473ffffffffffffffffffffffffffffffffffffffff16905090565b610707611608565b60065481101561074c576040517f08c379a000000000000000000000000000000000000000000000000000000000815260040161074390611fb1565b60405180910390fd5b61075660026117a2565b600061076260026117b8565b90506040518061010001604052808281526020018481526020013373ffffffffffffffffffffffffffffffffffffffff1681526020013073ffffffffffffffffffffffffffffffffffffffff1681526020018381526020016000151581526020016000151581526020016001151581525060086000838152602001908152602001600020600082015181600001556020820151816001015560408201518160020160006101000a81548173ffffffffffffffffffffffffffffffffffffffff021916908373ffffffffffffffffffffffffffffffffffffffff16021790555060608201518160030160006101000a81548173ffffffffffffffffffffffffffffffffffffffff021916908373ffffffffffffffffffffffffffffffffffffffff1602179055506080820151816004015560a08201518160050160006101000a81548160ff02191690831515021790555060c08201518160050160016101000a81548160ff02191690831515021790555060e08201518160050160026101000a81548160ff021916908315150217905550905050600560009054906101000a900473ffffffffffffffffffffffffffffffffffffffff1673ffffffffffffffffffffffffffffffffffffffff166323b872dd3330856040518463ffffffff1660e01b815260040161095493929190611f08565b6020604051808303816000875af1158015610973573d6000803e3d6000fd5b505050506040513d601f19601f820116820180604052508101906109979190611fe6565b50600460009054906101000a900473ffffffffffffffffffffffffffffffffffffffff1673ffffffffffffffffffffffffffffffffffffffff166342842e0e3330866040518463ffffffff1660e01b81526004016109f793929190611f08565b600060405180830381600087803b158015610a1157600080fd5b505af1158015610a25573d6000803e3d6000fd5b505050508160076000828254610a3b9190612042565b9250508190555082817f38690a554ffbc44eb6a75016e47d517d0db8e6c37494adc68d6d0b2c66f0ab2133600086604051610a7893929190611f08565b60405180910390a350610a89611657565b5050565b610a95611608565b6000600860008381526020019081526020016000206040518061010001604052908160008201548152602001600182015481526020016002820160009054906101000a900473ffffffffffffffffffffffffffffffffffffffff1673ffffffffffffffffffffffffffffffffffffffff1673ffffffffffffffffffffffffffffffffffffffff1681526020016003820160009054906101000a900473ffffffffffffffffffffffffffffffffffffffff1673ffffffffffffffffffffffffffffffffffffffff1673ffffffffffffffffffffffffffffffffffffffff168152602001600482015481526020016005820160009054906101000a900460ff161515151581526020016005820160019054906101000a900460ff161515151581526020016005820160029054906101000a900460ff1615151515815250509050600115158160e00151151514610c1e576040517f08c379a0000000000000000000000000000000000000000000000000000000008152600401610c1590611ee8565b60405180910390fd5b60006008600084815260200190815260200160002060050160016101000a81548160ff0219169083151502179055508060200151827ff2e9080a1a9d5380dfbc3a166de3fdbde0dc2550e7fc238b793ec0b1979204753384604001516008600088815260200190815260200160002060040154604051610ca093929190611f08565b60405180910390a350610cb1611657565b50565b610cbc611608565b60006008600084815260200190815260200160002060040154905060006008600085815260200190815260200160002060010154905060006008600086815260200190815260200160002060050160019054906101000a900460ff16905082841015610d5d576040517f08c379a0000000000000000000000000000000000000000000000000000000008152600401610d54906120c2565b60405180910390fd5b6001151581151514610da4576040517f08c379a0000000000000000000000000000000000000000000000000000000008152600401610d9b9061212e565b60405180910390fd5b60006008600087815260200190815260200160002060030160009054906101000a900473ffffffffffffffffffffffffffffffffffffffff169050846008600088815260200190815260200160002060040181905550336008600088815260200190815260200160002060030160006101000a81548173ffffffffffffffffffffffffffffffffffffffff021916908373ffffffffffffffffffffffffffffffffffffffff160217905550336008600088815260200190815260200160002060020160006101000a81548173ffffffffffffffffffffffffffffffffffffffff021916908373ffffffffffffffffffffffffffffffffffffffff16021790555060016008600088815260200190815260200160002060050160006101000a81548160ff02191690831515021790555060006008600088815260200190815260200160002060050160016101000a81548160ff021916908315150217905550600460009054906101000a900473ffffffffffffffffffffffffffffffffffffffff1673ffffffffffffffffffffffffffffffffffffffff166342842e0e8233866040518463ffffffff1660e01b8152600401610f6193929190611f08565b600060405180830381600087803b158015610f7b57600080fd5b505af1158015610f8f573d6000803e3d6000fd5b50505050600560009054906101000a900473ffffffffffffffffffffffffffffffffffffffff1673ffffffffffffffffffffffffffffffffffffffff166323b872dd3383886040518463ffffffff1660e01b8152600401610ff293929190611f08565b6020604051808303816000875af1158015611011573d6000803e3d6000fd5b505050506040513d601f19601f820116820180604052508101906110359190611fe6565b5061104060036117a2565b5050505061104c611657565b5050565b6110586117ce565b6110606117ce565b600061106c60026117b8565b90506000805b828110156111fc5760006001826110899190612042565b9050866008600083815260200190815260200160002060010154036111ee57600860008281526020019081526020016000206040518061010001604052908160008201548152602001600182015481526020016002820160009054906101000a900473ffffffffffffffffffffffffffffffffffffffff1673ffffffffffffffffffffffffffffffffffffffff1673ffffffffffffffffffffffffffffffffffffffff1681526020016003820160009054906101000a900473ffffffffffffffffffffffffffffffffffffffff1673ffffffffffffffffffffffffffffffffffffffff1673ffffffffffffffffffffffffffffffffffffffff168152602001600482015481526020016005820160009054906101000a900460ff161515151581526020016005820160019054906101000a900460ff161515151581526020016005820160029054906101000a900460ff161515151581525050945060019250506111fc565b508080600101915050611072565b508061123d576040517f08c379a00000000000000000000000000000000000000000000000000000000081526004016112349061219a565b60405180910390fd5b829350505050919050565b6060600061125660026117b8565b9050600061126460036117b8565b61126e60026117b8565b61127891906121ba565b90506000808267ffffffffffffffff811115611297576112966121ee565b5b6040519080825280602002602001820160405280156112d057816020015b6112bd6117ce565b8152602001906001900390816112b55790505b50905060005b8481101561149f57600860006001836112ef9190612042565b815260200190815260200160002060050160009054906101000a900460ff166114925760006001826113219190612042565b90506000600860008381526020019081526020016000206040518061010001604052908160008201548152602001600182015481526020016002820160009054906101000a900473ffffffffffffffffffffffffffffffffffffffff1673ffffffffffffffffffffffffffffffffffffffff1673ffffffffffffffffffffffffffffffffffffffff1681526020016003820160009054906101000a900473ffffffffffffffffffffffffffffffffffffffff1673ffffffffffffffffffffffffffffffffffffffff1673ffffffffffffffffffffffffffffffffffffffff168152602001600482015481526020016005820160009054906101000a900460ff161515151581526020016005820160019054906101000a900460ff161515151581526020016005820160029054906101000a900460ff1615151515815250509050808486815181106114755761147461221d565b5b602002602001018190525060018561148d9190612042565b945050505b80806001019150506112d6565b508094505050505090565b60065481565b600460009054906101000a900473ffffffffffffffffffffffffffffffffffffffff1681565b60086020528060005260406000206000915090508060000154908060010154908060020160009054906101000a900473ffffffffffffffffffffffffffffffffffffffff16908060030160009054906101000a900473ffffffffffffffffffffffffffffffffffffffff16908060040154908060050160009054906101000a900460ff16908060050160019054906101000a900460ff16908060050160029054906101000a900460ff16905088565b61158d611660565b600073ffffffffffffffffffffffffffffffffffffffff168173ffffffffffffffffffffffffffffffffffffffff16036115fc576040517f08c379a00000000000000000000000000000000000000000000000000000000081526004016115f3906122be565b60405180910390fd5b611605816116de565b50565b60026001540361164d576040517f08c379a00000000000000000000000000000000000000000000000000000000081526004016116449061232a565b60405180910390fd5b6002600181905550565b60018081905550565b6116686117c6565b73ffffffffffffffffffffffffffffffffffffffff166116866106d6565b73ffffffffffffffffffffffffffffffffffffffff16146116dc576040517f08c379a00000000000000000000000000000000000000000000000000000000081526004016116d390612396565b60405180910390fd5b565b60008060009054906101000a900473ffffffffffffffffffffffffffffffffffffffff169050816000806101000a81548173ffffffffffffffffffffffffffffffffffffffff021916908373ffffffffffffffffffffffffffffffffffffffff1602179055508173ffffffffffffffffffffffffffffffffffffffff168173ffffffffffffffffffffffffffffffffffffffff167f8be0079c531659141344cd1fd0a4f28419497f9722a3daafe3b4186f6b6457e060405160405180910390a35050565b6001816000016000828254019250508190555050565b600081600001549050919050565b600033905090565b6040518061010001604052806000815260200160008152602001600073ffffffffffffffffffffffffffffffffffffffff168152602001600073ffffffffffffffffffffffffffffffffffffffff168152602001600081526020016000151581526020016000151581526020016000151581525090565b600080fd5b600080fd5b600073ffffffffffffffffffffffffffffffffffffffff82169050919050565b600061187a8261184f565b9050919050565b61188a8161186f565b811461189557600080fd5b50565b6000813590506118a781611881565b92915050565b6000819050919050565b6118c0816118ad565b81146118cb57600080fd5b50565b6000813590506118dd816118b7565b92915050565b600080fd5b600080fd5b600080fd5b60008083601f840112611908576119076118e3565b5b8235905067ffffffffffffffff811115611925576119246118e8565b5b602083019150836001820283011115611941576119406118ed565b5b9250929050565b60008060008060006080868803121561196457611963611845565b5b600061197288828901611898565b955050602061198388828901611898565b9450506040611994888289016118ce565b935050606086013567ffffffffffffffff8111156119b5576119b461184a565b5b6119c1888289016118f2565b92509250509295509295909350565b60007fffffffff0000000000000000000000000000000000000000000000000000000082169050919050565b611a05816119d0565b82525050565b6000602082019050611a2060008301846119fc565b92915050565b60008115159050919050565b611a3b81611a26565b8114611a4657600080fd5b50565b600081359050611a5881611a32565b92915050565b600080600060608486031215611a7757611a76611845565b5b6000611a85868287016118ce565b9350506020611a9686828701611a49565b9250506040611aa7868287016118ce565b9150509250925092565b600060208284031215611ac757611ac6611845565b5b6000611ad5848285016118ce565b91505092915050565b611ae7816118ad565b82525050565b611af68161186f565b82525050565b611b0581611a26565b82525050565b61010082016000820151611b226000850182611ade565b506020820151611b356020850182611ade565b506040820151611b486040850182611aed565b506060820151611b5b6060850182611aed565b506080820151611b6e6080850182611ade565b5060a0820151611b8160a0850182611afc565b5060c0820151611b9460c0850182611afc565b5060e0820151611ba760e0850182611afc565b50505050565b600061010082019050611bc36000830184611b0b565b92915050565b611bd28161186f565b82525050565b6000602082019050611bed6000830184611bc9565b92915050565b60008060408385031215611c0a57611c09611845565b5b6000611c18858286016118ce565b9250506020611c29858286016118ce565b9150509250929050565b600081519050919050565b600082825260208201905092915050565b6000819050602082019050919050565b61010082016000820151611c766000850182611ade565b506020820151611c896020850182611ade565b506040820151611c9c6040850182611aed565b506060820151611caf6060850182611aed565b506080820151611cc26080850182611ade565b5060a0820151611cd560a0850182611afc565b5060c0820151611ce860c0850182611afc565b5060e0820151611cfb60e0850182611afc565b50505050565b6000611d0d8383611c5f565b6101008301905092915050565b6000602082019050919050565b6000611d3282611c33565b611d3c8185611c3e565b9350611d4783611c4f565b8060005b83811015611d78578151611d5f8882611d01565b9750611d6a83611d1a565b925050600181019050611d4b565b5085935050505092915050565b60006020820190508181036000830152611d9f8184611d27565b905092915050565b611db0816118ad565b82525050565b6000602082019050611dcb6000830184611da7565b92915050565b611dda81611a26565b82525050565b600061010082019050611df6600083018b611da7565b611e03602083018a611da7565b611e106040830189611bc9565b611e1d6060830188611bc9565b611e2a6080830187611da7565b611e3760a0830186611dd1565b611e4460c0830185611dd1565b611e5160e0830184611dd1565b9998505050505050505050565b600060208284031215611e7457611e73611845565b5b6000611e8284828501611898565b91505092915050565b600082825260208201905092915050565b7f4974656d20646f6573206e6f742065786973742e000000000000000000000000600082015250565b6000611ed2601483611e8b565b9150611edd82611e9c565b602082019050919050565b60006020820190508181036000830152611f0181611ec5565b9050919050565b6000606082019050611f1d6000830186611bc9565b611f2a6020830185611bc9565b611f376040830184611da7565b949350505050565b7f50726963652073686f756c64206265206174206c656173742073616d6520617360008201527f206c697374696e67207072696365000000000000000000000000000000000000602082015250565b6000611f9b602e83611e8b565b9150611fa682611f3f565b604082019050919050565b60006020820190508181036000830152611fca81611f8e565b9050919050565b600081519050611fe081611a32565b92915050565b600060208284031215611ffc57611ffb611845565b5b600061200a84828501611fd1565b91505092915050565b7f4e487b7100000000000000000000000000000000000000000000000000000000600052601160045260246000fd5b600061204d826118ad565b9150612058836118ad565b92508282019050808211156120705761206f612013565b5b92915050565b7f41736b696e67205072696365206e6f7420736174697366696564210000000000600082015250565b60006120ac601b83611e8b565b91506120b782612076565b602082019050919050565b600060208201905081810360008301526120db8161209f565b9050919050565b7f4e4654206e6f7420666f722073616c652e000000000000000000000000000000600082015250565b6000612118601183611e8b565b9150612123826120e2565b602082019050919050565b600060208201905081810360008301526121478161210b565b9050919050565b7f4d61726b6574206974656d206e6f7420666f756e640000000000000000000000600082015250565b6000612184601583611e8b565b915061218f8261214e565b602082019050919050565b600060208201905081810360008301526121b381612177565b9050919050565b60006121c5826118ad565b91506121d0836118ad565b92508282039050818111156121e8576121e7612013565b5b92915050565b7f4e487b7100000000000000000000000000000000000000000000000000000000600052604160045260246000fd5b7f4e487b7100000000000000000000000000000000000000000000000000000000600052603260045260246000fd5b7f4f776e61626c653a206e6577206f776e657220697320746865207a65726f206160008201527f6464726573730000000000000000000000000000000000000000000000000000602082015250565b60006122a8602683611e8b565b91506122b38261224c565b604082019050919050565b600060208201905081810360008301526122d78161229b565b9050919050565b7f5265656e7472616e637947756172643a207265656e7472616e742063616c6c00600082015250565b6000612314601f83611e8b565b915061231f826122de565b602082019050919050565b6000602082019050818103600083015261234381612307565b9050919050565b7f4f776e61626c653a2063616c6c6572206973206e6f7420746865206f776e6572600082015250565b6000612380602083611e8b565b915061238b8261234a565b602082019050919050565b600060208201905081810360008301526123af81612373565b905091905056fea2646970667358221220c03dcd715c7583f605e1fae6228c92ff2a43ec05277519a512135273ff6af42864736f6c63430008180033",
  "linkReferences": {},
  "deployedLinkReferences": {}
}