{
  "_format": "hh-sol-artifact-1",
  "contractName": "NFTM",
  "sourceName": "src/backend/contracts/NFTM.sol",
  "abi": [
    {
      "inputs": [
        {
          "internalType": "address",
          "name": "initialOwner",
          "type": "address"
        }
      ],
      "stateMutability": "nonpayable",
      "type": "constructor"
    },
    {
      "inputs": [],
      "name": "ERC721EnumerableForbiddenBatchMint",
      "type": "error"
    },
    {
      "inputs": [
        {
          "internalType": "address",
          "name": "sender",
          "type": "address"
        },
        {
          "internalType": "uint256",
          "name": "tokenId",
          "type": "uint256"
        },
        {
          "internalType": "address",
          "name": "owner",
          "type": "address"
        }
      ],
      "name": "ERC721IncorrectOwner",
      "type": "error"
    },
    {
      "inputs": [
        {
          "internalType": "address",
          "name": "operator",
          "type": "address"
        },
        {
          "internalType": "uint256",
          "name": "tokenId",
          "type": "uint256"
        }
      ],
      "name": "ERC721InsufficientApproval",
      "type": "error"
    },
    {
      "inputs": [
        {
          "internalType": "address",
          "name": "approver",
          "type": "address"
        }
      ],
      "name": "ERC721InvalidApprover",
      "type": "error"
    },
    {
      "inputs": [
        {
          "internalType": "address",
          "name": "operator",
          "type": "address"
        }
      ],
      "name": "ERC721InvalidOperator",
      "type": "error"
    },
    {
      "inputs": [
        {
          "internalType": "address",
          "name": "owner",
          "type": "address"
        }
      ],
      "name": "ERC721InvalidOwner",
      "type": "error"
    },
    {
      "inputs": [
        {
          "internalType": "address",
          "name": "receiver",
          "type": "address"
        }
      ],
      "name": "ERC721InvalidReceiver",
      "type": "error"
    },
    {
      "inputs": [
        {
          "internalType": "address",
          "name": "sender",
          "type": "address"
        }
      ],
      "name": "ERC721InvalidSender",
      "type": "error"
    },
    {
      "inputs": [
        {
          "internalType": "uint256",
          "name": "tokenId",
          "type": "uint256"
        }
      ],
      "name": "ERC721NonexistentToken",
      "type": "error"
    },
    {
      "inputs": [
        {
          "internalType": "address",
          "name": "owner",
          "type": "address"
        },
        {
          "internalType": "uint256",
          "name": "index",
          "type": "uint256"
        }
      ],
      "name": "ERC721OutOfBoundsIndex",
      "type": "error"
    },
    {
      "inputs": [
        {
          "internalType": "address",
          "name": "owner",
          "type": "address"
        }
      ],
      "name": "OwnableInvalidOwner",
      "type": "error"
    },
    {
      "inputs": [
        {
          "internalType": "address",
          "name": "account",
          "type": "address"
        }
      ],
      "name": "OwnableUnauthorizedAccount",
      "type": "error"
    },
    {
      "anonymous": false,
      "inputs": [
        {
          "indexed": true,
          "internalType": "address",
          "name": "owner",
          "type": "address"
        },
        {
          "indexed": true,
          "internalType": "address",
          "name": "approved",
          "type": "address"
        },
        {
          "indexed": true,
          "internalType": "uint256",
          "name": "tokenId",
          "type": "uint256"
        }
      ],
      "name": "Approval",
      "type": "event"
    },
    {
      "anonymous": false,
      "inputs": [
        {
          "indexed": true,
          "internalType": "address",
          "name": "owner",
          "type": "address"
        },
        {
          "indexed": true,
          "internalType": "address",
          "name": "operator",
          "type": "address"
        },
        {
          "indexed": false,
          "internalType": "bool",
          "name": "approved",
          "type": "bool"
        }
      ],
      "name": "ApprovalForAll",
      "type": "event"
    },
    {
      "anonymous": false,
      "inputs": [
        {
          "indexed": false,
          "internalType": "uint256",
          "name": "_fromTokenId",
          "type": "uint256"
        },
        {
          "indexed": false,
          "internalType": "uint256",
          "name": "_toTokenId",
          "type": "uint256"
        }
      ],
      "name": "BatchMetadataUpdate",
      "type": "event"
    },
    {
      "anonymous": false,
      "inputs": [
        {
          "indexed": false,
          "internalType": "uint256",
          "name": "_tokenId",
          "type": "uint256"
        }
      ],
      "name": "MetadataUpdate",
      "type": "event"
    },
    {
      "anonymous": false,
      "inputs": [
        {
          "indexed": true,
          "internalType": "address",
          "name": "previousOwner",
          "type": "address"
        },
        {
          "indexed": true,
          "internalType": "address",
          "name": "newOwner",
          "type": "address"
        }
      ],
      "name": "OwnershipTransferred",
      "type": "event"
    },
    {
      "anonymous": false,
      "inputs": [
        {
          "indexed": true,
          "internalType": "address",
          "name": "from",
          "type": "address"
        },
        {
          "indexed": true,
          "internalType": "address",
          "name": "to",
          "type": "address"
        },
        {
          "indexed": true,
          "internalType": "uint256",
          "name": "tokenId",
          "type": "uint256"
        }
      ],
      "name": "Transfer",
      "type": "event"
    },
    {
      "inputs": [
        {
          "internalType": "address",
          "name": "to",
          "type": "address"
        },
        {
          "internalType": "uint256",
          "name": "tokenId",
          "type": "uint256"
        }
      ],
      "name": "approve",
      "outputs": [],
      "stateMutability": "nonpayable",
      "type": "function"
    },
    {
      "inputs": [
        {
          "internalType": "address",
          "name": "owner",
          "type": "address"
        }
      ],
      "name": "balanceOf",
      "outputs": [
        {
          "internalType": "uint256",
          "name": "",
          "type": "uint256"
        }
      ],
      "stateMutability": "view",
      "type": "function"
    },
    {
      "inputs": [
        {
          "internalType": "uint256",
          "name": "tokenId",
          "type": "uint256"
        }
      ],
      "name": "getApproved",
      "outputs": [
        {
          "internalType": "address",
          "name": "",
          "type": "address"
        }
      ],
      "stateMutability": "view",
      "type": "function"
    },
    {
      "inputs": [],
      "name": "getNextTokenId",
      "outputs": [
        {
          "internalType": "uint256",
          "name": "",
          "type": "uint256"
        }
      ],
      "stateMutability": "view",
      "type": "function"
    },
    {
      "inputs": [
        {
          "internalType": "address",
          "name": "owner",
          "type": "address"
        },
        {
          "internalType": "address",
          "name": "operator",
          "type": "address"
        }
      ],
      "name": "isApprovedForAll",
      "outputs": [
        {
          "internalType": "bool",
          "name": "",
          "type": "bool"
        }
      ],
      "stateMutability": "view",
      "type": "function"
    },
    {
      "inputs": [],
      "name": "name",
      "outputs": [
        {
          "internalType": "string",
          "name": "",
          "type": "string"
        }
      ],
      "stateMutability": "view",
      "type": "function"
    },
    {
      "inputs": [],
      "name": "owner",
      "outputs": [
        {
          "internalType": "address",
          "name": "",
          "type": "address"
        }
      ],
      "stateMutability": "view",
      "type": "function"
    },
    {
      "inputs": [
        {
          "internalType": "uint256",
          "name": "tokenId",
          "type": "uint256"
        }
      ],
      "name": "ownerOf",
      "outputs": [
        {
          "internalType": "address",
          "name": "",
          "type": "address"
        }
      ],
      "stateMutability": "view",
      "type": "function"
    },
    {
      "inputs": [],
      "name": "renounceOwnership",
      "outputs": [],
      "stateMutability": "nonpayable",
      "type": "function"
    },
    {
      "inputs": [
        {
          "internalType": "string",
          "name": "tokenURIs",
          "type": "string"
        }
      ],
      "name": "safeMint",
      "outputs": [],
      "stateMutability": "nonpayable",
      "type": "function"
    },
    {
      "inputs": [
        {
          "internalType": "address",
          "name": "from",
          "type": "address"
        },
        {
          "internalType": "address",
          "name": "to",
          "type": "address"
        },
        {
          "internalType": "uint256",
          "name": "tokenId",
          "type": "uint256"
        }
      ],
      "name": "safeTransferFrom",
      "outputs": [],
      "stateMutability": "nonpayable",
      "type": "function"
    },
    {
      "inputs": [
        {
          "internalType": "address",
          "name": "from",
          "type": "address"
        },
        {
          "internalType": "address",
          "name": "to",
          "type": "address"
        },
        {
          "internalType": "uint256",
          "name": "tokenId",
          "type": "uint256"
        },
        {
          "internalType": "bytes",
          "name": "data",
          "type": "bytes"
        }
      ],
      "name": "safeTransferFrom",
      "outputs": [],
      "stateMutability": "nonpayable",
      "type": "function"
    },
    {
      "inputs": [
        {
          "internalType": "address",
          "name": "operator",
          "type": "address"
        },
        {
          "internalType": "bool",
          "name": "approved",
          "type": "bool"
        }
      ],
      "name": "setApprovalForAll",
      "outputs": [],
      "stateMutability": "nonpayable",
      "type": "function"
    },
    {
      "inputs": [
        {
          "internalType": "bytes4",
          "name": "interfaceId",
          "type": "bytes4"
        }
      ],
      "name": "supportsInterface",
      "outputs": [
        {
          "internalType": "bool",
          "name": "",
          "type": "bool"
        }
      ],
      "stateMutability": "view",
      "type": "function"
    },
    {
      "inputs": [],
      "name": "symbol",
      "outputs": [
        {
          "internalType": "string",
          "name": "",
          "type": "string"
        }
      ],
      "stateMutability": "view",
      "type": "function"
    },
    {
      "inputs": [
        {
          "internalType": "uint256",
          "name": "index",
          "type": "uint256"
        }
      ],
      "name": "tokenByIndex",
      "outputs": [
        {
          "internalType": "uint256",
          "name": "",
          "type": "uint256"
        }
      ],
      "stateMutability": "view",
      "type": "function"
    },
    {
      "inputs": [
        {
          "internalType": "address",
          "name": "owner",
          "type": "address"
        },
        {
          "internalType": "uint256",
          "name": "index",
          "type": "uint256"
        }
      ],
      "name": "tokenOfOwnerByIndex",
      "outputs": [
        {
          "internalType": "uint256",
          "name": "",
          "type": "uint256"
        }
      ],
      "stateMutability": "view",
      "type": "function"
    },
    {
      "inputs": [
        {
          "internalType": "uint256",
          "name": "tokenId",
          "type": "uint256"
        }
      ],
      "name": "tokenURI",
      "outputs": [
        {
          "internalType": "string",
          "name": "",
          "type": "string"
        }
      ],
      "stateMutability": "view",
      "type": "function"
    },
    {
      "inputs": [],
      "name": "totalSupply",
      "outputs": [
        {
          "internalType": "uint256",
          "name": "",
          "type": "uint256"
        }
      ],
      "stateMutability": "view",
      "type": "function"
    },
    {
      "inputs": [
        {
          "internalType": "address",
          "name": "from",
          "type": "address"
        },
        {
          "internalType": "address",
          "name": "to",
          "type": "address"
        },
        {
          "internalType": "uint256",
          "name": "tokenId",
          "type": "uint256"
        }
      ],
      "name": "transferFrom",
      "outputs": [],
      "stateMutability": "nonpayable",
      "type": "function"
    },
    {
      "inputs": [
        {
          "internalType": "address",
          "name": "newOwner",
          "type": "address"
        }
      ],
      "name": "transferOwnership",
      "outputs": [],
      "stateMutability": "nonpayable",
      "type": "function"
    }
  ],
  "bytecode": "0x60806040523480156200001157600080fd5b50604051620033fc380380620033fc833981810160405281019062000037919062000288565b806040518060400160405280600b81526020017f6c696e27732065726332310000000000000000000000000000000000000000008152506040518060400160405280600981526020017f5361644d6f6e6b657900000000000000000000000000000000000000000000008152508160009081620000b5919062000534565b508060019081620000c7919062000534565b505050600073ffffffffffffffffffffffffffffffffffffffff168173ffffffffffffffffffffffffffffffffffffffff16036200013f5760006040517f1e4fbdf70000000000000000000000000000000000000000000000000000000081526004016200013691906200062c565b60405180910390fd5b62000150816200015860201b60201c565b505062000649565b6000600b60009054906101000a900473ffffffffffffffffffffffffffffffffffffffff16905081600b60006101000a81548173ffffffffffffffffffffffffffffffffffffffff021916908373ffffffffffffffffffffffffffffffffffffffff1602179055508173ffffffffffffffffffffffffffffffffffffffff168173ffffffffffffffffffffffffffffffffffffffff167f8be0079c531659141344cd1fd0a4f28419497f9722a3daafe3b4186f6b6457e060405160405180910390a35050565b600080fd5b600073ffffffffffffffffffffffffffffffffffffffff82169050919050565b6000620002508262000223565b9050919050565b620002628162000243565b81146200026e57600080fd5b50565b600081519050620002828162000257565b92915050565b600060208284031215620002a157620002a06200021e565b5b6000620002b18482850162000271565b91505092915050565b600081519050919050565b7f4e487b7100000000000000000000000000000000000000000000000000000000600052604160045260246000fd5b7f4e487b7100000000000000000000000000000000000000000000000000000000600052602260045260246000fd5b600060028204905060018216806200033c57607f821691505b602082108103620003525762000351620002f4565b5b50919050565b60008190508160005260206000209050919050565b60006020601f8301049050919050565b600082821b905092915050565b600060088302620003bc7fffffffffffffffffffffffffffffffffffffffffffffffffffffffffffffffff826200037d565b620003c886836200037d565b95508019841693508086168417925050509392505050565b6000819050919050565b6000819050919050565b6000620004156200040f6200040984620003e0565b620003ea565b620003e0565b9050919050565b6000819050919050565b6200043183620003f4565b6200044962000440826200041c565b8484546200038a565b825550505050565b600090565b6200046062000451565b6200046d81848462000426565b505050565b5b8181101562000495576200048960008262000456565b60018101905062000473565b5050565b601f821115620004e457620004ae8162000358565b620004b9846200036d565b81016020851015620004c9578190505b620004e1620004d8856200036d565b83018262000472565b50505b505050565b600082821c905092915050565b60006200050960001984600802620004e9565b1980831691505092915050565b6000620005248383620004f6565b9150826002028217905092915050565b6200053f82620002ba565b67ffffffffffffffff8111156200055b576200055a620002c5565b5b62000567825462000323565b6200057482828562000499565b600060209050601f831160018114620005ac576000841562000597578287015190505b620005a3858262000516565b86555062000613565b601f198416620005bc8662000358565b60005b82811015620005e657848901518255600182019150602085019450602081019050620005bf565b8683101562000606578489015162000602601f891682620004f6565b8355505b6001600288020188555050505b505050505050565b620006268162000243565b82525050565b60006020820190506200064360008301846200061b565b92915050565b612da380620006596000396000f3fe608060405234801561001057600080fd5b50600436106101375760003560e01c8063695850fb116100b8578063a22cb4651161007c578063a22cb4651461034e578063b88d4fde1461036a578063c87b56dd14610386578063caa0f92a146103b6578063e985e9c5146103d4578063f2fde38b1461040457610137565b8063695850fb146102bc57806370a08231146102d8578063715018a6146103085780638da5cb5b1461031257806395d89b411461033057610137565b806323b872dd116100ff57806323b872dd146101f45780632f745c591461021057806342842e0e146102405780634f6ccce71461025c5780636352211e1461028c57610137565b806301ffc9a71461013c57806306fdde031461016c578063081812fc1461018a578063095ea7b3146101ba57806318160ddd146101d6575b600080fd5b610156600480360381019061015191906121b9565b610420565b6040516101639190612201565b60405180910390f35b610174610432565b60405161018191906122ac565b60405180910390f35b6101a4600480360381019061019f9190612304565b6104c4565b6040516101b19190612372565b60405180910390f35b6101d460048036038101906101cf91906123b9565b6104e0565b005b6101de6104f6565b6040516101eb9190612408565b60405180910390f35b61020e60048036038101906102099190612423565b610503565b005b61022a600480360381019061022591906123b9565b610605565b6040516102379190612408565b60405180910390f35b61025a60048036038101906102559190612423565b6106ae565b005b61027660048036038101906102719190612304565b6106ce565b6040516102839190612408565b60405180910390f35b6102a660048036038101906102a19190612304565b610744565b6040516102b39190612372565b60405180910390f35b6102d660048036038101906102d191906124db565b610756565b005b6102f260048036038101906102ed9190612528565b6107d6565b6040516102ff9190612408565b60405180910390f35b610310610890565b005b61031a6108a4565b6040516103279190612372565b60405180910390f35b6103386108ce565b60405161034591906122ac565b60405180910390f35b61036860048036038101906103639190612581565b610960565b005b610384600480360381019061037f91906126f1565b610976565b005b6103a0600480360381019061039b9190612304565b610993565b6040516103ad91906122ac565b60405180910390f35b6103be6109a5565b6040516103cb9190612408565b60405180910390f35b6103ee60048036038101906103e99190612774565b6109af565b6040516103fb9190612201565b60405180910390f35b61041e60048036038101906104199190612528565b610a43565b005b600061042b82610ac9565b9050919050565b606060008054610441906127e3565b80601f016020809104026020016040519081016040528092919081815260200182805461046d906127e3565b80156104ba5780601f1061048f576101008083540402835291602001916104ba565b820191906000526020600020905b81548152906001019060200180831161049d57829003601f168201915b5050505050905090565b60006104cf82610b43565b506104d982610bcb565b9050919050565b6104f282826104ed610c08565b610c10565b5050565b6000600980549050905090565b600073ffffffffffffffffffffffffffffffffffffffff168273ffffffffffffffffffffffffffffffffffffffff16036105755760006040517f64a0ae9200000000000000000000000000000000000000000000000000000000815260040161056c9190612372565b60405180910390fd5b60006105898383610584610c08565b610c22565b90508373ffffffffffffffffffffffffffffffffffffffff168173ffffffffffffffffffffffffffffffffffffffff16146105ff578382826040517f64283d7b0000000000000000000000000000000000000000000000000000000081526004016105f693929190612814565b60405180910390fd5b50505050565b6000610610836107d6565b82106106555782826040517fa57d13dc00000000000000000000000000000000000000000000000000000000815260040161064c92919061284b565b60405180910390fd5b600760008473ffffffffffffffffffffffffffffffffffffffff1673ffffffffffffffffffffffffffffffffffffffff168152602001908152602001600020600083815260200190815260200160002054905092915050565b6106c983838360405180602001604052806000815250610976565b505050565b60006106d86104f6565b821061071e576000826040517fa57d13dc00000000000000000000000000000000000000000000000000000000815260040161071592919061284b565b60405180910390fd5b6009828154811061073257610731612874565b5b90600052602060002001549050919050565b600061074f82610b43565b9050919050565b61075e610c38565b6000600c6000815480929190610773906128d2565b9190505590506107833382610cbf565b6107d18184848080601f016020809104026020016040519081016040528093929190818152602001838380828437600081840152601f19601f82011690508083019250505050505050610cdd565b505050565b60008073ffffffffffffffffffffffffffffffffffffffff168273ffffffffffffffffffffffffffffffffffffffff16036108495760006040517f89c62b640000000000000000000000000000000000000000000000000000000081526004016108409190612372565b60405180910390fd5b600360008373ffffffffffffffffffffffffffffffffffffffff1673ffffffffffffffffffffffffffffffffffffffff168152602001908152602001600020549050919050565b610898610c38565b6108a26000610d39565b565b6000600b60009054906101000a900473ffffffffffffffffffffffffffffffffffffffff16905090565b6060600180546108dd906127e3565b80601f0160208091040260200160405190810160405280929190818152602001828054610909906127e3565b80156109565780601f1061092b57610100808354040283529160200191610956565b820191906000526020600020905b81548152906001019060200180831161093957829003601f168201915b5050505050905090565b61097261096b610c08565b8383610dff565b5050565b610981848484610503565b61098d84848484610f6e565b50505050565b606061099e82611125565b9050919050565b6000600c54905090565b6000600560008473ffffffffffffffffffffffffffffffffffffffff1673ffffffffffffffffffffffffffffffffffffffff16815260200190815260200160002060008373ffffffffffffffffffffffffffffffffffffffff1673ffffffffffffffffffffffffffffffffffffffff16815260200190815260200160002060009054906101000a900460ff16905092915050565b610a4b610c38565b600073ffffffffffffffffffffffffffffffffffffffff168173ffffffffffffffffffffffffffffffffffffffff1603610abd5760006040517f1e4fbdf7000000000000000000000000000000000000000000000000000000008152600401610ab49190612372565b60405180910390fd5b610ac681610d39565b50565b60007f780e9d63000000000000000000000000000000000000000000000000000000007bffffffffffffffffffffffffffffffffffffffffffffffffffffffff1916827bffffffffffffffffffffffffffffffffffffffffffffffffffffffff19161480610b3c5750610b3b82611238565b5b9050919050565b600080610b4f83611299565b9050600073ffffffffffffffffffffffffffffffffffffffff168173ffffffffffffffffffffffffffffffffffffffff1603610bc257826040517f7e273289000000000000000000000000000000000000000000000000000000008152600401610bb99190612408565b60405180910390fd5b80915050919050565b60006004600083815260200190815260200160002060009054906101000a900473ffffffffffffffffffffffffffffffffffffffff169050919050565b600033905090565b610c1d83838360016112d6565b505050565b6000610c2f84848461149b565b90509392505050565b610c40610c08565b73ffffffffffffffffffffffffffffffffffffffff16610c5e6108a4565b73ffffffffffffffffffffffffffffffffffffffff1614610cbd57610c81610c08565b6040517f118cdaa7000000000000000000000000000000000000000000000000000000008152600401610cb49190612372565b60405180910390fd5b565b610cd98282604051806020016040528060008152506115b8565b5050565b80600660008481526020019081526020016000209081610cfd9190612ac6565b507ff8e1a15aba9398e019f0b49df1a4fde98ee17ae345cb5f6b5e2c27f5033e8ce782604051610d2d9190612408565b60405180910390a15050565b6000600b60009054906101000a900473ffffffffffffffffffffffffffffffffffffffff16905081600b60006101000a81548173ffffffffffffffffffffffffffffffffffffffff021916908373ffffffffffffffffffffffffffffffffffffffff1602179055508173ffffffffffffffffffffffffffffffffffffffff168173ffffffffffffffffffffffffffffffffffffffff167f8be0079c531659141344cd1fd0a4f28419497f9722a3daafe3b4186f6b6457e060405160405180910390a35050565b600073ffffffffffffffffffffffffffffffffffffffff168273ffffffffffffffffffffffffffffffffffffffff1603610e7057816040517f5b08ba18000000000000000000000000000000000000000000000000000000008152600401610e679190612372565b60405180910390fd5b80600560008573ffffffffffffffffffffffffffffffffffffffff1673ffffffffffffffffffffffffffffffffffffffff16815260200190815260200160002060008473ffffffffffffffffffffffffffffffffffffffff1673ffffffffffffffffffffffffffffffffffffffff16815260200190815260200160002060006101000a81548160ff0219169083151502179055508173ffffffffffffffffffffffffffffffffffffffff168373ffffffffffffffffffffffffffffffffffffffff167f17307eab39ab6107e8899845ad3d59bd9653f200f220920489ca2b5937696c3183604051610f619190612201565b60405180910390a3505050565b60008373ffffffffffffffffffffffffffffffffffffffff163b111561111f578273ffffffffffffffffffffffffffffffffffffffff1663150b7a02610fb2610c08565b8685856040518563ffffffff1660e01b8152600401610fd49493929190612bed565b6020604051808303816000875af192505050801561101057506040513d601f19601f8201168201806040525081019061100d9190612c4e565b60015b611094573d8060008114611040576040519150601f19603f3d011682016040523d82523d6000602084013e611045565b606091505b50600081510361108c57836040517f64a0ae920000000000000000000000000000000000000000000000000000000081526004016110839190612372565b60405180910390fd5b805181602001fd5b63150b7a0260e01b7bffffffffffffffffffffffffffffffffffffffffffffffffffffffff1916817bffffffffffffffffffffffffffffffffffffffffffffffffffffffff19161461111d57836040517f64a0ae920000000000000000000000000000000000000000000000000000000081526004016111149190612372565b60405180910390fd5b505b50505050565b606061113082610b43565b506000600660008481526020019081526020016000208054611151906127e3565b80601f016020809104026020016040519081016040528092919081815260200182805461117d906127e3565b80156111ca5780601f1061119f576101008083540402835291602001916111ca565b820191906000526020600020905b8154815290600101906020018083116111ad57829003601f168201915b5050505050905060006111db6115d4565b905060008151036111f0578192505050611233565b60008251111561122557808260405160200161120d929190612cb7565b60405160208183030381529060405292505050611233565b61122e846115d9565b925050505b919050565b6000634906490660e01b7bffffffffffffffffffffffffffffffffffffffffffffffffffffffff1916827bffffffffffffffffffffffffffffffffffffffffffffffffffffffff19161480611292575061129182611642565b5b9050919050565b60006002600083815260200190815260200160002060009054906101000a900473ffffffffffffffffffffffffffffffffffffffff169050919050565b808061130f5750600073ffffffffffffffffffffffffffffffffffffffff168273ffffffffffffffffffffffffffffffffffffffff1614155b1561144357600061131f84610b43565b9050600073ffffffffffffffffffffffffffffffffffffffff168373ffffffffffffffffffffffffffffffffffffffff161415801561138a57508273ffffffffffffffffffffffffffffffffffffffff168173ffffffffffffffffffffffffffffffffffffffff1614155b801561139d575061139b81846109af565b155b156113df57826040517fa9fbf51f0000000000000000000000000000000000000000000000000000000081526004016113d69190612372565b60405180910390fd5b811561144157838573ffffffffffffffffffffffffffffffffffffffff168273ffffffffffffffffffffffffffffffffffffffff167f8c5be1e5ebec7d5bd14f71427d1e84f3dd0314c0f7b2291e5b200ac8c7c3b92560405160405180910390a45b505b836004600085815260200190815260200160002060006101000a81548173ffffffffffffffffffffffffffffffffffffffff021916908373ffffffffffffffffffffffffffffffffffffffff16021790555050505050565b6000806114a9858585611724565b9050600073ffffffffffffffffffffffffffffffffffffffff168173ffffffffffffffffffffffffffffffffffffffff16036114ed576114e88461193e565b61152c565b8473ffffffffffffffffffffffffffffffffffffffff168173ffffffffffffffffffffffffffffffffffffffff161461152b5761152a8185611987565b5b5b600073ffffffffffffffffffffffffffffffffffffffff168573ffffffffffffffffffffffffffffffffffffffff160361156e5761156984611ae8565b6115ad565b8473ffffffffffffffffffffffffffffffffffffffff168173ffffffffffffffffffffffffffffffffffffffff16146115ac576115ab8585611bb9565b5b5b809150509392505050565b6115c28383611c44565b6115cf6000848484610f6e565b505050565b606090565b60606115e482610b43565b5060006115ef6115d4565b9050600081511161160f576040518060200160405280600081525061163a565b8061161984611d3d565b60405160200161162a929190612cb7565b6040516020818303038152906040525b915050919050565b60007f80ac58cd000000000000000000000000000000000000000000000000000000007bffffffffffffffffffffffffffffffffffffffffffffffffffffffff1916827bffffffffffffffffffffffffffffffffffffffffffffffffffffffff1916148061170d57507f5b5e139f000000000000000000000000000000000000000000000000000000007bffffffffffffffffffffffffffffffffffffffffffffffffffffffff1916827bffffffffffffffffffffffffffffffffffffffffffffffffffffffff1916145b8061171d575061171c82611e0b565b5b9050919050565b60008061173084611299565b9050600073ffffffffffffffffffffffffffffffffffffffff168373ffffffffffffffffffffffffffffffffffffffff161461177257611771818486611e75565b5b600073ffffffffffffffffffffffffffffffffffffffff168173ffffffffffffffffffffffffffffffffffffffff1614611803576117b46000856000806112d6565b6001600360008373ffffffffffffffffffffffffffffffffffffffff1673ffffffffffffffffffffffffffffffffffffffff168152602001908152602001600020600082825403925050819055505b600073ffffffffffffffffffffffffffffffffffffffff168573ffffffffffffffffffffffffffffffffffffffff1614611886576001600360008773ffffffffffffffffffffffffffffffffffffffff1673ffffffffffffffffffffffffffffffffffffffff168152602001908152602001600020600082825401925050819055505b846002600086815260200190815260200160002060006101000a81548173ffffffffffffffffffffffffffffffffffffffff021916908373ffffffffffffffffffffffffffffffffffffffff160217905550838573ffffffffffffffffffffffffffffffffffffffff168273ffffffffffffffffffffffffffffffffffffffff167fddf252ad1be2c89b69c2b068fc378daa952ba7f163c4a11628f55a4df523b3ef60405160405180910390a4809150509392505050565b600980549050600a600083815260200190815260200160002081905550600981908060018154018082558091505060019003906000526020600020016000909190919091505550565b6000611992836107d6565b9050600060086000848152602001908152602001600020549050818114611a77576000600760008673ffffffffffffffffffffffffffffffffffffffff1673ffffffffffffffffffffffffffffffffffffffff168152602001908152602001600020600084815260200190815260200160002054905080600760008773ffffffffffffffffffffffffffffffffffffffff1673ffffffffffffffffffffffffffffffffffffffff168152602001908152602001600020600084815260200190815260200160002081905550816008600083815260200190815260200160002081905550505b6008600084815260200190815260200160002060009055600760008573ffffffffffffffffffffffffffffffffffffffff1673ffffffffffffffffffffffffffffffffffffffff16815260200190815260200160002060008381526020019081526020016000206000905550505050565b60006001600980549050611afc9190612cdb565b90506000600a6000848152602001908152602001600020549050600060098381548110611b2c57611b2b612874565b5b906000526020600020015490508060098381548110611b4e57611b4d612874565b5b906000526020600020018190555081600a600083815260200190815260200160002081905550600a6000858152602001908152602001600020600090556009805480611b9d57611b9c612d0f565b5b6001900381819060005260206000200160009055905550505050565b60006001611bc6846107d6565b611bd09190612cdb565b905081600760008573ffffffffffffffffffffffffffffffffffffffff1673ffffffffffffffffffffffffffffffffffffffff168152602001908152602001600020600083815260200190815260200160002081905550806008600084815260200190815260200160002081905550505050565b600073ffffffffffffffffffffffffffffffffffffffff168273ffffffffffffffffffffffffffffffffffffffff1603611cb65760006040517f64a0ae92000000000000000000000000000000000000000000000000000000008152600401611cad9190612372565b60405180910390fd5b6000611cc483836000610c22565b9050600073ffffffffffffffffffffffffffffffffffffffff168173ffffffffffffffffffffffffffffffffffffffff1614611d385760006040517f73c6ac6e000000000000000000000000000000000000000000000000000000008152600401611d2f9190612372565b60405180910390fd5b505050565b606060006001611d4c84611f39565b01905060008167ffffffffffffffff811115611d6b57611d6a6125c6565b5b6040519080825280601f01601f191660200182016040528015611d9d5781602001600182028036833780820191505090505b509050600082602001820190505b600115611e00578080600190039150507f3031323334353637383961626364656600000000000000000000000000000000600a86061a8153600a8581611df457611df3612d3e565b5b04945060008503611dab575b819350505050919050565b60007f01ffc9a7000000000000000000000000000000000000000000000000000000007bffffffffffffffffffffffffffffffffffffffffffffffffffffffff1916827bffffffffffffffffffffffffffffffffffffffffffffffffffffffff1916149050919050565b611e8083838361208c565b611f3457600073ffffffffffffffffffffffffffffffffffffffff168373ffffffffffffffffffffffffffffffffffffffff1603611ef557806040517f7e273289000000000000000000000000000000000000000000000000000000008152600401611eec9190612408565b60405180910390fd5b81816040517f177e802f000000000000000000000000000000000000000000000000000000008152600401611f2b92919061284b565b60405180910390fd5b505050565b600080600090507a184f03e93ff9f4daa797ed6e38ed64bf6a1f0100000000000000008310611f97577a184f03e93ff9f4daa797ed6e38ed64bf6a1f0100000000000000008381611f8d57611f8c612d3e565b5b0492506040810190505b6d04ee2d6d415b85acef81000000008310611fd4576d04ee2d6d415b85acef81000000008381611fca57611fc9612d3e565b5b0492506020810190505b662386f26fc10000831061200357662386f26fc100008381611ff957611ff8612d3e565b5b0492506010810190505b6305f5e100831061202c576305f5e100838161202257612021612d3e565b5b0492506008810190505b612710831061205157612710838161204757612046612d3e565b5b0492506004810190505b60648310612074576064838161206a57612069612d3e565b5b0492506002810190505b600a8310612083576001810190505b80915050919050565b60008073ffffffffffffffffffffffffffffffffffffffff168373ffffffffffffffffffffffffffffffffffffffff161415801561214457508273ffffffffffffffffffffffffffffffffffffffff168473ffffffffffffffffffffffffffffffffffffffff161480612105575061210484846109af565b5b8061214357508273ffffffffffffffffffffffffffffffffffffffff1661212b83610bcb565b73ffffffffffffffffffffffffffffffffffffffff16145b5b90509392505050565b6000604051905090565b600080fd5b600080fd5b60007fffffffff0000000000000000000000000000000000000000000000000000000082169050919050565b61219681612161565b81146121a157600080fd5b50565b6000813590506121b38161218d565b92915050565b6000602082840312156121cf576121ce612157565b5b60006121dd848285016121a4565b91505092915050565b60008115159050919050565b6121fb816121e6565b82525050565b600060208201905061221660008301846121f2565b92915050565b600081519050919050565b600082825260208201905092915050565b60005b8381101561225657808201518184015260208101905061223b565b60008484015250505050565b6000601f19601f8301169050919050565b600061227e8261221c565b6122888185612227565b9350612298818560208601612238565b6122a181612262565b840191505092915050565b600060208201905081810360008301526122c68184612273565b905092915050565b6000819050919050565b6122e1816122ce565b81146122ec57600080fd5b50565b6000813590506122fe816122d8565b92915050565b60006020828403121561231a57612319612157565b5b6000612328848285016122ef565b91505092915050565b600073ffffffffffffffffffffffffffffffffffffffff82169050919050565b600061235c82612331565b9050919050565b61236c81612351565b82525050565b60006020820190506123876000830184612363565b92915050565b61239681612351565b81146123a157600080fd5b50565b6000813590506123b38161238d565b92915050565b600080604083850312156123d0576123cf612157565b5b60006123de858286016123a4565b92505060206123ef858286016122ef565b9150509250929050565b612402816122ce565b82525050565b600060208201905061241d60008301846123f9565b92915050565b60008060006060848603121561243c5761243b612157565b5b600061244a868287016123a4565b935050602061245b868287016123a4565b925050604061246c868287016122ef565b9150509250925092565b600080fd5b600080fd5b600080fd5b60008083601f84011261249b5761249a612476565b5b8235905067ffffffffffffffff8111156124b8576124b761247b565b5b6020830191508360018202830111156124d4576124d3612480565b5b9250929050565b600080602083850312156124f2576124f1612157565b5b600083013567ffffffffffffffff8111156125105761250f61215c565b5b61251c85828601612485565b92509250509250929050565b60006020828403121561253e5761253d612157565b5b600061254c848285016123a4565b91505092915050565b61255e816121e6565b811461256957600080fd5b50565b60008135905061257b81612555565b92915050565b6000806040838503121561259857612597612157565b5b60006125a6858286016123a4565b92505060206125b78582860161256c565b9150509250929050565b600080fd5b7f4e487b7100000000000000000000000000000000000000000000000000000000600052604160045260246000fd5b6125fe82612262565b810181811067ffffffffffffffff8211171561261d5761261c6125c6565b5b80604052505050565b600061263061214d565b905061263c82826125f5565b919050565b600067ffffffffffffffff82111561265c5761265b6125c6565b5b61266582612262565b9050602081019050919050565b82818337600083830152505050565b600061269461268f84612641565b612626565b9050828152602081018484840111156126b0576126af6125c1565b5b6126bb848285612672565b509392505050565b600082601f8301126126d8576126d7612476565b5b81356126e8848260208601612681565b91505092915050565b6000806000806080858703121561270b5761270a612157565b5b6000612719878288016123a4565b945050602061272a878288016123a4565b935050604061273b878288016122ef565b925050606085013567ffffffffffffffff81111561275c5761275b61215c565b5b612768878288016126c3565b91505092959194509250565b6000806040838503121561278b5761278a612157565b5b6000612799858286016123a4565b92505060206127aa858286016123a4565b9150509250929050565b7f4e487b7100000000000000000000000000000000000000000000000000000000600052602260045260246000fd5b600060028204905060018216806127fb57607f821691505b60208210810361280e5761280d6127b4565b5b50919050565b60006060820190506128296000830186612363565b61283660208301856123f9565b6128436040830184612363565b949350505050565b60006040820190506128606000830185612363565b61286d60208301846123f9565b9392505050565b7f4e487b7100000000000000000000000000000000000000000000000000000000600052603260045260246000fd5b7f4e487b7100000000000000000000000000000000000000000000000000000000600052601160045260246000fd5b60006128dd826122ce565b91507fffffffffffffffffffffffffffffffffffffffffffffffffffffffffffffffff820361290f5761290e6128a3565b5b600182019050919050565b60008190508160005260206000209050919050565b60006020601f8301049050919050565b600082821b905092915050565b60006008830261297c7fffffffffffffffffffffffffffffffffffffffffffffffffffffffffffffffff8261293f565b612986868361293f565b95508019841693508086168417925050509392505050565b6000819050919050565b60006129c36129be6129b9846122ce565b61299e565b6122ce565b9050919050565b6000819050919050565b6129dd836129a8565b6129f16129e9826129ca565b84845461294c565b825550505050565b600090565b612a066129f9565b612a118184846129d4565b505050565b5b81811015612a3557612a2a6000826129fe565b600181019050612a17565b5050565b601f821115612a7a57612a4b8161291a565b612a548461292f565b81016020851015612a63578190505b612a77612a6f8561292f565b830182612a16565b50505b505050565b600082821c905092915050565b6000612a9d60001984600802612a7f565b1980831691505092915050565b6000612ab68383612a8c565b9150826002028217905092915050565b612acf8261221c565b67ffffffffffffffff811115612ae857612ae76125c6565b5b612af282546127e3565b612afd828285612a39565b600060209050601f831160018114612b305760008415612b1e578287015190505b612b288582612aaa565b865550612b90565b601f198416612b3e8661291a565b60005b82811015612b6657848901518255600182019150602085019450602081019050612b41565b86831015612b835784890151612b7f601f891682612a8c565b8355505b6001600288020188555050505b505050505050565b600081519050919050565b600082825260208201905092915050565b6000612bbf82612b98565b612bc98185612ba3565b9350612bd9818560208601612238565b612be281612262565b840191505092915050565b6000608082019050612c026000830187612363565b612c0f6020830186612363565b612c1c60408301856123f9565b8181036060830152612c2e8184612bb4565b905095945050505050565b600081519050612c488161218d565b92915050565b600060208284031215612c6457612c63612157565b5b6000612c7284828501612c39565b91505092915050565b600081905092915050565b6000612c918261221c565b612c9b8185612c7b565b9350612cab818560208601612238565b80840191505092915050565b6000612cc38285612c86565b9150612ccf8284612c86565b91508190509392505050565b6000612ce6826122ce565b9150612cf1836122ce565b9250828203905081811115612d0957612d086128a3565b5b92915050565b7f4e487b7100000000000000000000000000000000000000000000000000000000600052603160045260246000fd5b7f4e487b7100000000000000000000000000000000000000000000000000000000600052601260045260246000fdfea2646970667358221220558f36ff2f2ef395dd59ea48f76181020e76d78f83c2bccc03bbac0c74a0a9f864736f6c63430008180033",
  "linkReferences": {},
  "deployedLinkReferences": {}
}