{
  "_format": "hh-sol-artifact-1",
  "contractName": "NFTM",
  "sourceName": "src/backend/contracts/NFTM.sol",
  "abi": [
    {
      "inputs": [
        {
          "internalType": "address",
          "name": "initialOwner",
          "type": "address"
        }
      ],
      "stateMutability": "nonpayable",
      "type": "constructor"
    },
    {
      "inputs": [],
      "name": "ERC721EnumerableForbiddenBatchMint",
      "type": "error"
    },
    {
      "inputs": [
        {
          "internalType": "address",
          "name": "sender",
          "type": "address"
        },
        {
          "internalType": "uint256",
          "name": "tokenId",
          "type": "uint256"
        },
        {
          "internalType": "address",
          "name": "owner",
          "type": "address"
        }
      ],
      "name": "ERC721IncorrectOwner",
      "type": "error"
    },
    {
      "inputs": [
        {
          "internalType": "address",
          "name": "operator",
          "type": "address"
        },
        {
          "internalType": "uint256",
          "name": "tokenId",
          "type": "uint256"
        }
      ],
      "name": "ERC721InsufficientApproval",
      "type": "error"
    },
    {
      "inputs": [
        {
          "internalType": "address",
          "name": "approver",
          "type": "address"
        }
      ],
      "name": "ERC721InvalidApprover",
      "type": "error"
    },
    {
      "inputs": [
        {
          "internalType": "address",
          "name": "operator",
          "type": "address"
        }
      ],
      "name": "ERC721InvalidOperator",
      "type": "error"
    },
    {
      "inputs": [
        {
          "internalType": "address",
          "name": "owner",
          "type": "address"
        }
      ],
      "name": "ERC721InvalidOwner",
      "type": "error"
    },
    {
      "inputs": [
        {
          "internalType": "address",
          "name": "receiver",
          "type": "address"
        }
      ],
      "name": "ERC721InvalidReceiver",
      "type": "error"
    },
    {
      "inputs": [
        {
          "internalType": "address",
          "name": "sender",
          "type": "address"
        }
      ],
      "name": "ERC721InvalidSender",
      "type": "error"
    },
    {
      "inputs": [
        {
          "internalType": "uint256",
          "name": "tokenId",
          "type": "uint256"
        }
      ],
      "name": "ERC721NonexistentToken",
      "type": "error"
    },
    {
      "inputs": [
        {
          "internalType": "address",
          "name": "owner",
          "type": "address"
        },
        {
          "internalType": "uint256",
          "name": "index",
          "type": "uint256"
        }
      ],
      "name": "ERC721OutOfBoundsIndex",
      "type": "error"
    },
    {
      "inputs": [
        {
          "internalType": "address",
          "name": "owner",
          "type": "address"
        }
      ],
      "name": "OwnableInvalidOwner",
      "type": "error"
    },
    {
      "inputs": [
        {
          "internalType": "address",
          "name": "account",
          "type": "address"
        }
      ],
      "name": "OwnableUnauthorizedAccount",
      "type": "error"
    },
    {
      "anonymous": false,
      "inputs": [
        {
          "indexed": true,
          "internalType": "address",
          "name": "owner",
          "type": "address"
        },
        {
          "indexed": true,
          "internalType": "address",
          "name": "approved",
          "type": "address"
        },
        {
          "indexed": true,
          "internalType": "uint256",
          "name": "tokenId",
          "type": "uint256"
        }
      ],
      "name": "Approval",
      "type": "event"
    },
    {
      "anonymous": false,
      "inputs": [
        {
          "indexed": true,
          "internalType": "address",
          "name": "owner",
          "type": "address"
        },
        {
          "indexed": true,
          "internalType": "address",
          "name": "operator",
          "type": "address"
        },
        {
          "indexed": false,
          "internalType": "bool",
          "name": "approved",
          "type": "bool"
        }
      ],
      "name": "ApprovalForAll",
      "type": "event"
    },
    {
      "anonymous": false,
      "inputs": [
        {
          "indexed": false,
          "internalType": "uint256",
          "name": "_fromTokenId",
          "type": "uint256"
        },
        {
          "indexed": false,
          "internalType": "uint256",
          "name": "_toTokenId",
          "type": "uint256"
        }
      ],
      "name": "BatchMetadataUpdate",
      "type": "event"
    },
    {
      "anonymous": false,
      "inputs": [
        {
          "indexed": false,
          "internalType": "uint256",
          "name": "_tokenId",
          "type": "uint256"
        }
      ],
      "name": "MetadataUpdate",
      "type": "event"
    },
    {
      "anonymous": false,
      "inputs": [
        {
          "indexed": true,
          "internalType": "address",
          "name": "previousOwner",
          "type": "address"
        },
        {
          "indexed": true,
          "internalType": "address",
          "name": "newOwner",
          "type": "address"
        }
      ],
      "name": "OwnershipTransferred",
      "type": "event"
    },
    {
      "anonymous": false,
      "inputs": [
        {
          "indexed": true,
          "internalType": "address",
          "name": "from",
          "type": "address"
        },
        {
          "indexed": true,
          "internalType": "address",
          "name": "to",
          "type": "address"
        },
        {
          "indexed": true,
          "internalType": "uint256",
          "name": "tokenId",
          "type": "uint256"
        }
      ],
      "name": "Transfer",
      "type": "event"
    },
    {
      "inputs": [
        {
          "internalType": "address",
          "name": "to",
          "type": "address"
        },
        {
          "internalType": "uint256",
          "name": "tokenId",
          "type": "uint256"
        }
      ],
      "name": "approve",
      "outputs": [],
      "stateMutability": "nonpayable",
      "type": "function"
    },
    {
      "inputs": [
        {
          "internalType": "address",
          "name": "owner",
          "type": "address"
        }
      ],
      "name": "balanceOf",
      "outputs": [
        {
          "internalType": "uint256",
          "name": "",
          "type": "uint256"
        }
      ],
      "stateMutability": "view",
      "type": "function"
    },
    {
      "inputs": [
        {
          "internalType": "uint256",
          "name": "tokenId",
          "type": "uint256"
        }
      ],
      "name": "getApproved",
      "outputs": [
        {
          "internalType": "address",
          "name": "",
          "type": "address"
        }
      ],
      "stateMutability": "view",
      "type": "function"
    },
    {
      "inputs": [],
      "name": "getNextTokenId",
      "outputs": [
        {
          "internalType": "uint256",
          "name": "",
          "type": "uint256"
        }
      ],
      "stateMutability": "view",
      "type": "function"
    },
    {
      "inputs": [
        {
          "internalType": "address",
          "name": "owner",
          "type": "address"
        },
        {
          "internalType": "address",
          "name": "operator",
          "type": "address"
        }
      ],
      "name": "isApprovedForAll",
      "outputs": [
        {
          "internalType": "bool",
          "name": "",
          "type": "bool"
        }
      ],
      "stateMutability": "view",
      "type": "function"
    },
    {
      "inputs": [],
      "name": "name",
      "outputs": [
        {
          "internalType": "string",
          "name": "",
          "type": "string"
        }
      ],
      "stateMutability": "view",
      "type": "function"
    },
    {
      "inputs": [],
      "name": "owner",
      "outputs": [
        {
          "internalType": "address",
          "name": "",
          "type": "address"
        }
      ],
      "stateMutability": "view",
      "type": "function"
    },
    {
      "inputs": [
        {
          "internalType": "uint256",
          "name": "tokenId",
          "type": "uint256"
        }
      ],
      "name": "ownerOf",
      "outputs": [
        {
          "internalType": "address",
          "name": "",
          "type": "address"
        }
      ],
      "stateMutability": "view",
      "type": "function"
    },
    {
      "inputs": [],
      "name": "renounceOwnership",
      "outputs": [],
      "stateMutability": "nonpayable",
      "type": "function"
    },
    {
      "inputs": [
        {
          "internalType": "string",
          "name": "tokenURIs",
          "type": "string"
        }
      ],
      "name": "safeMint",
      "outputs": [],
      "stateMutability": "nonpayable",
      "type": "function"
    },
    {
      "inputs": [
        {
          "internalType": "address",
          "name": "from",
          "type": "address"
        },
        {
          "internalType": "address",
          "name": "to",
          "type": "address"
        },
        {
          "internalType": "uint256",
          "name": "tokenId",
          "type": "uint256"
        }
      ],
      "name": "safeTransferFrom",
      "outputs": [],
      "stateMutability": "nonpayable",
      "type": "function"
    },
    {
      "inputs": [
        {
          "internalType": "address",
          "name": "from",
          "type": "address"
        },
        {
          "internalType": "address",
          "name": "to",
          "type": "address"
        },
        {
          "internalType": "uint256",
          "name": "tokenId",
          "type": "uint256"
        },
        {
          "internalType": "bytes",
          "name": "data",
          "type": "bytes"
        }
      ],
      "name": "safeTransferFrom",
      "outputs": [],
      "stateMutability": "nonpayable",
      "type": "function"
    },
    {
      "inputs": [
        {
          "internalType": "address",
          "name": "operator",
          "type": "address"
        },
        {
          "internalType": "bool",
          "name": "approved",
          "type": "bool"
        }
      ],
      "name": "setApprovalForAll",
      "outputs": [],
      "stateMutability": "nonpayable",
      "type": "function"
    },
    {
      "inputs": [
        {
          "internalType": "bytes4",
          "name": "interfaceId",
          "type": "bytes4"
        }
      ],
      "name": "supportsInterface",
      "outputs": [
        {
          "internalType": "bool",
          "name": "",
          "type": "bool"
        }
      ],
      "stateMutability": "view",
      "type": "function"
    },
    {
      "inputs": [],
      "name": "symbol",
      "outputs": [
        {
          "internalType": "string",
          "name": "",
          "type": "string"
        }
      ],
      "stateMutability": "view",
      "type": "function"
    },
    {
      "inputs": [
        {
          "internalType": "uint256",
          "name": "index",
          "type": "uint256"
        }
      ],
      "name": "tokenByIndex",
      "outputs": [
        {
          "internalType": "uint256",
          "name": "",
          "type": "uint256"
        }
      ],
      "stateMutability": "view",
      "type": "function"
    },
    {
      "inputs": [
        {
          "internalType": "address",
          "name": "owner",
          "type": "address"
        },
        {
          "internalType": "uint256",
          "name": "index",
          "type": "uint256"
        }
      ],
      "name": "tokenOfOwnerByIndex",
      "outputs": [
        {
          "internalType": "uint256",
          "name": "",
          "type": "uint256"
        }
      ],
      "stateMutability": "view",
      "type": "function"
    },
    {
      "inputs": [
        {
          "internalType": "uint256",
          "name": "tokenId",
          "type": "uint256"
        }
      ],
      "name": "tokenURI",
      "outputs": [
        {
          "internalType": "string",
          "name": "",
          "type": "string"
        }
      ],
      "stateMutability": "view",
      "type": "function"
    },
    {
      "inputs": [],
      "name": "totalSupply",
      "outputs": [
        {
          "internalType": "uint256",
          "name": "",
          "type": "uint256"
        }
      ],
      "stateMutability": "view",
      "type": "function"
    },
    {
      "inputs": [
        {
          "internalType": "address",
          "name": "from",
          "type": "address"
        },
        {
          "internalType": "address",
          "name": "to",
          "type": "address"
        },
        {
          "internalType": "uint256",
          "name": "tokenId",
          "type": "uint256"
        }
      ],
      "name": "transferFrom",
      "outputs": [],
      "stateMutability": "nonpayable",
      "type": "function"
    },
    {
      "inputs": [
        {
          "internalType": "address",
          "name": "newOwner",
          "type": "address"
        }
      ],
      "name": "transferOwnership",
      "outputs": [],
      "stateMutability": "nonpayable",
      "type": "function"
    }
  ],
  "bytecode": "0x60806040523480156200001157600080fd5b506040516200343438038062003434833981810160405281019062000037919062000288565b806040518060400160405280600b81526020017f6c696e27732065726332310000000000000000000000000000000000000000008152506040518060400160405280600981526020017f5361644d6f6e6b657900000000000000000000000000000000000000000000008152508160009081620000b5919062000534565b508060019081620000c7919062000534565b505050600073ffffffffffffffffffffffffffffffffffffffff168173ffffffffffffffffffffffffffffffffffffffff16036200013f5760006040517f1e4fbdf70000000000000000000000000000000000000000000000000000000081526004016200013691906200062c565b60405180910390fd5b62000150816200015860201b60201c565b505062000649565b6000600b60009054906101000a900473ffffffffffffffffffffffffffffffffffffffff16905081600b60006101000a81548173ffffffffffffffffffffffffffffffffffffffff021916908373ffffffffffffffffffffffffffffffffffffffff1602179055508173ffffffffffffffffffffffffffffffffffffffff168173ffffffffffffffffffffffffffffffffffffffff167f8be0079c531659141344cd1fd0a4f28419497f9722a3daafe3b4186f6b6457e060405160405180910390a35050565b600080fd5b600073ffffffffffffffffffffffffffffffffffffffff82169050919050565b6000620002508262000223565b9050919050565b620002628162000243565b81146200026e57600080fd5b50565b600081519050620002828162000257565b92915050565b600060208284031215620002a157620002a06200021e565b5b6000620002b18482850162000271565b91505092915050565b600081519050919050565b7f4e487b7100000000000000000000000000000000000000000000000000000000600052604160045260246000fd5b7f4e487b7100000000000000000000000000000000000000000000000000000000600052602260045260246000fd5b600060028204905060018216806200033c57607f821691505b602082108103620003525762000351620002f4565b5b50919050565b60008190508160005260206000209050919050565b60006020601f8301049050919050565b600082821b905092915050565b600060088302620003bc7fffffffffffffffffffffffffffffffffffffffffffffffffffffffffffffffff826200037d565b620003c886836200037d565b95508019841693508086168417925050509392505050565b6000819050919050565b6000819050919050565b6000620004156200040f6200040984620003e0565b620003ea565b620003e0565b9050919050565b6000819050919050565b6200043183620003f4565b6200044962000440826200041c565b8484546200038a565b825550505050565b600090565b6200046062000451565b6200046d81848462000426565b505050565b5b8181101562000495576200048960008262000456565b60018101905062000473565b5050565b601f821115620004e457620004ae8162000358565b620004b9846200036d565b81016020851015620004c9578190505b620004e1620004d8856200036d565b83018262000472565b50505b505050565b600082821c905092915050565b60006200050960001984600802620004e9565b1980831691505092915050565b6000620005248383620004f6565b9150826002028217905092915050565b6200053f82620002ba565b67ffffffffffffffff8111156200055b576200055a620002c5565b5b62000567825462000323565b6200057482828562000499565b600060209050601f831160018114620005ac576000841562000597578287015190505b620005a3858262000516565b86555062000613565b601f198416620005bc8662000358565b60005b82811015620005e657848901518255600182019150602085019450602081019050620005bf565b8683101562000606578489015162000602601f891682620004f6565b8355505b6001600288020188555050505b505050505050565b620006268162000243565b82525050565b60006020820190506200064360008301846200061b565b92915050565b612ddb80620006596000396000f3fe608060405234801561001057600080fd5b50600436106101375760003560e01c8063695850fb116100b8578063a22cb4651161007c578063a22cb4651461034e578063b88d4fde1461036a578063c87b56dd14610386578063caa0f92a146103b6578063e985e9c5146103d4578063f2fde38b1461040457610137565b8063695850fb146102bc57806370a08231146102d8578063715018a6146103085780638da5cb5b1461031257806395d89b411461033057610137565b806323b872dd116100ff57806323b872dd146101f45780632f745c591461021057806342842e0e146102405780634f6ccce71461025c5780636352211e1461028c57610137565b806301ffc9a71461013c57806306fdde031461016c578063081812fc1461018a578063095ea7b3146101ba57806318160ddd146101d6575b600080fd5b610156600480360381019061015191906121f1565b610420565b6040516101639190612239565b60405180910390f35b610174610432565b60405161018191906122e4565b60405180910390f35b6101a4600480360381019061019f919061233c565b6104c4565b6040516101b191906123aa565b60405180910390f35b6101d460048036038101906101cf91906123f1565b6104e0565b005b6101de6104f6565b6040516101eb9190612440565b60405180910390f35b61020e6004803603810190610209919061245b565b610503565b005b61022a600480360381019061022591906123f1565b610605565b6040516102379190612440565b60405180910390f35b61025a6004803603810190610255919061245b565b6106ae565b005b6102766004803603810190610271919061233c565b6106ce565b6040516102839190612440565b60405180910390f35b6102a660048036038101906102a1919061233c565b610744565b6040516102b391906123aa565b60405180910390f35b6102d660048036038101906102d19190612513565b610756565b005b6102f260048036038101906102ed9190612560565b6107d6565b6040516102ff9190612440565b60405180910390f35b610310610890565b005b61031a6108a4565b60405161032791906123aa565b60405180910390f35b6103386108ce565b60405161034591906122e4565b60405180910390f35b610368600480360381019061036391906125b9565b610960565b005b610384600480360381019061037f9190612729565b610976565b005b6103a0600480360381019061039b919061233c565b610993565b6040516103ad91906122e4565b60405180910390f35b6103be6109a5565b6040516103cb9190612440565b60405180910390f35b6103ee60048036038101906103e991906127ac565b6109af565b6040516103fb9190612239565b60405180910390f35b61041e60048036038101906104199190612560565b610a43565b005b600061042b82610ac9565b9050919050565b6060600080546104419061281b565b80601f016020809104026020016040519081016040528092919081815260200182805461046d9061281b565b80156104ba5780601f1061048f576101008083540402835291602001916104ba565b820191906000526020600020905b81548152906001019060200180831161049d57829003601f168201915b5050505050905090565b60006104cf82610b43565b506104d982610bcb565b9050919050565b6104f282826104ed610c08565b610c10565b5050565b6000600980549050905090565b600073ffffffffffffffffffffffffffffffffffffffff168273ffffffffffffffffffffffffffffffffffffffff16036105755760006040517f64a0ae9200000000000000000000000000000000000000000000000000000000815260040161056c91906123aa565b60405180910390fd5b60006105898383610584610c08565b610c22565b90508373ffffffffffffffffffffffffffffffffffffffff168173ffffffffffffffffffffffffffffffffffffffff16146105ff578382826040517f64283d7b0000000000000000000000000000000000000000000000000000000081526004016105f69392919061284c565b60405180910390fd5b50505050565b6000610610836107d6565b82106106555782826040517fa57d13dc00000000000000000000000000000000000000000000000000000000815260040161064c929190612883565b60405180910390fd5b600760008473ffffffffffffffffffffffffffffffffffffffff1673ffffffffffffffffffffffffffffffffffffffff168152602001908152602001600020600083815260200190815260200160002054905092915050565b6106c983838360405180602001604052806000815250610976565b505050565b60006106d86104f6565b821061071e576000826040517fa57d13dc000000000000000000000000000000000000000000000000000000008152600401610715929190612883565b60405180910390fd5b60098281548110610732576107316128ac565b5b90600052602060002001549050919050565b600061074f82610b43565b9050919050565b61075e610c38565b6000600c60008154809291906107739061290a565b9190505590506107833382610cbf565b6107d18184848080601f016020809104026020016040519081016040528093929190818152602001838380828437600081840152601f19601f82011690508083019250505050505050610cdd565b505050565b60008073ffffffffffffffffffffffffffffffffffffffff168273ffffffffffffffffffffffffffffffffffffffff16036108495760006040517f89c62b6400000000000000000000000000000000000000000000000000000000815260040161084091906123aa565b60405180910390fd5b600360008373ffffffffffffffffffffffffffffffffffffffff1673ffffffffffffffffffffffffffffffffffffffff168152602001908152602001600020549050919050565b610898610c38565b6108a26000610d39565b565b6000600b60009054906101000a900473ffffffffffffffffffffffffffffffffffffffff16905090565b6060600180546108dd9061281b565b80601f01602080910402602001604051908101604052809291908181526020018280546109099061281b565b80156109565780601f1061092b57610100808354040283529160200191610956565b820191906000526020600020905b81548152906001019060200180831161093957829003601f168201915b5050505050905090565b61097261096b610c08565b8383610dff565b5050565b610981848484610503565b61098d84848484610f6e565b50505050565b606061099e82611125565b9050919050565b6000600c54905090565b6000600560008473ffffffffffffffffffffffffffffffffffffffff1673ffffffffffffffffffffffffffffffffffffffff16815260200190815260200160002060008373ffffffffffffffffffffffffffffffffffffffff1673ffffffffffffffffffffffffffffffffffffffff16815260200190815260200160002060009054906101000a900460ff16905092915050565b610a4b610c38565b600073ffffffffffffffffffffffffffffffffffffffff168173ffffffffffffffffffffffffffffffffffffffff1603610abd5760006040517f1e4fbdf7000000000000000000000000000000000000000000000000000000008152600401610ab491906123aa565b60405180910390fd5b610ac681610d39565b50565b60007f780e9d63000000000000000000000000000000000000000000000000000000007bffffffffffffffffffffffffffffffffffffffffffffffffffffffff1916827bffffffffffffffffffffffffffffffffffffffffffffffffffffffff19161480610b3c5750610b3b82611238565b5b9050919050565b600080610b4f83611299565b9050600073ffffffffffffffffffffffffffffffffffffffff168173ffffffffffffffffffffffffffffffffffffffff1603610bc257826040517f7e273289000000000000000000000000000000000000000000000000000000008152600401610bb99190612440565b60405180910390fd5b80915050919050565b60006004600083815260200190815260200160002060009054906101000a900473ffffffffffffffffffffffffffffffffffffffff169050919050565b600033905090565b610c1d83838360016112d6565b505050565b6000610c2f84848461149b565b90509392505050565b610c40610c08565b73ffffffffffffffffffffffffffffffffffffffff16610c5e6108a4565b73ffffffffffffffffffffffffffffffffffffffff1614610cbd57610c81610c08565b6040517f118cdaa7000000000000000000000000000000000000000000000000000000008152600401610cb491906123aa565b60405180910390fd5b565b610cd98282604051806020016040528060008152506115b8565b5050565b80600660008481526020019081526020016000209081610cfd9190612afe565b507ff8e1a15aba9398e019f0b49df1a4fde98ee17ae345cb5f6b5e2c27f5033e8ce782604051610d2d9190612440565b60405180910390a15050565b6000600b60009054906101000a900473ffffffffffffffffffffffffffffffffffffffff16905081600b60006101000a81548173ffffffffffffffffffffffffffffffffffffffff021916908373ffffffffffffffffffffffffffffffffffffffff1602179055508173ffffffffffffffffffffffffffffffffffffffff168173ffffffffffffffffffffffffffffffffffffffff167f8be0079c531659141344cd1fd0a4f28419497f9722a3daafe3b4186f6b6457e060405160405180910390a35050565b600073ffffffffffffffffffffffffffffffffffffffff168273ffffffffffffffffffffffffffffffffffffffff1603610e7057816040517f5b08ba18000000000000000000000000000000000000000000000000000000008152600401610e6791906123aa565b60405180910390fd5b80600560008573ffffffffffffffffffffffffffffffffffffffff1673ffffffffffffffffffffffffffffffffffffffff16815260200190815260200160002060008473ffffffffffffffffffffffffffffffffffffffff1673ffffffffffffffffffffffffffffffffffffffff16815260200190815260200160002060006101000a81548160ff0219169083151502179055508173ffffffffffffffffffffffffffffffffffffffff168373ffffffffffffffffffffffffffffffffffffffff167f17307eab39ab6107e8899845ad3d59bd9653f200f220920489ca2b5937696c3183604051610f619190612239565b60405180910390a3505050565b60008373ffffffffffffffffffffffffffffffffffffffff163b111561111f578273ffffffffffffffffffffffffffffffffffffffff1663150b7a02610fb2610c08565b8685856040518563ffffffff1660e01b8152600401610fd49493929190612c25565b6020604051808303816000875af192505050801561101057506040513d601f19601f8201168201806040525081019061100d9190612c86565b60015b611094573d8060008114611040576040519150601f19603f3d011682016040523d82523d6000602084013e611045565b606091505b50600081510361108c57836040517f64a0ae9200000000000000000000000000000000000000000000000000000000815260040161108391906123aa565b60405180910390fd5b805181602001fd5b63150b7a0260e01b7bffffffffffffffffffffffffffffffffffffffffffffffffffffffff1916817bffffffffffffffffffffffffffffffffffffffffffffffffffffffff19161461111d57836040517f64a0ae9200000000000000000000000000000000000000000000000000000000815260040161111491906123aa565b60405180910390fd5b505b50505050565b606061113082610b43565b5060006006600084815260200190815260200160002080546111519061281b565b80601f016020809104026020016040519081016040528092919081815260200182805461117d9061281b565b80156111ca5780601f1061119f576101008083540402835291602001916111ca565b820191906000526020600020905b8154815290600101906020018083116111ad57829003601f168201915b5050505050905060006111db6115d4565b905060008151036111f0578192505050611233565b60008251111561122557808260405160200161120d929190612cef565b60405160208183030381529060405292505050611233565b61122e84611611565b925050505b919050565b6000634906490660e01b7bffffffffffffffffffffffffffffffffffffffffffffffffffffffff1916827bffffffffffffffffffffffffffffffffffffffffffffffffffffffff1916148061129257506112918261167a565b5b9050919050565b60006002600083815260200190815260200160002060009054906101000a900473ffffffffffffffffffffffffffffffffffffffff169050919050565b808061130f5750600073ffffffffffffffffffffffffffffffffffffffff168273ffffffffffffffffffffffffffffffffffffffff1614155b1561144357600061131f84610b43565b9050600073ffffffffffffffffffffffffffffffffffffffff168373ffffffffffffffffffffffffffffffffffffffff161415801561138a57508273ffffffffffffffffffffffffffffffffffffffff168173ffffffffffffffffffffffffffffffffffffffff1614155b801561139d575061139b81846109af565b155b156113df57826040517fa9fbf51f0000000000000000000000000000000000000000000000000000000081526004016113d691906123aa565b60405180910390fd5b811561144157838573ffffffffffffffffffffffffffffffffffffffff168273ffffffffffffffffffffffffffffffffffffffff167f8c5be1e5ebec7d5bd14f71427d1e84f3dd0314c0f7b2291e5b200ac8c7c3b92560405160405180910390a45b505b836004600085815260200190815260200160002060006101000a81548173ffffffffffffffffffffffffffffffffffffffff021916908373ffffffffffffffffffffffffffffffffffffffff16021790555050505050565b6000806114a985858561175c565b9050600073ffffffffffffffffffffffffffffffffffffffff168173ffffffffffffffffffffffffffffffffffffffff16036114ed576114e884611976565b61152c565b8473ffffffffffffffffffffffffffffffffffffffff168173ffffffffffffffffffffffffffffffffffffffff161461152b5761152a81856119bf565b5b5b600073ffffffffffffffffffffffffffffffffffffffff168573ffffffffffffffffffffffffffffffffffffffff160361156e5761156984611b20565b6115ad565b8473ffffffffffffffffffffffffffffffffffffffff168173ffffffffffffffffffffffffffffffffffffffff16146115ac576115ab8585611bf1565b5b5b809150509392505050565b6115c28383611c7c565b6115cf6000848484610f6e565b505050565b60606040518060400160405280600c81526020017f687474703a2f2f694c696e2f0000000000000000000000000000000000000000815250905090565b606061161c82610b43565b5060006116276115d4565b905060008151116116475760405180602001604052806000815250611672565b8061165184611d75565b604051602001611662929190612cef565b6040516020818303038152906040525b915050919050565b60007f80ac58cd000000000000000000000000000000000000000000000000000000007bffffffffffffffffffffffffffffffffffffffffffffffffffffffff1916827bffffffffffffffffffffffffffffffffffffffffffffffffffffffff1916148061174557507f5b5e139f000000000000000000000000000000000000000000000000000000007bffffffffffffffffffffffffffffffffffffffffffffffffffffffff1916827bffffffffffffffffffffffffffffffffffffffffffffffffffffffff1916145b80611755575061175482611e43565b5b9050919050565b60008061176884611299565b9050600073ffffffffffffffffffffffffffffffffffffffff168373ffffffffffffffffffffffffffffffffffffffff16146117aa576117a9818486611ead565b5b600073ffffffffffffffffffffffffffffffffffffffff168173ffffffffffffffffffffffffffffffffffffffff161461183b576117ec6000856000806112d6565b6001600360008373ffffffffffffffffffffffffffffffffffffffff1673ffffffffffffffffffffffffffffffffffffffff168152602001908152602001600020600082825403925050819055505b600073ffffffffffffffffffffffffffffffffffffffff168573ffffffffffffffffffffffffffffffffffffffff16146118be576001600360008773ffffffffffffffffffffffffffffffffffffffff1673ffffffffffffffffffffffffffffffffffffffff168152602001908152602001600020600082825401925050819055505b846002600086815260200190815260200160002060006101000a81548173ffffffffffffffffffffffffffffffffffffffff021916908373ffffffffffffffffffffffffffffffffffffffff160217905550838573ffffffffffffffffffffffffffffffffffffffff168273ffffffffffffffffffffffffffffffffffffffff167fddf252ad1be2c89b69c2b068fc378daa952ba7f163c4a11628f55a4df523b3ef60405160405180910390a4809150509392505050565b600980549050600a600083815260200190815260200160002081905550600981908060018154018082558091505060019003906000526020600020016000909190919091505550565b60006119ca836107d6565b9050600060086000848152602001908152602001600020549050818114611aaf576000600760008673ffffffffffffffffffffffffffffffffffffffff1673ffffffffffffffffffffffffffffffffffffffff168152602001908152602001600020600084815260200190815260200160002054905080600760008773ffffffffffffffffffffffffffffffffffffffff1673ffffffffffffffffffffffffffffffffffffffff168152602001908152602001600020600084815260200190815260200160002081905550816008600083815260200190815260200160002081905550505b6008600084815260200190815260200160002060009055600760008573ffffffffffffffffffffffffffffffffffffffff1673ffffffffffffffffffffffffffffffffffffffff16815260200190815260200160002060008381526020019081526020016000206000905550505050565b60006001600980549050611b349190612d13565b90506000600a6000848152602001908152602001600020549050600060098381548110611b6457611b636128ac565b5b906000526020600020015490508060098381548110611b8657611b856128ac565b5b906000526020600020018190555081600a600083815260200190815260200160002081905550600a6000858152602001908152602001600020600090556009805480611bd557611bd4612d47565b5b6001900381819060005260206000200160009055905550505050565b60006001611bfe846107d6565b611c089190612d13565b905081600760008573ffffffffffffffffffffffffffffffffffffffff1673ffffffffffffffffffffffffffffffffffffffff168152602001908152602001600020600083815260200190815260200160002081905550806008600084815260200190815260200160002081905550505050565b600073ffffffffffffffffffffffffffffffffffffffff168273ffffffffffffffffffffffffffffffffffffffff1603611cee5760006040517f64a0ae92000000000000000000000000000000000000000000000000000000008152600401611ce591906123aa565b60405180910390fd5b6000611cfc83836000610c22565b9050600073ffffffffffffffffffffffffffffffffffffffff168173ffffffffffffffffffffffffffffffffffffffff1614611d705760006040517f73c6ac6e000000000000000000000000000000000000000000000000000000008152600401611d6791906123aa565b60405180910390fd5b505050565b606060006001611d8484611f71565b01905060008167ffffffffffffffff811115611da357611da26125fe565b5b6040519080825280601f01601f191660200182016040528015611dd55781602001600182028036833780820191505090505b509050600082602001820190505b600115611e38578080600190039150507f3031323334353637383961626364656600000000000000000000000000000000600a86061a8153600a8581611e2c57611e2b612d76565b5b04945060008503611de3575b819350505050919050565b60007f01ffc9a7000000000000000000000000000000000000000000000000000000007bffffffffffffffffffffffffffffffffffffffffffffffffffffffff1916827bffffffffffffffffffffffffffffffffffffffffffffffffffffffff1916149050919050565b611eb88383836120c4565b611f6c57600073ffffffffffffffffffffffffffffffffffffffff168373ffffffffffffffffffffffffffffffffffffffff1603611f2d57806040517f7e273289000000000000000000000000000000000000000000000000000000008152600401611f249190612440565b60405180910390fd5b81816040517f177e802f000000000000000000000000000000000000000000000000000000008152600401611f63929190612883565b60405180910390fd5b505050565b600080600090507a184f03e93ff9f4daa797ed6e38ed64bf6a1f0100000000000000008310611fcf577a184f03e93ff9f4daa797ed6e38ed64bf6a1f0100000000000000008381611fc557611fc4612d76565b5b0492506040810190505b6d04ee2d6d415b85acef8100000000831061200c576d04ee2d6d415b85acef8100000000838161200257612001612d76565b5b0492506020810190505b662386f26fc10000831061203b57662386f26fc10000838161203157612030612d76565b5b0492506010810190505b6305f5e1008310612064576305f5e100838161205a57612059612d76565b5b0492506008810190505b612710831061208957612710838161207f5761207e612d76565b5b0492506004810190505b606483106120ac57606483816120a2576120a1612d76565b5b0492506002810190505b600a83106120bb576001810190505b80915050919050565b60008073ffffffffffffffffffffffffffffffffffffffff168373ffffffffffffffffffffffffffffffffffffffff161415801561217c57508273ffffffffffffffffffffffffffffffffffffffff168473ffffffffffffffffffffffffffffffffffffffff16148061213d575061213c84846109af565b5b8061217b57508273ffffffffffffffffffffffffffffffffffffffff1661216383610bcb565b73ffffffffffffffffffffffffffffffffffffffff16145b5b90509392505050565b6000604051905090565b600080fd5b600080fd5b60007fffffffff0000000000000000000000000000000000000000000000000000000082169050919050565b6121ce81612199565b81146121d957600080fd5b50565b6000813590506121eb816121c5565b92915050565b6000602082840312156122075761220661218f565b5b6000612215848285016121dc565b91505092915050565b60008115159050919050565b6122338161221e565b82525050565b600060208201905061224e600083018461222a565b92915050565b600081519050919050565b600082825260208201905092915050565b60005b8381101561228e578082015181840152602081019050612273565b60008484015250505050565b6000601f19601f8301169050919050565b60006122b682612254565b6122c0818561225f565b93506122d0818560208601612270565b6122d98161229a565b840191505092915050565b600060208201905081810360008301526122fe81846122ab565b905092915050565b6000819050919050565b61231981612306565b811461232457600080fd5b50565b60008135905061233681612310565b92915050565b6000602082840312156123525761235161218f565b5b600061236084828501612327565b91505092915050565b600073ffffffffffffffffffffffffffffffffffffffff82169050919050565b600061239482612369565b9050919050565b6123a481612389565b82525050565b60006020820190506123bf600083018461239b565b92915050565b6123ce81612389565b81146123d957600080fd5b50565b6000813590506123eb816123c5565b92915050565b600080604083850312156124085761240761218f565b5b6000612416858286016123dc565b925050602061242785828601612327565b9150509250929050565b61243a81612306565b82525050565b60006020820190506124556000830184612431565b92915050565b6000806000606084860312156124745761247361218f565b5b6000612482868287016123dc565b9350506020612493868287016123dc565b92505060406124a486828701612327565b9150509250925092565b600080fd5b600080fd5b600080fd5b60008083601f8401126124d3576124d26124ae565b5b8235905067ffffffffffffffff8111156124f0576124ef6124b3565b5b60208301915083600182028301111561250c5761250b6124b8565b5b9250929050565b6000806020838503121561252a5761252961218f565b5b600083013567ffffffffffffffff81111561254857612547612194565b5b612554858286016124bd565b92509250509250929050565b6000602082840312156125765761257561218f565b5b6000612584848285016123dc565b91505092915050565b6125968161221e565b81146125a157600080fd5b50565b6000813590506125b38161258d565b92915050565b600080604083850312156125d0576125cf61218f565b5b60006125de858286016123dc565b92505060206125ef858286016125a4565b9150509250929050565b600080fd5b7f4e487b7100000000000000000000000000000000000000000000000000000000600052604160045260246000fd5b6126368261229a565b810181811067ffffffffffffffff82111715612655576126546125fe565b5b80604052505050565b6000612668612185565b9050612674828261262d565b919050565b600067ffffffffffffffff821115612694576126936125fe565b5b61269d8261229a565b9050602081019050919050565b82818337600083830152505050565b60006126cc6126c784612679565b61265e565b9050828152602081018484840111156126e8576126e76125f9565b5b6126f38482856126aa565b509392505050565b600082601f8301126127105761270f6124ae565b5b81356127208482602086016126b9565b91505092915050565b600080600080608085870312156127435761274261218f565b5b6000612751878288016123dc565b9450506020612762878288016123dc565b935050604061277387828801612327565b925050606085013567ffffffffffffffff81111561279457612793612194565b5b6127a0878288016126fb565b91505092959194509250565b600080604083850312156127c3576127c261218f565b5b60006127d1858286016123dc565b92505060206127e2858286016123dc565b9150509250929050565b7f4e487b7100000000000000000000000000000000000000000000000000000000600052602260045260246000fd5b6000600282049050600182168061283357607f821691505b602082108103612846576128456127ec565b5b50919050565b6000606082019050612861600083018661239b565b61286e6020830185612431565b61287b604083018461239b565b949350505050565b6000604082019050612898600083018561239b565b6128a56020830184612431565b9392505050565b7f4e487b7100000000000000000000000000000000000000000000000000000000600052603260045260246000fd5b7f4e487b7100000000000000000000000000000000000000000000000000000000600052601160045260246000fd5b600061291582612306565b91507fffffffffffffffffffffffffffffffffffffffffffffffffffffffffffffffff8203612947576129466128db565b5b600182019050919050565b60008190508160005260206000209050919050565b60006020601f8301049050919050565b600082821b905092915050565b6000600883026129b47fffffffffffffffffffffffffffffffffffffffffffffffffffffffffffffffff82612977565b6129be8683612977565b95508019841693508086168417925050509392505050565b6000819050919050565b60006129fb6129f66129f184612306565b6129d6565b612306565b9050919050565b6000819050919050565b612a15836129e0565b612a29612a2182612a02565b848454612984565b825550505050565b600090565b612a3e612a31565b612a49818484612a0c565b505050565b5b81811015612a6d57612a62600082612a36565b600181019050612a4f565b5050565b601f821115612ab257612a8381612952565b612a8c84612967565b81016020851015612a9b578190505b612aaf612aa785612967565b830182612a4e565b50505b505050565b600082821c905092915050565b6000612ad560001984600802612ab7565b1980831691505092915050565b6000612aee8383612ac4565b9150826002028217905092915050565b612b0782612254565b67ffffffffffffffff811115612b2057612b1f6125fe565b5b612b2a825461281b565b612b35828285612a71565b600060209050601f831160018114612b685760008415612b56578287015190505b612b608582612ae2565b865550612bc8565b601f198416612b7686612952565b60005b82811015612b9e57848901518255600182019150602085019450602081019050612b79565b86831015612bbb5784890151612bb7601f891682612ac4565b8355505b6001600288020188555050505b505050505050565b600081519050919050565b600082825260208201905092915050565b6000612bf782612bd0565b612c018185612bdb565b9350612c11818560208601612270565b612c1a8161229a565b840191505092915050565b6000608082019050612c3a600083018761239b565b612c47602083018661239b565b612c546040830185612431565b8181036060830152612c668184612bec565b905095945050505050565b600081519050612c80816121c5565b92915050565b600060208284031215612c9c57612c9b61218f565b5b6000612caa84828501612c71565b91505092915050565b600081905092915050565b6000612cc982612254565b612cd38185612cb3565b9350612ce3818560208601612270565b80840191505092915050565b6000612cfb8285612cbe565b9150612d078284612cbe565b91508190509392505050565b6000612d1e82612306565b9150612d2983612306565b9250828203905081811115612d4157612d406128db565b5b92915050565b7f4e487b7100000000000000000000000000000000000000000000000000000000600052603160045260246000fd5b7f4e487b7100000000000000000000000000000000000000000000000000000000600052601260045260246000fdfea2646970667358221220973ea818dcb5a34d44367d4ae571f539ac5c31cde44fb807dde89b67c3fc696a64736f6c63430008180033",
  "linkReferences": {},
  "deployedLinkReferences": {}
}